{
	"contracts/19_fuction.sol": {
		"FunctionTest": {
			"abi": [
				{
					"inputs": [],
					"name": "anotherNmed",
					"outputs": [
						{
							"internalType": "uint256",
							"name": "x",
							"type": "uint256"
						},
						{
							"internalType": "bool",
							"name": "isTrue",
							"type": "bool"
						},
						{
							"internalType": "uint256",
							"name": "y",
							"type": "uint256"
						}
					],
					"stateMutability": "pure",
					"type": "function"
				},
				{
					"inputs": [
						{
							"internalType": "uint256",
							"name": "",
							"type": "uint256"
						}
					],
					"name": "arr",
					"outputs": [
						{
							"internalType": "uint256",
							"name": "",
							"type": "uint256"
						}
					],
					"stateMutability": "view",
					"type": "function"
				},
				{
					"inputs": [
						{
							"internalType": "uint256[]",
							"name": "_arr",
							"type": "uint256[]"
						}
					],
					"name": "arrayInput",
					"outputs": [],
					"stateMutability": "nonpayable",
					"type": "function"
				},
				{
					"inputs": [],
					"name": "arrayOutput",
					"outputs": [
						{
							"internalType": "uint256[]",
							"name": "",
							"type": "uint256[]"
						}
					],
					"stateMutability": "view",
					"type": "function"
				},
				{
					"inputs": [],
					"name": "destructuringAssignments",
					"outputs": [
						{
							"internalType": "uint256",
							"name": "",
							"type": "uint256"
						},
						{
							"internalType": "bool",
							"name": "",
							"type": "bool"
						},
						{
							"internalType": "uint256",
							"name": "",
							"type": "uint256"
						},
						{
							"internalType": "uint256",
							"name": "",
							"type": "uint256"
						}
					],
					"stateMutability": "pure",
					"type": "function"
				},
				{
					"inputs": [],
					"name": "named",
					"outputs": [
						{
							"internalType": "uint256",
							"name": "x",
							"type": "uint256"
						},
						{
							"internalType": "bool",
							"name": "isTrue",
							"type": "bool"
						},
						{
							"internalType": "uint256",
							"name": "y",
							"type": "uint256"
						}
					],
					"stateMutability": "pure",
					"type": "function"
				},
				{
					"inputs": [],
					"name": "returnMany",
					"outputs": [
						{
							"internalType": "uint256",
							"name": "",
							"type": "uint256"
						},
						{
							"internalType": "bool",
							"name": "",
							"type": "bool"
						}
					],
					"stateMutability": "pure",
					"type": "function"
				}
			],
			"devdoc": {
				"kind": "dev",
				"methods": {},
				"version": 1
			},
			"evm": {
				"assembly": "    /* \"contracts/19_fuction.sol\":61:1297  contract FunctionTest {... */\n  mstore(0x40, 0x80)\n  callvalue\n  dup1\n  iszero\n  tag_1\n  jumpi\n  0x00\n  dup1\n  revert\ntag_1:\n  pop\n  dataSize(sub_0)\n  dup1\n  dataOffset(sub_0)\n  0x00\n  codecopy\n  0x00\n  return\nstop\n\nsub_0: assembly {\n        /* \"contracts/19_fuction.sol\":61:1297  contract FunctionTest {... */\n      mstore(0x40, 0x80)\n      callvalue\n      dup1\n      iszero\n      tag_1\n      jumpi\n      0x00\n      dup1\n      revert\n    tag_1:\n      pop\n      jumpi(tag_2, lt(calldatasize, 0x04))\n      shr(0xe0, calldataload(0x00))\n      dup1\n      0x71e5ee5f\n      gt\n      tag_10\n      jumpi\n      dup1\n      0x71e5ee5f\n      eq\n      tag_6\n      jumpi\n      dup1\n      0x86887544\n      eq\n      tag_7\n      jumpi\n      dup1\n      0xae43280a\n      eq\n      tag_8\n      jumpi\n      dup1\n      0xf4bb6e6b\n      eq\n      tag_9\n      jumpi\n      jump(tag_2)\n    tag_10:\n      dup1\n      0x1990532b\n      eq\n      tag_3\n      jumpi\n      dup1\n      0x45f907a8\n      eq\n      tag_4\n      jumpi\n      dup1\n      0x68873440\n      eq\n      tag_5\n      jumpi\n    tag_2:\n      0x00\n      dup1\n      revert\n        /* \"contracts/19_fuction.sol\":1203:1294  function arrayOutput() public view returns (uint256[] memory) {... */\n    tag_3:\n      tag_11\n      tag_12\n      jump\t// in\n    tag_11:\n      mload(0x40)\n      tag_13\n      swap2\n      swap1\n      tag_14\n      jump\t// in\n    tag_13:\n      mload(0x40)\n      dup1\n      swap2\n      sub\n      swap1\n      return\n        /* \"contracts/19_fuction.sol\":262:370  function named() public pure returns (uint256 x, bool isTrue, uint y) {... */\n    tag_4:\n      tag_15\n      tag_16\n      jump\t// in\n    tag_15:\n      mload(0x40)\n      tag_17\n      swap4\n      swap3\n      swap2\n      swap1\n      tag_18\n      jump\t// in\n    tag_17:\n      mload(0x40)\n      dup1\n      swap2\n      sub\n      swap1\n      return\n        /* \"contracts/19_fuction.sol\":736:1050  function destructuringAssignments()... */\n    tag_5:\n      tag_19\n      tag_20\n      jump\t// in\n    tag_19:\n      mload(0x40)\n      tag_21\n      swap5\n      swap4\n      swap3\n      swap2\n      swap1\n      tag_22\n      jump\t// in\n    tag_21:\n      mload(0x40)\n      dup1\n      swap2\n      sub\n      swap1\n      return\n        /* \"contracts/19_fuction.sol\":1174:1194  uint256[] public arr */\n    tag_6:\n      tag_23\n      0x04\n      dup1\n      calldatasize\n      sub\n      dup2\n      add\n      swap1\n      tag_24\n      swap2\n      swap1\n      tag_25\n      jump\t// in\n    tag_24:\n      tag_26\n      jump\t// in\n    tag_23:\n      mload(0x40)\n      tag_27\n      swap2\n      swap1\n      tag_28\n      jump\t// in\n    tag_27:\n      mload(0x40)\n      dup1\n      swap2\n      sub\n      swap1\n      return\n        /* \"contracts/19_fuction.sol\":126:221  function returnMany() public pure returns (uint256, bool) {... */\n    tag_7:\n      tag_29\n      tag_30\n      jump\t// in\n    tag_29:\n      mload(0x40)\n      tag_31\n      swap3\n      swap2\n      swap1\n      tag_32\n      jump\t// in\n    tag_31:\n      mload(0x40)\n      dup1\n      swap2\n      sub\n      swap1\n      return\n        /* \"contracts/19_fuction.sol\":477:619  function anotherNmed() public pure returns (uint256 x, bool isTrue, uint y) {... */\n    tag_8:\n      tag_33\n      tag_34\n      jump\t// in\n    tag_33:\n      mload(0x40)\n      tag_35\n      swap4\n      swap3\n      swap2\n      swap1\n      tag_18\n      jump\t// in\n    tag_35:\n      mload(0x40)\n      dup1\n      swap2\n      sub\n      swap1\n      return\n        /* \"contracts/19_fuction.sol\":1086:1138  function arrayInput(uint256[] memory _arr) public {} */\n    tag_9:\n      tag_36\n      0x04\n      dup1\n      calldatasize\n      sub\n      dup2\n      add\n      swap1\n      tag_37\n      swap2\n      swap1\n      tag_38\n      jump\t// in\n    tag_37:\n      tag_39\n      jump\t// in\n    tag_36:\n      stop\n        /* \"contracts/19_fuction.sol\":1203:1294  function arrayOutput() public view returns (uint256[] memory) {... */\n    tag_12:\n        /* \"contracts/19_fuction.sol\":1247:1263  uint256[] memory */\n      0x60\n        /* \"contracts/19_fuction.sol\":1283:1286  arr */\n      0x00\n        /* \"contracts/19_fuction.sol\":1276:1286  return arr */\n      dup1\n      sload\n      dup1\n      0x20\n      mul\n      0x20\n      add\n      mload(0x40)\n      swap1\n      dup2\n      add\n      0x40\n      mstore\n      dup1\n      swap3\n      swap2\n      swap1\n      dup2\n      dup2\n      mstore\n      0x20\n      add\n      dup3\n      dup1\n      sload\n      dup1\n      iszero\n      tag_41\n      jumpi\n      0x20\n      mul\n      dup3\n      add\n      swap2\n      swap1\n      0x00\n      mstore\n      keccak256(0x00, 0x20)\n      swap1\n    tag_42:\n      dup2\n      sload\n      dup2\n      mstore\n      0x20\n      add\n      swap1\n      0x01\n      add\n      swap1\n      dup1\n      dup4\n      gt\n      tag_42\n      jumpi\n    tag_41:\n      pop\n      pop\n      pop\n      pop\n      pop\n      swap1\n      pop\n        /* \"contracts/19_fuction.sol\":1203:1294  function arrayOutput() public view returns (uint256[] memory) {... */\n      swap1\n      jump\t// out\n        /* \"contracts/19_fuction.sol\":262:370  function named() public pure returns (uint256 x, bool isTrue, uint y) {... */\n    tag_16:\n        /* \"contracts/19_fuction.sol\":300:309  uint256 x */\n      0x00\n        /* \"contracts/19_fuction.sol\":311:322  bool isTrue */\n      dup1\n        /* \"contracts/19_fuction.sol\":324:330  uint y */\n      0x00\n        /* \"contracts/19_fuction.sol\":351:352  1 */\n      0x01\n        /* \"contracts/19_fuction.sol\":354:358  true */\n      dup1\n        /* \"contracts/19_fuction.sol\":360:361  2 */\n      0x02\n        /* \"contracts/19_fuction.sol\":343:362  return (1, true, 2) */\n      swap3\n      pop\n      swap3\n      pop\n      swap3\n      pop\n        /* \"contracts/19_fuction.sol\":262:370  function named() public pure returns (uint256 x, bool isTrue, uint y) {... */\n      swap1\n      swap2\n      swap3\n      jump\t// out\n        /* \"contracts/19_fuction.sol\":736:1050  function destructuringAssignments()... */\n    tag_20:\n        /* \"contracts/19_fuction.sol\":820:827  uint256 */\n      0x00\n        /* \"contracts/19_fuction.sol\":829:833  bool */\n      dup1\n        /* \"contracts/19_fuction.sol\":835:842  uint256 */\n      0x00\n        /* \"contracts/19_fuction.sol\":844:851  uint256 */\n      dup1\n        /* \"contracts/19_fuction.sol\":870:879  uint256 i */\n      0x00\n        /* \"contracts/19_fuction.sol\":881:887  bool b */\n      dup1\n        /* \"contracts/19_fuction.sol\":891:903  returnMany() */\n      tag_45\n        /* \"contracts/19_fuction.sol\":891:901  returnMany */\n      tag_30\n        /* \"contracts/19_fuction.sol\":891:903  returnMany() */\n      jump\t// in\n    tag_45:\n        /* \"contracts/19_fuction.sol\":869:903  (uint256 i, bool b) = returnMany() */\n      swap2\n      pop\n      swap2\n      pop\n        /* \"contracts/19_fuction.sol\":975:984  uint256 x */\n      0x00\n        /* \"contracts/19_fuction.sol\":988:997  uint256 y */\n      dup1\n        /* \"contracts/19_fuction.sol\":1002:1003  4 */\n      0x04\n        /* \"contracts/19_fuction.sol\":1005:1006  5 */\n      0x05\n        /* \"contracts/19_fuction.sol\":1008:1009  6 */\n      0x06\n        /* \"contracts/19_fuction.sol\":974:1010  (uint256 x, , uint256 y) = (4, 5, 6) */\n      swap3\n      pop\n      pop\n      swap2\n      pop\n        /* \"contracts/19_fuction.sol\":1031:1032  i */\n      dup4\n        /* \"contracts/19_fuction.sol\":1034:1035  b */\n      dup4\n        /* \"contracts/19_fuction.sol\":1037:1038  x */\n      dup4\n        /* \"contracts/19_fuction.sol\":1040:1041  y */\n      dup4\n        /* \"contracts/19_fuction.sol\":1023:1042  return (i, b, x, y) */\n      swap8\n      pop\n      swap8\n      pop\n      swap8\n      pop\n      swap8\n      pop\n      pop\n      pop\n      pop\n      pop\n        /* \"contracts/19_fuction.sol\":736:1050  function destructuringAssignments()... */\n      swap1\n      swap2\n      swap3\n      swap4\n      jump\t// out\n        /* \"contracts/19_fuction.sol\":1174:1194  uint256[] public arr */\n    tag_26:\n      0x00\n      dup2\n      dup2\n      sload\n      dup2\n      lt\n      tag_46\n      jumpi\n      0x00\n      dup1\n      revert\n    tag_46:\n      swap1\n      0x00\n      mstore\n      keccak256(0x00, 0x20)\n      add\n      0x00\n      swap2\n      pop\n      swap1\n      pop\n      sload\n      dup2\n      jump\t// out\n        /* \"contracts/19_fuction.sol\":126:221  function returnMany() public pure returns (uint256, bool) {... */\n    tag_30:\n        /* \"contracts/19_fuction.sol\":169:176  uint256 */\n      0x00\n        /* \"contracts/19_fuction.sol\":178:182  bool */\n      dup1\n        /* \"contracts/19_fuction.sol\":203:206  123 */\n      0x7b\n        /* \"contracts/19_fuction.sol\":208:212  true */\n      0x01\n        /* \"contracts/19_fuction.sol\":195:213  return (123, true) */\n      swap2\n      pop\n      swap2\n      pop\n        /* \"contracts/19_fuction.sol\":126:221  function returnMany() public pure returns (uint256, bool) {... */\n      swap1\n      swap2\n      jump\t// out\n        /* \"contracts/19_fuction.sol\":477:619  function anotherNmed() public pure returns (uint256 x, bool isTrue, uint y) {... */\n    tag_34:\n        /* \"contracts/19_fuction.sol\":521:530  uint256 x */\n      0x00\n        /* \"contracts/19_fuction.sol\":532:543  bool isTrue */\n      dup1\n        /* \"contracts/19_fuction.sol\":545:551  uint y */\n      0x00\n        /* \"contracts/19_fuction.sol\":568:569  1 */\n      0x01\n        /* \"contracts/19_fuction.sol\":564:569  x = 1 */\n      swap3\n      pop\n        /* \"contracts/19_fuction.sol\":589:593  true */\n      0x01\n        /* \"contracts/19_fuction.sol\":580:593  isTrue = true */\n      swap2\n      pop\n        /* \"contracts/19_fuction.sol\":608:611  123 */\n      0x7b\n        /* \"contracts/19_fuction.sol\":604:611  y = 123 */\n      swap1\n      pop\n        /* \"contracts/19_fuction.sol\":477:619  function anotherNmed() public pure returns (uint256 x, bool isTrue, uint y) {... */\n      swap1\n      swap2\n      swap3\n      jump\t// out\n        /* \"contracts/19_fuction.sol\":1086:1138  function arrayInput(uint256[] memory _arr) public {} */\n    tag_39:\n      pop\n      jump\t// out\n        /* \"#utility.yul\":7:121   */\n    tag_51:\n        /* \"#utility.yul\":74:80   */\n      0x00\n        /* \"#utility.yul\":108:113   */\n      dup2\n        /* \"#utility.yul\":102:114   */\n      mload\n        /* \"#utility.yul\":92:114   */\n      swap1\n      pop\n        /* \"#utility.yul\":7:121   */\n      swap2\n      swap1\n      pop\n      jump\t// out\n        /* \"#utility.yul\":127:311   */\n    tag_52:\n        /* \"#utility.yul\":226:237   */\n      0x00\n        /* \"#utility.yul\":260:266   */\n      dup3\n        /* \"#utility.yul\":255:258   */\n      dup3\n        /* \"#utility.yul\":248:267   */\n      mstore\n        /* \"#utility.yul\":300:304   */\n      0x20\n        /* \"#utility.yul\":295:298   */\n      dup3\n        /* \"#utility.yul\":291:305   */\n      add\n        /* \"#utility.yul\":276:305   */\n      swap1\n      pop\n        /* \"#utility.yul\":127:311   */\n      swap3\n      swap2\n      pop\n      pop\n      jump\t// out\n        /* \"#utility.yul\":317:449   */\n    tag_53:\n        /* \"#utility.yul\":384:388   */\n      0x00\n        /* \"#utility.yul\":407:410   */\n      dup2\n        /* \"#utility.yul\":399:410   */\n      swap1\n      pop\n        /* \"#utility.yul\":437:441   */\n      0x20\n        /* \"#utility.yul\":432:435   */\n      dup3\n        /* \"#utility.yul\":428:442   */\n      add\n        /* \"#utility.yul\":420:442   */\n      swap1\n      pop\n        /* \"#utility.yul\":317:449   */\n      swap2\n      swap1\n      pop\n      jump\t// out\n        /* \"#utility.yul\":455:532   */\n    tag_54:\n        /* \"#utility.yul\":492:499   */\n      0x00\n        /* \"#utility.yul\":521:526   */\n      dup2\n        /* \"#utility.yul\":510:526   */\n      swap1\n      pop\n        /* \"#utility.yul\":455:532   */\n      swap2\n      swap1\n      pop\n      jump\t// out\n        /* \"#utility.yul\":538:646   */\n    tag_55:\n        /* \"#utility.yul\":615:639   */\n      tag_82\n        /* \"#utility.yul\":633:638   */\n      dup2\n        /* \"#utility.yul\":615:639   */\n      tag_54\n      jump\t// in\n    tag_82:\n        /* \"#utility.yul\":610:613   */\n      dup3\n        /* \"#utility.yul\":603:640   */\n      mstore\n        /* \"#utility.yul\":538:646   */\n      pop\n      pop\n      jump\t// out\n        /* \"#utility.yul\":652:831   */\n    tag_56:\n        /* \"#utility.yul\":721:731   */\n      0x00\n        /* \"#utility.yul\":742:788   */\n      tag_84\n        /* \"#utility.yul\":784:787   */\n      dup4\n        /* \"#utility.yul\":776:782   */\n      dup4\n        /* \"#utility.yul\":742:788   */\n      tag_55\n      jump\t// in\n    tag_84:\n        /* \"#utility.yul\":820:824   */\n      0x20\n        /* \"#utility.yul\":815:818   */\n      dup4\n        /* \"#utility.yul\":811:825   */\n      add\n        /* \"#utility.yul\":797:825   */\n      swap1\n      pop\n        /* \"#utility.yul\":652:831   */\n      swap3\n      swap2\n      pop\n      pop\n      jump\t// out\n        /* \"#utility.yul\":837:950   */\n    tag_57:\n        /* \"#utility.yul\":907:911   */\n      0x00\n        /* \"#utility.yul\":939:943   */\n      0x20\n        /* \"#utility.yul\":934:937   */\n      dup3\n        /* \"#utility.yul\":930:944   */\n      add\n        /* \"#utility.yul\":922:944   */\n      swap1\n      pop\n        /* \"#utility.yul\":837:950   */\n      swap2\n      swap1\n      pop\n      jump\t// out\n        /* \"#utility.yul\":986:1718   */\n    tag_58:\n        /* \"#utility.yul\":1105:1108   */\n      0x00\n        /* \"#utility.yul\":1134:1188   */\n      tag_87\n        /* \"#utility.yul\":1182:1187   */\n      dup3\n        /* \"#utility.yul\":1134:1188   */\n      tag_51\n      jump\t// in\n    tag_87:\n        /* \"#utility.yul\":1204:1290   */\n      tag_88\n        /* \"#utility.yul\":1283:1289   */\n      dup2\n        /* \"#utility.yul\":1278:1281   */\n      dup6\n        /* \"#utility.yul\":1204:1290   */\n      tag_52\n      jump\t// in\n    tag_88:\n        /* \"#utility.yul\":1197:1290   */\n      swap4\n      pop\n        /* \"#utility.yul\":1314:1370   */\n      tag_89\n        /* \"#utility.yul\":1364:1369   */\n      dup4\n        /* \"#utility.yul\":1314:1370   */\n      tag_53\n      jump\t// in\n    tag_89:\n        /* \"#utility.yul\":1393:1400   */\n      dup1\n        /* \"#utility.yul\":1424:1425   */\n      0x00\n        /* \"#utility.yul\":1409:1693   */\n    tag_90:\n        /* \"#utility.yul\":1434:1440   */\n      dup4\n        /* \"#utility.yul\":1431:1432   */\n      dup2\n        /* \"#utility.yul\":1428:1441   */\n      lt\n        /* \"#utility.yul\":1409:1693   */\n      iszero\n      tag_92\n      jumpi\n        /* \"#utility.yul\":1510:1516   */\n      dup2\n        /* \"#utility.yul\":1504:1517   */\n      mload\n        /* \"#utility.yul\":1537:1600   */\n      tag_93\n        /* \"#utility.yul\":1596:1599   */\n      dup9\n        /* \"#utility.yul\":1581:1594   */\n      dup3\n        /* \"#utility.yul\":1537:1600   */\n      tag_56\n      jump\t// in\n    tag_93:\n        /* \"#utility.yul\":1530:1600   */\n      swap8\n      pop\n        /* \"#utility.yul\":1623:1683   */\n      tag_94\n        /* \"#utility.yul\":1676:1682   */\n      dup4\n        /* \"#utility.yul\":1623:1683   */\n      tag_57\n      jump\t// in\n    tag_94:\n        /* \"#utility.yul\":1613:1683   */\n      swap3\n      pop\n        /* \"#utility.yul\":1469:1693   */\n      pop\n        /* \"#utility.yul\":1456:1457   */\n      0x01\n        /* \"#utility.yul\":1453:1454   */\n      dup2\n        /* \"#utility.yul\":1449:1458   */\n      add\n        /* \"#utility.yul\":1444:1458   */\n      swap1\n      pop\n        /* \"#utility.yul\":1409:1693   */\n      jump(tag_90)\n    tag_92:\n        /* \"#utility.yul\":1413:1427   */\n      pop\n        /* \"#utility.yul\":1709:1712   */\n      dup6\n        /* \"#utility.yul\":1702:1712   */\n      swap4\n      pop\n        /* \"#utility.yul\":1110:1718   */\n      pop\n      pop\n      pop\n        /* \"#utility.yul\":986:1718   */\n      swap3\n      swap2\n      pop\n      pop\n      jump\t// out\n        /* \"#utility.yul\":1724:2097   */\n    tag_14:\n        /* \"#utility.yul\":1867:1871   */\n      0x00\n        /* \"#utility.yul\":1905:1907   */\n      0x20\n        /* \"#utility.yul\":1894:1903   */\n      dup3\n        /* \"#utility.yul\":1890:1908   */\n      add\n        /* \"#utility.yul\":1882:1908   */\n      swap1\n      pop\n        /* \"#utility.yul\":1954:1963   */\n      dup2\n        /* \"#utility.yul\":1948:1952   */\n      dup2\n        /* \"#utility.yul\":1944:1964   */\n      sub\n        /* \"#utility.yul\":1940:1941   */\n      0x00\n        /* \"#utility.yul\":1929:1938   */\n      dup4\n        /* \"#utility.yul\":1925:1942   */\n      add\n        /* \"#utility.yul\":1918:1965   */\n      mstore\n        /* \"#utility.yul\":1982:2090   */\n      tag_96\n        /* \"#utility.yul\":2085:2089   */\n      dup2\n        /* \"#utility.yul\":2076:2082   */\n      dup5\n        /* \"#utility.yul\":1982:2090   */\n      tag_58\n      jump\t// in\n    tag_96:\n        /* \"#utility.yul\":1974:2090   */\n      swap1\n      pop\n        /* \"#utility.yul\":1724:2097   */\n      swap3\n      swap2\n      pop\n      pop\n      jump\t// out\n        /* \"#utility.yul\":2103:2221   */\n    tag_59:\n        /* \"#utility.yul\":2190:2214   */\n      tag_98\n        /* \"#utility.yul\":2208:2213   */\n      dup2\n        /* \"#utility.yul\":2190:2214   */\n      tag_54\n      jump\t// in\n    tag_98:\n        /* \"#utility.yul\":2185:2188   */\n      dup3\n        /* \"#utility.yul\":2178:2215   */\n      mstore\n        /* \"#utility.yul\":2103:2221   */\n      pop\n      pop\n      jump\t// out\n        /* \"#utility.yul\":2227:2317   */\n    tag_60:\n        /* \"#utility.yul\":2261:2268   */\n      0x00\n        /* \"#utility.yul\":2304:2309   */\n      dup2\n        /* \"#utility.yul\":2297:2310   */\n      iszero\n        /* \"#utility.yul\":2290:2311   */\n      iszero\n        /* \"#utility.yul\":2279:2311   */\n      swap1\n      pop\n        /* \"#utility.yul\":2227:2317   */\n      swap2\n      swap1\n      pop\n      jump\t// out\n        /* \"#utility.yul\":2323:2432   */\n    tag_61:\n        /* \"#utility.yul\":2404:2425   */\n      tag_101\n        /* \"#utility.yul\":2419:2424   */\n      dup2\n        /* \"#utility.yul\":2404:2425   */\n      tag_60\n      jump\t// in\n    tag_101:\n        /* \"#utility.yul\":2399:2402   */\n      dup3\n        /* \"#utility.yul\":2392:2426   */\n      mstore\n        /* \"#utility.yul\":2323:2432   */\n      pop\n      pop\n      jump\t// out\n        /* \"#utility.yul\":2438:2868   */\n    tag_18:\n        /* \"#utility.yul\":2581:2585   */\n      0x00\n        /* \"#utility.yul\":2619:2621   */\n      0x60\n        /* \"#utility.yul\":2608:2617   */\n      dup3\n        /* \"#utility.yul\":2604:2622   */\n      add\n        /* \"#utility.yul\":2596:2622   */\n      swap1\n      pop\n        /* \"#utility.yul\":2632:2703   */\n      tag_103\n        /* \"#utility.yul\":2700:2701   */\n      0x00\n        /* \"#utility.yul\":2689:2698   */\n      dup4\n        /* \"#utility.yul\":2685:2702   */\n      add\n        /* \"#utility.yul\":2676:2682   */\n      dup7\n        /* \"#utility.yul\":2632:2703   */\n      tag_59\n      jump\t// in\n    tag_103:\n        /* \"#utility.yul\":2713:2779   */\n      tag_104\n        /* \"#utility.yul\":2775:2777   */\n      0x20\n        /* \"#utility.yul\":2764:2773   */\n      dup4\n        /* \"#utility.yul\":2760:2778   */\n      add\n        /* \"#utility.yul\":2751:2757   */\n      dup6\n        /* \"#utility.yul\":2713:2779   */\n      tag_61\n      jump\t// in\n    tag_104:\n        /* \"#utility.yul\":2789:2861   */\n      tag_105\n        /* \"#utility.yul\":2857:2859   */\n      0x40\n        /* \"#utility.yul\":2846:2855   */\n      dup4\n        /* \"#utility.yul\":2842:2860   */\n      add\n        /* \"#utility.yul\":2833:2839   */\n      dup5\n        /* \"#utility.yul\":2789:2861   */\n      tag_59\n      jump\t// in\n    tag_105:\n        /* \"#utility.yul\":2438:2868   */\n      swap5\n      swap4\n      pop\n      pop\n      pop\n      pop\n      jump\t// out\n        /* \"#utility.yul\":2874:3415   */\n    tag_22:\n        /* \"#utility.yul\":3045:3049   */\n      0x00\n        /* \"#utility.yul\":3083:3086   */\n      0x80\n        /* \"#utility.yul\":3072:3081   */\n      dup3\n        /* \"#utility.yul\":3068:3087   */\n      add\n        /* \"#utility.yul\":3060:3087   */\n      swap1\n      pop\n        /* \"#utility.yul\":3097:3168   */\n      tag_107\n        /* \"#utility.yul\":3165:3166   */\n      0x00\n        /* \"#utility.yul\":3154:3163   */\n      dup4\n        /* \"#utility.yul\":3150:3167   */\n      add\n        /* \"#utility.yul\":3141:3147   */\n      dup8\n        /* \"#utility.yul\":3097:3168   */\n      tag_59\n      jump\t// in\n    tag_107:\n        /* \"#utility.yul\":3178:3244   */\n      tag_108\n        /* \"#utility.yul\":3240:3242   */\n      0x20\n        /* \"#utility.yul\":3229:3238   */\n      dup4\n        /* \"#utility.yul\":3225:3243   */\n      add\n        /* \"#utility.yul\":3216:3222   */\n      dup7\n        /* \"#utility.yul\":3178:3244   */\n      tag_61\n      jump\t// in\n    tag_108:\n        /* \"#utility.yul\":3254:3326   */\n      tag_109\n        /* \"#utility.yul\":3322:3324   */\n      0x40\n        /* \"#utility.yul\":3311:3320   */\n      dup4\n        /* \"#utility.yul\":3307:3325   */\n      add\n        /* \"#utility.yul\":3298:3304   */\n      dup6\n        /* \"#utility.yul\":3254:3326   */\n      tag_59\n      jump\t// in\n    tag_109:\n        /* \"#utility.yul\":3336:3408   */\n      tag_110\n        /* \"#utility.yul\":3404:3406   */\n      0x60\n        /* \"#utility.yul\":3393:3402   */\n      dup4\n        /* \"#utility.yul\":3389:3407   */\n      add\n        /* \"#utility.yul\":3380:3386   */\n      dup5\n        /* \"#utility.yul\":3336:3408   */\n      tag_59\n      jump\t// in\n    tag_110:\n        /* \"#utility.yul\":2874:3415   */\n      swap6\n      swap5\n      pop\n      pop\n      pop\n      pop\n      pop\n      jump\t// out\n        /* \"#utility.yul\":3421:3496   */\n    tag_62:\n        /* \"#utility.yul\":3454:3460   */\n      0x00\n        /* \"#utility.yul\":3487:3489   */\n      0x40\n        /* \"#utility.yul\":3481:3490   */\n      mload\n        /* \"#utility.yul\":3471:3490   */\n      swap1\n      pop\n        /* \"#utility.yul\":3421:3496   */\n      swap1\n      jump\t// out\n        /* \"#utility.yul\":3502:3619   */\n    tag_63:\n        /* \"#utility.yul\":3611:3612   */\n      0x00\n        /* \"#utility.yul\":3608:3609   */\n      dup1\n        /* \"#utility.yul\":3601:3613   */\n      revert\n        /* \"#utility.yul\":3625:3742   */\n    tag_64:\n        /* \"#utility.yul\":3734:3735   */\n      0x00\n        /* \"#utility.yul\":3731:3732   */\n      dup1\n        /* \"#utility.yul\":3724:3736   */\n      revert\n        /* \"#utility.yul\":3748:3870   */\n    tag_65:\n        /* \"#utility.yul\":3821:3845   */\n      tag_115\n        /* \"#utility.yul\":3839:3844   */\n      dup2\n        /* \"#utility.yul\":3821:3845   */\n      tag_54\n      jump\t// in\n    tag_115:\n        /* \"#utility.yul\":3814:3819   */\n      dup2\n        /* \"#utility.yul\":3811:3846   */\n      eq\n        /* \"#utility.yul\":3801:3864   */\n      tag_116\n      jumpi\n        /* \"#utility.yul\":3860:3861   */\n      0x00\n        /* \"#utility.yul\":3857:3858   */\n      dup1\n        /* \"#utility.yul\":3850:3862   */\n      revert\n        /* \"#utility.yul\":3801:3864   */\n    tag_116:\n        /* \"#utility.yul\":3748:3870   */\n      pop\n      jump\t// out\n        /* \"#utility.yul\":3876:4015   */\n    tag_66:\n        /* \"#utility.yul\":3922:3927   */\n      0x00\n        /* \"#utility.yul\":3960:3966   */\n      dup2\n        /* \"#utility.yul\":3947:3967   */\n      calldataload\n        /* \"#utility.yul\":3938:3967   */\n      swap1\n      pop\n        /* \"#utility.yul\":3976:4009   */\n      tag_118\n        /* \"#utility.yul\":4003:4008   */\n      dup2\n        /* \"#utility.yul\":3976:4009   */\n      tag_65\n      jump\t// in\n    tag_118:\n        /* \"#utility.yul\":3876:4015   */\n      swap3\n      swap2\n      pop\n      pop\n      jump\t// out\n        /* \"#utility.yul\":4021:4350   */\n    tag_25:\n        /* \"#utility.yul\":4080:4086   */\n      0x00\n        /* \"#utility.yul\":4129:4131   */\n      0x20\n        /* \"#utility.yul\":4117:4126   */\n      dup3\n        /* \"#utility.yul\":4108:4115   */\n      dup5\n        /* \"#utility.yul\":4104:4127   */\n      sub\n        /* \"#utility.yul\":4100:4132   */\n      slt\n        /* \"#utility.yul\":4097:4216   */\n      iszero\n      tag_120\n      jumpi\n        /* \"#utility.yul\":4135:4214   */\n      tag_121\n      tag_63\n      jump\t// in\n    tag_121:\n        /* \"#utility.yul\":4097:4216   */\n    tag_120:\n        /* \"#utility.yul\":4255:4256   */\n      0x00\n        /* \"#utility.yul\":4280:4333   */\n      tag_122\n        /* \"#utility.yul\":4325:4332   */\n      dup5\n        /* \"#utility.yul\":4316:4322   */\n      dup3\n        /* \"#utility.yul\":4305:4314   */\n      dup6\n        /* \"#utility.yul\":4301:4323   */\n      add\n        /* \"#utility.yul\":4280:4333   */\n      tag_66\n      jump\t// in\n    tag_122:\n        /* \"#utility.yul\":4270:4333   */\n      swap2\n      pop\n        /* \"#utility.yul\":4226:4343   */\n      pop\n        /* \"#utility.yul\":4021:4350   */\n      swap3\n      swap2\n      pop\n      pop\n      jump\t// out\n        /* \"#utility.yul\":4356:4578   */\n    tag_28:\n        /* \"#utility.yul\":4449:4453   */\n      0x00\n        /* \"#utility.yul\":4487:4489   */\n      0x20\n        /* \"#utility.yul\":4476:4485   */\n      dup3\n        /* \"#utility.yul\":4472:4490   */\n      add\n        /* \"#utility.yul\":4464:4490   */\n      swap1\n      pop\n        /* \"#utility.yul\":4500:4571   */\n      tag_124\n        /* \"#utility.yul\":4568:4569   */\n      0x00\n        /* \"#utility.yul\":4557:4566   */\n      dup4\n        /* \"#utility.yul\":4553:4570   */\n      add\n        /* \"#utility.yul\":4544:4550   */\n      dup5\n        /* \"#utility.yul\":4500:4571   */\n      tag_59\n      jump\t// in\n    tag_124:\n        /* \"#utility.yul\":4356:4578   */\n      swap3\n      swap2\n      pop\n      pop\n      jump\t// out\n        /* \"#utility.yul\":4584:4904   */\n    tag_32:\n        /* \"#utility.yul\":4699:4703   */\n      0x00\n        /* \"#utility.yul\":4737:4739   */\n      0x40\n        /* \"#utility.yul\":4726:4735   */\n      dup3\n        /* \"#utility.yul\":4722:4740   */\n      add\n        /* \"#utility.yul\":4714:4740   */\n      swap1\n      pop\n        /* \"#utility.yul\":4750:4821   */\n      tag_126\n        /* \"#utility.yul\":4818:4819   */\n      0x00\n        /* \"#utility.yul\":4807:4816   */\n      dup4\n        /* \"#utility.yul\":4803:4820   */\n      add\n        /* \"#utility.yul\":4794:4800   */\n      dup6\n        /* \"#utility.yul\":4750:4821   */\n      tag_59\n      jump\t// in\n    tag_126:\n        /* \"#utility.yul\":4831:4897   */\n      tag_127\n        /* \"#utility.yul\":4893:4895   */\n      0x20\n        /* \"#utility.yul\":4882:4891   */\n      dup4\n        /* \"#utility.yul\":4878:4896   */\n      add\n        /* \"#utility.yul\":4869:4875   */\n      dup5\n        /* \"#utility.yul\":4831:4897   */\n      tag_61\n      jump\t// in\n    tag_127:\n        /* \"#utility.yul\":4584:4904   */\n      swap4\n      swap3\n      pop\n      pop\n      pop\n      jump\t// out\n        /* \"#utility.yul\":4910:5027   */\n    tag_67:\n        /* \"#utility.yul\":5019:5020   */\n      0x00\n        /* \"#utility.yul\":5016:5017   */\n      dup1\n        /* \"#utility.yul\":5009:5021   */\n      revert\n        /* \"#utility.yul\":5033:5135   */\n    tag_68:\n        /* \"#utility.yul\":5074:5080   */\n      0x00\n        /* \"#utility.yul\":5125:5127   */\n      0x1f\n        /* \"#utility.yul\":5121:5128   */\n      not\n        /* \"#utility.yul\":5116:5118   */\n      0x1f\n        /* \"#utility.yul\":5109:5114   */\n      dup4\n        /* \"#utility.yul\":5105:5119   */\n      add\n        /* \"#utility.yul\":5101:5129   */\n      and\n        /* \"#utility.yul\":5091:5129   */\n      swap1\n      pop\n        /* \"#utility.yul\":5033:5135   */\n      swap2\n      swap1\n      pop\n      jump\t// out\n        /* \"#utility.yul\":5141:5321   */\n    tag_69:\n        /* \"#utility.yul\":5189:5266   */\n      0x4e487b7100000000000000000000000000000000000000000000000000000000\n        /* \"#utility.yul\":5186:5187   */\n      0x00\n        /* \"#utility.yul\":5179:5267   */\n      mstore\n        /* \"#utility.yul\":5286:5290   */\n      0x41\n        /* \"#utility.yul\":5283:5284   */\n      0x04\n        /* \"#utility.yul\":5276:5291   */\n      mstore\n        /* \"#utility.yul\":5310:5314   */\n      0x24\n        /* \"#utility.yul\":5307:5308   */\n      0x00\n        /* \"#utility.yul\":5300:5315   */\n      revert\n        /* \"#utility.yul\":5327:5608   */\n    tag_70:\n        /* \"#utility.yul\":5410:5437   */\n      tag_132\n        /* \"#utility.yul\":5432:5436   */\n      dup3\n        /* \"#utility.yul\":5410:5437   */\n      tag_68\n      jump\t// in\n    tag_132:\n        /* \"#utility.yul\":5402:5408   */\n      dup2\n        /* \"#utility.yul\":5398:5438   */\n      add\n        /* \"#utility.yul\":5540:5546   */\n      dup2\n        /* \"#utility.yul\":5528:5538   */\n      dup2\n        /* \"#utility.yul\":5525:5547   */\n      lt\n        /* \"#utility.yul\":5504:5522   */\n      0xffffffffffffffff\n        /* \"#utility.yul\":5492:5502   */\n      dup3\n        /* \"#utility.yul\":5489:5523   */\n      gt\n        /* \"#utility.yul\":5486:5548   */\n      or\n        /* \"#utility.yul\":5483:5571   */\n      iszero\n      tag_133\n      jumpi\n        /* \"#utility.yul\":5551:5569   */\n      tag_134\n      tag_69\n      jump\t// in\n    tag_134:\n        /* \"#utility.yul\":5483:5571   */\n    tag_133:\n        /* \"#utility.yul\":5591:5601   */\n      dup1\n        /* \"#utility.yul\":5587:5589   */\n      0x40\n        /* \"#utility.yul\":5580:5602   */\n      mstore\n        /* \"#utility.yul\":5370:5608   */\n      pop\n        /* \"#utility.yul\":5327:5608   */\n      pop\n      pop\n      jump\t// out\n        /* \"#utility.yul\":5614:5743   */\n    tag_71:\n        /* \"#utility.yul\":5648:5654   */\n      0x00\n        /* \"#utility.yul\":5675:5695   */\n      tag_136\n      tag_62\n      jump\t// in\n    tag_136:\n        /* \"#utility.yul\":5665:5695   */\n      swap1\n      pop\n        /* \"#utility.yul\":5704:5737   */\n      tag_137\n        /* \"#utility.yul\":5732:5736   */\n      dup3\n        /* \"#utility.yul\":5724:5730   */\n      dup3\n        /* \"#utility.yul\":5704:5737   */\n      tag_70\n      jump\t// in\n    tag_137:\n        /* \"#utility.yul\":5614:5743   */\n      swap2\n      swap1\n      pop\n      jump\t// out\n        /* \"#utility.yul\":5749:6060   */\n    tag_72:\n        /* \"#utility.yul\":5826:5830   */\n      0x00\n        /* \"#utility.yul\":5916:5934   */\n      0xffffffffffffffff\n        /* \"#utility.yul\":5908:5914   */\n      dup3\n        /* \"#utility.yul\":5905:5935   */\n      gt\n        /* \"#utility.yul\":5902:5958   */\n      iszero\n      tag_139\n      jumpi\n        /* \"#utility.yul\":5938:5956   */\n      tag_140\n      tag_69\n      jump\t// in\n    tag_140:\n        /* \"#utility.yul\":5902:5958   */\n    tag_139:\n        /* \"#utility.yul\":5988:5992   */\n      0x20\n        /* \"#utility.yul\":5980:5986   */\n      dup3\n        /* \"#utility.yul\":5976:5993   */\n      mul\n        /* \"#utility.yul\":5968:5993   */\n      swap1\n      pop\n        /* \"#utility.yul\":6048:6052   */\n      0x20\n        /* \"#utility.yul\":6042:6046   */\n      dup2\n        /* \"#utility.yul\":6038:6053   */\n      add\n        /* \"#utility.yul\":6030:6053   */\n      swap1\n      pop\n        /* \"#utility.yul\":5749:6060   */\n      swap2\n      swap1\n      pop\n      jump\t// out\n        /* \"#utility.yul\":6066:6183   */\n    tag_73:\n        /* \"#utility.yul\":6175:6176   */\n      0x00\n        /* \"#utility.yul\":6172:6173   */\n      dup1\n        /* \"#utility.yul\":6165:6177   */\n      revert\n        /* \"#utility.yul\":6206:6916   */\n    tag_74:\n        /* \"#utility.yul\":6302:6307   */\n      0x00\n        /* \"#utility.yul\":6327:6408   */\n      tag_143\n        /* \"#utility.yul\":6343:6407   */\n      tag_144\n        /* \"#utility.yul\":6400:6406   */\n      dup5\n        /* \"#utility.yul\":6343:6407   */\n      tag_72\n      jump\t// in\n    tag_144:\n        /* \"#utility.yul\":6327:6408   */\n      tag_71\n      jump\t// in\n    tag_143:\n        /* \"#utility.yul\":6318:6408   */\n      swap1\n      pop\n        /* \"#utility.yul\":6428:6433   */\n      dup1\n        /* \"#utility.yul\":6457:6463   */\n      dup4\n        /* \"#utility.yul\":6450:6455   */\n      dup3\n        /* \"#utility.yul\":6443:6464   */\n      mstore\n        /* \"#utility.yul\":6491:6495   */\n      0x20\n        /* \"#utility.yul\":6484:6489   */\n      dup3\n        /* \"#utility.yul\":6480:6496   */\n      add\n        /* \"#utility.yul\":6473:6496   */\n      swap1\n      pop\n        /* \"#utility.yul\":6544:6548   */\n      0x20\n        /* \"#utility.yul\":6536:6542   */\n      dup5\n        /* \"#utility.yul\":6532:6549   */\n      mul\n        /* \"#utility.yul\":6524:6530   */\n      dup4\n        /* \"#utility.yul\":6520:6550   */\n      add\n        /* \"#utility.yul\":6573:6576   */\n      dup6\n        /* \"#utility.yul\":6565:6571   */\n      dup2\n        /* \"#utility.yul\":6562:6577   */\n      gt\n        /* \"#utility.yul\":6559:6681   */\n      iszero\n      tag_145\n      jumpi\n        /* \"#utility.yul\":6592:6671   */\n      tag_146\n      tag_73\n      jump\t// in\n    tag_146:\n        /* \"#utility.yul\":6559:6681   */\n    tag_145:\n        /* \"#utility.yul\":6707:6713   */\n      dup4\n        /* \"#utility.yul\":6690:6910   */\n    tag_147:\n        /* \"#utility.yul\":6724:6730   */\n      dup2\n        /* \"#utility.yul\":6719:6722   */\n      dup2\n        /* \"#utility.yul\":6716:6731   */\n      lt\n        /* \"#utility.yul\":6690:6910   */\n      iszero\n      tag_149\n      jumpi\n        /* \"#utility.yul\":6799:6802   */\n      dup1\n        /* \"#utility.yul\":6828:6865   */\n      tag_150\n        /* \"#utility.yul\":6861:6864   */\n      dup9\n        /* \"#utility.yul\":6849:6859   */\n      dup3\n        /* \"#utility.yul\":6828:6865   */\n      tag_66\n      jump\t// in\n    tag_150:\n        /* \"#utility.yul\":6823:6826   */\n      dup5\n        /* \"#utility.yul\":6816:6866   */\n      mstore\n        /* \"#utility.yul\":6895:6899   */\n      0x20\n        /* \"#utility.yul\":6890:6893   */\n      dup5\n        /* \"#utility.yul\":6886:6900   */\n      add\n        /* \"#utility.yul\":6879:6900   */\n      swap4\n      pop\n        /* \"#utility.yul\":6766:6910   */\n      pop\n        /* \"#utility.yul\":6750:6754   */\n      0x20\n        /* \"#utility.yul\":6745:6748   */\n      dup2\n        /* \"#utility.yul\":6741:6755   */\n      add\n        /* \"#utility.yul\":6734:6755   */\n      swap1\n      pop\n        /* \"#utility.yul\":6690:6910   */\n      jump(tag_147)\n    tag_149:\n        /* \"#utility.yul\":6694:6715   */\n      pop\n        /* \"#utility.yul\":6308:6916   */\n      pop\n      pop\n        /* \"#utility.yul\":6206:6916   */\n      swap4\n      swap3\n      pop\n      pop\n      pop\n      jump\t// out\n        /* \"#utility.yul\":6939:7309   */\n    tag_75:\n        /* \"#utility.yul\":7010:7015   */\n      0x00\n        /* \"#utility.yul\":7059:7062   */\n      dup3\n        /* \"#utility.yul\":7052:7056   */\n      0x1f\n        /* \"#utility.yul\":7044:7050   */\n      dup4\n        /* \"#utility.yul\":7040:7057   */\n      add\n        /* \"#utility.yul\":7036:7063   */\n      slt\n        /* \"#utility.yul\":7026:7148   */\n      tag_152\n      jumpi\n        /* \"#utility.yul\":7067:7146   */\n      tag_153\n      tag_67\n      jump\t// in\n    tag_153:\n        /* \"#utility.yul\":7026:7148   */\n    tag_152:\n        /* \"#utility.yul\":7184:7190   */\n      dup2\n        /* \"#utility.yul\":7171:7191   */\n      calldataload\n        /* \"#utility.yul\":7209:7303   */\n      tag_154\n        /* \"#utility.yul\":7299:7302   */\n      dup5\n        /* \"#utility.yul\":7291:7297   */\n      dup3\n        /* \"#utility.yul\":7284:7288   */\n      0x20\n        /* \"#utility.yul\":7276:7282   */\n      dup7\n        /* \"#utility.yul\":7272:7289   */\n      add\n        /* \"#utility.yul\":7209:7303   */\n      tag_74\n      jump\t// in\n    tag_154:\n        /* \"#utility.yul\":7200:7303   */\n      swap2\n      pop\n        /* \"#utility.yul\":7016:7309   */\n      pop\n        /* \"#utility.yul\":6939:7309   */\n      swap3\n      swap2\n      pop\n      pop\n      jump\t// out\n        /* \"#utility.yul\":7315:7854   */\n    tag_38:\n        /* \"#utility.yul\":7399:7405   */\n      0x00\n        /* \"#utility.yul\":7448:7450   */\n      0x20\n        /* \"#utility.yul\":7436:7445   */\n      dup3\n        /* \"#utility.yul\":7427:7434   */\n      dup5\n        /* \"#utility.yul\":7423:7446   */\n      sub\n        /* \"#utility.yul\":7419:7451   */\n      slt\n        /* \"#utility.yul\":7416:7535   */\n      iszero\n      tag_156\n      jumpi\n        /* \"#utility.yul\":7454:7533   */\n      tag_157\n      tag_63\n      jump\t// in\n    tag_157:\n        /* \"#utility.yul\":7416:7535   */\n    tag_156:\n        /* \"#utility.yul\":7602:7603   */\n      0x00\n        /* \"#utility.yul\":7591:7600   */\n      dup3\n        /* \"#utility.yul\":7587:7604   */\n      add\n        /* \"#utility.yul\":7574:7605   */\n      calldataload\n        /* \"#utility.yul\":7632:7650   */\n      0xffffffffffffffff\n        /* \"#utility.yul\":7624:7630   */\n      dup2\n        /* \"#utility.yul\":7621:7651   */\n      gt\n        /* \"#utility.yul\":7618:7735   */\n      iszero\n      tag_158\n      jumpi\n        /* \"#utility.yul\":7654:7733   */\n      tag_159\n      tag_64\n      jump\t// in\n    tag_159:\n        /* \"#utility.yul\":7618:7735   */\n    tag_158:\n        /* \"#utility.yul\":7759:7837   */\n      tag_160\n        /* \"#utility.yul\":7829:7836   */\n      dup5\n        /* \"#utility.yul\":7820:7826   */\n      dup3\n        /* \"#utility.yul\":7809:7818   */\n      dup6\n        /* \"#utility.yul\":7805:7827   */\n      add\n        /* \"#utility.yul\":7759:7837   */\n      tag_75\n      jump\t// in\n    tag_160:\n        /* \"#utility.yul\":7749:7837   */\n      swap2\n      pop\n        /* \"#utility.yul\":7545:7847   */\n      pop\n        /* \"#utility.yul\":7315:7854   */\n      swap3\n      swap2\n      pop\n      pop\n      jump\t// out\n\n    auxdata: 0xa2646970667358221220164fa503b5e64db874e3e138bd4d1ff9d43e41b3d6eea851742329aae65f036764736f6c634300081a0033\n}\n",
				"bytecode": {
					"linkReferences": {},
					"object": "6080604052348015600e575f80fd5b5061063e8061001c5f395ff3fe608060405234801561000f575f80fd5b506004361061007b575f3560e01c806371e5ee5f1161005957806371e5ee5f146100de578063868875441461010e578063ae43280a1461012d578063f4bb6e6b1461014d5761007b565b80631990532b1461007f57806345f907a81461009d57806368873440146100bd575b5f80fd5b610087610169565b604051610094919061030a565b60405180910390f35b6100a56101be565b6040516100b493929190610353565b60405180910390f35b6100c56101d1565b6040516100d59493929190610388565b60405180910390f35b6100f860048036038101906100f39190610406565b610206565b6040516101059190610431565b60405180910390f35b610116610225565b60405161012492919061044a565b60405180910390f35b610135610233565b60405161014493929190610353565b60405180910390f35b610167600480360381019061016291906105c1565b610247565b005b60605f8054806020026020016040519081016040528092919081815260200182805480156101b457602002820191905f5260205f20905b8154815260200190600101908083116101a0575b5050505050905090565b5f805f6001806002925092509250909192565b5f805f805f806101df610225565b915091505f8060046005600692505091508383838397509750975097505050505090919293565b5f8181548110610214575f80fd5b905f5260205f20015f915090505481565b5f80607b6001915091509091565b5f805f6001925060019150607b9050909192565b50565b5f81519050919050565b5f82825260208201905092915050565b5f819050602082019050919050565b5f819050919050565b61028581610273565b82525050565b5f610296838361027c565b60208301905092915050565b5f602082019050919050565b5f6102b88261024a565b6102c28185610254565b93506102cd83610264565b805f5b838110156102fd5781516102e4888261028b565b97506102ef836102a2565b9250506001810190506102d0565b5085935050505092915050565b5f6020820190508181035f83015261032281846102ae565b905092915050565b61033381610273565b82525050565b5f8115159050919050565b61034d81610339565b82525050565b5f6060820190506103665f83018661032a565b6103736020830185610344565b610380604083018461032a565b949350505050565b5f60808201905061039b5f83018761032a565b6103a86020830186610344565b6103b5604083018561032a565b6103c2606083018461032a565b95945050505050565b5f604051905090565b5f80fd5b5f80fd5b6103e581610273565b81146103ef575f80fd5b50565b5f81359050610400816103dc565b92915050565b5f6020828403121561041b5761041a6103d4565b5b5f610428848285016103f2565b91505092915050565b5f6020820190506104445f83018461032a565b92915050565b5f60408201905061045d5f83018561032a565b61046a6020830184610344565b9392505050565b5f80fd5b5f601f19601f8301169050919050565b7f4e487b71000000000000000000000000000000000000000000000000000000005f52604160045260245ffd5b6104bb82610475565b810181811067ffffffffffffffff821117156104da576104d9610485565b5b80604052505050565b5f6104ec6103cb565b90506104f882826104b2565b919050565b5f67ffffffffffffffff82111561051757610516610485565b5b602082029050602081019050919050565b5f80fd5b5f61053e610539846104fd565b6104e3565b9050808382526020820190506020840283018581111561056157610560610528565b5b835b8181101561058a578061057688826103f2565b845260208401935050602081019050610563565b5050509392505050565b5f82601f8301126105a8576105a7610471565b5b81356105b884826020860161052c565b91505092915050565b5f602082840312156105d6576105d56103d4565b5b5f82013567ffffffffffffffff8111156105f3576105f26103d8565b5b6105ff84828501610594565b9150509291505056fea2646970667358221220164fa503b5e64db874e3e138bd4d1ff9d43e41b3d6eea851742329aae65f036764736f6c634300081a0033",
					"opcodes": "PUSH1 0x80 PUSH1 0x40 MSTORE CALLVALUE DUP1 ISZERO PUSH1 0xE JUMPI PUSH0 DUP1 REVERT JUMPDEST POP PUSH2 0x63E DUP1 PUSH2 0x1C PUSH0 CODECOPY PUSH0 RETURN INVALID PUSH1 0x80 PUSH1 0x40 MSTORE CALLVALUE DUP1 ISZERO PUSH2 0xF JUMPI PUSH0 DUP1 REVERT JUMPDEST POP PUSH1 0x4 CALLDATASIZE LT PUSH2 0x7B JUMPI PUSH0 CALLDATALOAD PUSH1 0xE0 SHR DUP1 PUSH4 0x71E5EE5F GT PUSH2 0x59 JUMPI DUP1 PUSH4 0x71E5EE5F EQ PUSH2 0xDE JUMPI DUP1 PUSH4 0x86887544 EQ PUSH2 0x10E JUMPI DUP1 PUSH4 0xAE43280A EQ PUSH2 0x12D JUMPI DUP1 PUSH4 0xF4BB6E6B EQ PUSH2 0x14D JUMPI PUSH2 0x7B JUMP JUMPDEST DUP1 PUSH4 0x1990532B EQ PUSH2 0x7F JUMPI DUP1 PUSH4 0x45F907A8 EQ PUSH2 0x9D JUMPI DUP1 PUSH4 0x68873440 EQ PUSH2 0xBD JUMPI JUMPDEST PUSH0 DUP1 REVERT JUMPDEST PUSH2 0x87 PUSH2 0x169 JUMP JUMPDEST PUSH1 0x40 MLOAD PUSH2 0x94 SWAP2 SWAP1 PUSH2 0x30A JUMP JUMPDEST PUSH1 0x40 MLOAD DUP1 SWAP2 SUB SWAP1 RETURN JUMPDEST PUSH2 0xA5 PUSH2 0x1BE JUMP JUMPDEST PUSH1 0x40 MLOAD PUSH2 0xB4 SWAP4 SWAP3 SWAP2 SWAP1 PUSH2 0x353 JUMP JUMPDEST PUSH1 0x40 MLOAD DUP1 SWAP2 SUB SWAP1 RETURN JUMPDEST PUSH2 0xC5 PUSH2 0x1D1 JUMP JUMPDEST PUSH1 0x40 MLOAD PUSH2 0xD5 SWAP5 SWAP4 SWAP3 SWAP2 SWAP1 PUSH2 0x388 JUMP JUMPDEST PUSH1 0x40 MLOAD DUP1 SWAP2 SUB SWAP1 RETURN JUMPDEST PUSH2 0xF8 PUSH1 0x4 DUP1 CALLDATASIZE SUB DUP2 ADD SWAP1 PUSH2 0xF3 SWAP2 SWAP1 PUSH2 0x406 JUMP JUMPDEST PUSH2 0x206 JUMP JUMPDEST PUSH1 0x40 MLOAD PUSH2 0x105 SWAP2 SWAP1 PUSH2 0x431 JUMP JUMPDEST PUSH1 0x40 MLOAD DUP1 SWAP2 SUB SWAP1 RETURN JUMPDEST PUSH2 0x116 PUSH2 0x225 JUMP JUMPDEST PUSH1 0x40 MLOAD PUSH2 0x124 SWAP3 SWAP2 SWAP1 PUSH2 0x44A JUMP JUMPDEST PUSH1 0x40 MLOAD DUP1 SWAP2 SUB SWAP1 RETURN JUMPDEST PUSH2 0x135 PUSH2 0x233 JUMP JUMPDEST PUSH1 0x40 MLOAD PUSH2 0x144 SWAP4 SWAP3 SWAP2 SWAP1 PUSH2 0x353 JUMP JUMPDEST PUSH1 0x40 MLOAD DUP1 SWAP2 SUB SWAP1 RETURN JUMPDEST PUSH2 0x167 PUSH1 0x4 DUP1 CALLDATASIZE SUB DUP2 ADD SWAP1 PUSH2 0x162 SWAP2 SWAP1 PUSH2 0x5C1 JUMP JUMPDEST PUSH2 0x247 JUMP JUMPDEST STOP JUMPDEST PUSH1 0x60 PUSH0 DUP1 SLOAD DUP1 PUSH1 0x20 MUL PUSH1 0x20 ADD PUSH1 0x40 MLOAD SWAP1 DUP2 ADD PUSH1 0x40 MSTORE DUP1 SWAP3 SWAP2 SWAP1 DUP2 DUP2 MSTORE PUSH1 0x20 ADD DUP3 DUP1 SLOAD DUP1 ISZERO PUSH2 0x1B4 JUMPI PUSH1 0x20 MUL DUP3 ADD SWAP2 SWAP1 PUSH0 MSTORE PUSH1 0x20 PUSH0 KECCAK256 SWAP1 JUMPDEST DUP2 SLOAD DUP2 MSTORE PUSH1 0x20 ADD SWAP1 PUSH1 0x1 ADD SWAP1 DUP1 DUP4 GT PUSH2 0x1A0 JUMPI JUMPDEST POP POP POP POP POP SWAP1 POP SWAP1 JUMP JUMPDEST PUSH0 DUP1 PUSH0 PUSH1 0x1 DUP1 PUSH1 0x2 SWAP3 POP SWAP3 POP SWAP3 POP SWAP1 SWAP2 SWAP3 JUMP JUMPDEST PUSH0 DUP1 PUSH0 DUP1 PUSH0 DUP1 PUSH2 0x1DF PUSH2 0x225 JUMP JUMPDEST SWAP2 POP SWAP2 POP PUSH0 DUP1 PUSH1 0x4 PUSH1 0x5 PUSH1 0x6 SWAP3 POP POP SWAP2 POP DUP4 DUP4 DUP4 DUP4 SWAP8 POP SWAP8 POP SWAP8 POP SWAP8 POP POP POP POP POP SWAP1 SWAP2 SWAP3 SWAP4 JUMP JUMPDEST PUSH0 DUP2 DUP2 SLOAD DUP2 LT PUSH2 0x214 JUMPI PUSH0 DUP1 REVERT JUMPDEST SWAP1 PUSH0 MSTORE PUSH1 0x20 PUSH0 KECCAK256 ADD PUSH0 SWAP2 POP SWAP1 POP SLOAD DUP2 JUMP JUMPDEST PUSH0 DUP1 PUSH1 0x7B PUSH1 0x1 SWAP2 POP SWAP2 POP SWAP1 SWAP2 JUMP JUMPDEST PUSH0 DUP1 PUSH0 PUSH1 0x1 SWAP3 POP PUSH1 0x1 SWAP2 POP PUSH1 0x7B SWAP1 POP SWAP1 SWAP2 SWAP3 JUMP JUMPDEST POP JUMP JUMPDEST PUSH0 DUP2 MLOAD SWAP1 POP SWAP2 SWAP1 POP JUMP JUMPDEST PUSH0 DUP3 DUP3 MSTORE PUSH1 0x20 DUP3 ADD SWAP1 POP SWAP3 SWAP2 POP POP JUMP JUMPDEST PUSH0 DUP2 SWAP1 POP PUSH1 0x20 DUP3 ADD SWAP1 POP SWAP2 SWAP1 POP JUMP JUMPDEST PUSH0 DUP2 SWAP1 POP SWAP2 SWAP1 POP JUMP JUMPDEST PUSH2 0x285 DUP2 PUSH2 0x273 JUMP JUMPDEST DUP3 MSTORE POP POP JUMP JUMPDEST PUSH0 PUSH2 0x296 DUP4 DUP4 PUSH2 0x27C JUMP JUMPDEST PUSH1 0x20 DUP4 ADD SWAP1 POP SWAP3 SWAP2 POP POP JUMP JUMPDEST PUSH0 PUSH1 0x20 DUP3 ADD SWAP1 POP SWAP2 SWAP1 POP JUMP JUMPDEST PUSH0 PUSH2 0x2B8 DUP3 PUSH2 0x24A JUMP JUMPDEST PUSH2 0x2C2 DUP2 DUP6 PUSH2 0x254 JUMP JUMPDEST SWAP4 POP PUSH2 0x2CD DUP4 PUSH2 0x264 JUMP JUMPDEST DUP1 PUSH0 JUMPDEST DUP4 DUP2 LT ISZERO PUSH2 0x2FD JUMPI DUP2 MLOAD PUSH2 0x2E4 DUP9 DUP3 PUSH2 0x28B JUMP JUMPDEST SWAP8 POP PUSH2 0x2EF DUP4 PUSH2 0x2A2 JUMP JUMPDEST SWAP3 POP POP PUSH1 0x1 DUP2 ADD SWAP1 POP PUSH2 0x2D0 JUMP JUMPDEST POP DUP6 SWAP4 POP POP POP POP SWAP3 SWAP2 POP POP JUMP JUMPDEST PUSH0 PUSH1 0x20 DUP3 ADD SWAP1 POP DUP2 DUP2 SUB PUSH0 DUP4 ADD MSTORE PUSH2 0x322 DUP2 DUP5 PUSH2 0x2AE JUMP JUMPDEST SWAP1 POP SWAP3 SWAP2 POP POP JUMP JUMPDEST PUSH2 0x333 DUP2 PUSH2 0x273 JUMP JUMPDEST DUP3 MSTORE POP POP JUMP JUMPDEST PUSH0 DUP2 ISZERO ISZERO SWAP1 POP SWAP2 SWAP1 POP JUMP JUMPDEST PUSH2 0x34D DUP2 PUSH2 0x339 JUMP JUMPDEST DUP3 MSTORE POP POP JUMP JUMPDEST PUSH0 PUSH1 0x60 DUP3 ADD SWAP1 POP PUSH2 0x366 PUSH0 DUP4 ADD DUP7 PUSH2 0x32A JUMP JUMPDEST PUSH2 0x373 PUSH1 0x20 DUP4 ADD DUP6 PUSH2 0x344 JUMP JUMPDEST PUSH2 0x380 PUSH1 0x40 DUP4 ADD DUP5 PUSH2 0x32A JUMP JUMPDEST SWAP5 SWAP4 POP POP POP POP JUMP JUMPDEST PUSH0 PUSH1 0x80 DUP3 ADD SWAP1 POP PUSH2 0x39B PUSH0 DUP4 ADD DUP8 PUSH2 0x32A JUMP JUMPDEST PUSH2 0x3A8 PUSH1 0x20 DUP4 ADD DUP7 PUSH2 0x344 JUMP JUMPDEST PUSH2 0x3B5 PUSH1 0x40 DUP4 ADD DUP6 PUSH2 0x32A JUMP JUMPDEST PUSH2 0x3C2 PUSH1 0x60 DUP4 ADD DUP5 PUSH2 0x32A JUMP JUMPDEST SWAP6 SWAP5 POP POP POP POP POP JUMP JUMPDEST PUSH0 PUSH1 0x40 MLOAD SWAP1 POP SWAP1 JUMP JUMPDEST PUSH0 DUP1 REVERT JUMPDEST PUSH0 DUP1 REVERT JUMPDEST PUSH2 0x3E5 DUP2 PUSH2 0x273 JUMP JUMPDEST DUP2 EQ PUSH2 0x3EF JUMPI PUSH0 DUP1 REVERT JUMPDEST POP JUMP JUMPDEST PUSH0 DUP2 CALLDATALOAD SWAP1 POP PUSH2 0x400 DUP2 PUSH2 0x3DC JUMP JUMPDEST SWAP3 SWAP2 POP POP JUMP JUMPDEST PUSH0 PUSH1 0x20 DUP3 DUP5 SUB SLT ISZERO PUSH2 0x41B JUMPI PUSH2 0x41A PUSH2 0x3D4 JUMP JUMPDEST JUMPDEST PUSH0 PUSH2 0x428 DUP5 DUP3 DUP6 ADD PUSH2 0x3F2 JUMP JUMPDEST SWAP2 POP POP SWAP3 SWAP2 POP POP JUMP JUMPDEST PUSH0 PUSH1 0x20 DUP3 ADD SWAP1 POP PUSH2 0x444 PUSH0 DUP4 ADD DUP5 PUSH2 0x32A JUMP JUMPDEST SWAP3 SWAP2 POP POP JUMP JUMPDEST PUSH0 PUSH1 0x40 DUP3 ADD SWAP1 POP PUSH2 0x45D PUSH0 DUP4 ADD DUP6 PUSH2 0x32A JUMP JUMPDEST PUSH2 0x46A PUSH1 0x20 DUP4 ADD DUP5 PUSH2 0x344 JUMP JUMPDEST SWAP4 SWAP3 POP POP POP JUMP JUMPDEST PUSH0 DUP1 REVERT JUMPDEST PUSH0 PUSH1 0x1F NOT PUSH1 0x1F DUP4 ADD AND SWAP1 POP SWAP2 SWAP1 POP JUMP JUMPDEST PUSH32 0x4E487B7100000000000000000000000000000000000000000000000000000000 PUSH0 MSTORE PUSH1 0x41 PUSH1 0x4 MSTORE PUSH1 0x24 PUSH0 REVERT JUMPDEST PUSH2 0x4BB DUP3 PUSH2 0x475 JUMP JUMPDEST DUP2 ADD DUP2 DUP2 LT PUSH8 0xFFFFFFFFFFFFFFFF DUP3 GT OR ISZERO PUSH2 0x4DA JUMPI PUSH2 0x4D9 PUSH2 0x485 JUMP JUMPDEST JUMPDEST DUP1 PUSH1 0x40 MSTORE POP POP POP JUMP JUMPDEST PUSH0 PUSH2 0x4EC PUSH2 0x3CB JUMP JUMPDEST SWAP1 POP PUSH2 0x4F8 DUP3 DUP3 PUSH2 0x4B2 JUMP JUMPDEST SWAP2 SWAP1 POP JUMP JUMPDEST PUSH0 PUSH8 0xFFFFFFFFFFFFFFFF DUP3 GT ISZERO PUSH2 0x517 JUMPI PUSH2 0x516 PUSH2 0x485 JUMP JUMPDEST JUMPDEST PUSH1 0x20 DUP3 MUL SWAP1 POP PUSH1 0x20 DUP2 ADD SWAP1 POP SWAP2 SWAP1 POP JUMP JUMPDEST PUSH0 DUP1 REVERT JUMPDEST PUSH0 PUSH2 0x53E PUSH2 0x539 DUP5 PUSH2 0x4FD JUMP JUMPDEST PUSH2 0x4E3 JUMP JUMPDEST SWAP1 POP DUP1 DUP4 DUP3 MSTORE PUSH1 0x20 DUP3 ADD SWAP1 POP PUSH1 0x20 DUP5 MUL DUP4 ADD DUP6 DUP2 GT ISZERO PUSH2 0x561 JUMPI PUSH2 0x560 PUSH2 0x528 JUMP JUMPDEST JUMPDEST DUP4 JUMPDEST DUP2 DUP2 LT ISZERO PUSH2 0x58A JUMPI DUP1 PUSH2 0x576 DUP9 DUP3 PUSH2 0x3F2 JUMP JUMPDEST DUP5 MSTORE PUSH1 0x20 DUP5 ADD SWAP4 POP POP PUSH1 0x20 DUP2 ADD SWAP1 POP PUSH2 0x563 JUMP JUMPDEST POP POP POP SWAP4 SWAP3 POP POP POP JUMP JUMPDEST PUSH0 DUP3 PUSH1 0x1F DUP4 ADD SLT PUSH2 0x5A8 JUMPI PUSH2 0x5A7 PUSH2 0x471 JUMP JUMPDEST JUMPDEST DUP2 CALLDATALOAD PUSH2 0x5B8 DUP5 DUP3 PUSH1 0x20 DUP7 ADD PUSH2 0x52C JUMP JUMPDEST SWAP2 POP POP SWAP3 SWAP2 POP POP JUMP JUMPDEST PUSH0 PUSH1 0x20 DUP3 DUP5 SUB SLT ISZERO PUSH2 0x5D6 JUMPI PUSH2 0x5D5 PUSH2 0x3D4 JUMP JUMPDEST JUMPDEST PUSH0 DUP3 ADD CALLDATALOAD PUSH8 0xFFFFFFFFFFFFFFFF DUP2 GT ISZERO PUSH2 0x5F3 JUMPI PUSH2 0x5F2 PUSH2 0x3D8 JUMP JUMPDEST JUMPDEST PUSH2 0x5FF DUP5 DUP3 DUP6 ADD PUSH2 0x594 JUMP JUMPDEST SWAP2 POP POP SWAP3 SWAP2 POP POP JUMP INVALID LOG2 PUSH5 0x6970667358 0x22 SLT KECCAK256 AND 0x4F 0xA5 SUB 0xB5 0xE6 0x4D 0xB8 PUSH21 0xE3E138BD4D1FF9D43E41B3D6EEA851742329AAE65F SUB PUSH8 0x64736F6C63430008 BYTE STOP CALLER "
				},
				"gasEstimates": {
					"creation": {
						"codeDepositCost": "319600",
						"executionCost": "353",
						"totalCost": "319953"
					},
					"external": {
						"anotherNmed()": "infinite",
						"arr(uint256)": "infinite",
						"arrayInput(uint256[])": "infinite",
						"arrayOutput()": "infinite",
						"destructuringAssignments()": "infinite",
						"named()": "infinite",
						"returnMany()": "473"
					}
				},
				"methodIdentifiers": {
					"anotherNmed()": "ae43280a",
					"arr(uint256)": "71e5ee5f",
					"arrayInput(uint256[])": "f4bb6e6b",
					"arrayOutput()": "1990532b",
					"destructuringAssignments()": "68873440",
					"named()": "45f907a8",
					"returnMany()": "86887544"
				}
			},
			"storageLayout": {
				"storage": [
					{
						"astId": 94,
						"contract": "contracts/19_fuction.sol:FunctionTest",
						"label": "arr",
						"offset": 0,
						"slot": "0",
						"type": "t_array(t_uint256)dyn_storage"
					}
				],
				"types": {
					"t_array(t_uint256)dyn_storage": {
						"base": "t_uint256",
						"encoding": "dynamic_array",
						"label": "uint256[]",
						"numberOfBytes": "32"
					},
					"t_uint256": {
						"encoding": "inplace",
						"label": "uint256",
						"numberOfBytes": "32"
					}
				}
			},
			"userdoc": {
				"kind": "user",
				"methods": {},
				"version": 1
			}
		}
	}
}