{
	"contracts/15_structs.sol": {
		"StructTest": {
			"abi": [
				{
					"inputs": [
						{
							"internalType": "string",
							"name": "name",
							"type": "string"
						},
						{
							"internalType": "uint256",
							"name": "_id",
							"type": "uint256"
						},
						{
							"internalType": "uint256",
							"name": "_age",
							"type": "uint256"
						},
						{
							"internalType": "bool",
							"name": "_sex",
							"type": "bool"
						}
					],
					"name": "addPerson",
					"outputs": [],
					"stateMutability": "nonpayable",
					"type": "function"
				},
				{
					"inputs": [],
					"name": "getPersonLength",
					"outputs": [
						{
							"internalType": "uint256",
							"name": "",
							"type": "uint256"
						}
					],
					"stateMutability": "view",
					"type": "function"
				},
				{
					"inputs": [],
					"name": "getPersonList",
					"outputs": [
						{
							"components": [
								{
									"internalType": "string",
									"name": "myName",
									"type": "string"
								},
								{
									"internalType": "uint256",
									"name": "id",
									"type": "uint256"
								},
								{
									"internalType": "uint256",
									"name": "age",
									"type": "uint256"
								},
								{
									"internalType": "bool",
									"name": "sex",
									"type": "bool"
								}
							],
							"internalType": "struct StructTest.Person[]",
							"name": "",
							"type": "tuple[]"
						}
					],
					"stateMutability": "view",
					"type": "function"
				},
				{
					"inputs": [
						{
							"internalType": "uint256",
							"name": "",
							"type": "uint256"
						}
					],
					"name": "personList",
					"outputs": [
						{
							"internalType": "string",
							"name": "myName",
							"type": "string"
						},
						{
							"internalType": "uint256",
							"name": "id",
							"type": "uint256"
						},
						{
							"internalType": "uint256",
							"name": "age",
							"type": "uint256"
						},
						{
							"internalType": "bool",
							"name": "sex",
							"type": "bool"
						}
					],
					"stateMutability": "view",
					"type": "function"
				}
			],
			"devdoc": {
				"kind": "dev",
				"methods": {},
				"version": 1
			},
			"evm": {
				"assembly": "    /* \"contracts/15_structs.sol\":61:813  contract StructTest {... */\n  mstore(0x40, 0x80)\n  callvalue\n  dup1\n  iszero\n  tag_1\n  jumpi\n  0x00\n  dup1\n  revert\ntag_1:\n  pop\n  dataSize(sub_0)\n  dup1\n  dataOffset(sub_0)\n  0x00\n  codecopy\n  0x00\n  return\nstop\n\nsub_0: assembly {\n        /* \"contracts/15_structs.sol\":61:813  contract StructTest {... */\n      mstore(0x40, 0x80)\n      callvalue\n      dup1\n      iszero\n      tag_1\n      jumpi\n      0x00\n      dup1\n      revert\n    tag_1:\n      pop\n      jumpi(tag_2, lt(calldatasize, 0x04))\n      shr(0xe0, calldataload(0x00))\n      dup1\n      0x39904699\n      eq\n      tag_3\n      jumpi\n      dup1\n      0x4176c140\n      eq\n      tag_4\n      jumpi\n      dup1\n      0x495a0487\n      eq\n      tag_5\n      jumpi\n      dup1\n      0x6b44374d\n      eq\n      tag_6\n      jumpi\n    tag_2:\n      0x00\n      dup1\n      revert\n        /* \"contracts/15_structs.sol\":232:600  function addPerson(string memory name, uint _id, uint _age, bool _sex) public {... */\n    tag_3:\n      tag_7\n      0x04\n      dup1\n      calldatasize\n      sub\n      dup2\n      add\n      swap1\n      tag_8\n      swap2\n      swap1\n      tag_9\n      jump\t// in\n    tag_8:\n      tag_10\n      jump\t// in\n    tag_7:\n      stop\n        /* \"contracts/15_structs.sol\":608:706  function getPersonList() public view returns(Person[] memory) {... */\n    tag_4:\n      tag_11\n      tag_12\n      jump\t// in\n    tag_11:\n      mload(0x40)\n      tag_13\n      swap2\n      swap1\n      tag_14\n      jump\t// in\n    tag_13:\n      mload(0x40)\n      dup1\n      swap2\n      sub\n      swap1\n      return\n        /* \"contracts/15_structs.sol\":714:810  function getPersonLength() public view returns (uint){... */\n    tag_5:\n      tag_15\n      tag_16\n      jump\t// in\n    tag_15:\n      mload(0x40)\n      tag_17\n      swap2\n      swap1\n      tag_18\n      jump\t// in\n    tag_17:\n      mload(0x40)\n      dup1\n      swap2\n      sub\n      swap1\n      return\n        /* \"contracts/15_structs.sol\":197:223  Person[] public personList */\n    tag_6:\n      tag_19\n      0x04\n      dup1\n      calldatasize\n      sub\n      dup2\n      add\n      swap1\n      tag_20\n      swap2\n      swap1\n      tag_21\n      jump\t// in\n    tag_20:\n      tag_22\n      jump\t// in\n    tag_19:\n      mload(0x40)\n      tag_23\n      swap5\n      swap4\n      swap3\n      swap2\n      swap1\n      tag_24\n      jump\t// in\n    tag_23:\n      mload(0x40)\n      dup1\n      swap2\n      sub\n      swap1\n      return\n        /* \"contracts/15_structs.sol\":232:600  function addPerson(string memory name, uint _id, uint _age, bool _sex) public {... */\n    tag_10:\n        /* \"contracts/15_structs.sol\":370:380  personList */\n      0x00\n        /* \"contracts/15_structs.sol\":386:415  Person(name, _id, _age, _sex) */\n      mload(0x40)\n      dup1\n      0x80\n      add\n      0x40\n      mstore\n      dup1\n        /* \"contracts/15_structs.sol\":393:397  name */\n      dup7\n        /* \"contracts/15_structs.sol\":386:415  Person(name, _id, _age, _sex) */\n      dup2\n      mstore\n      0x20\n      add\n        /* \"contracts/15_structs.sol\":399:402  _id */\n      dup6\n        /* \"contracts/15_structs.sol\":386:415  Person(name, _id, _age, _sex) */\n      dup2\n      mstore\n      0x20\n      add\n        /* \"contracts/15_structs.sol\":404:408  _age */\n      dup5\n        /* \"contracts/15_structs.sol\":386:415  Person(name, _id, _age, _sex) */\n      dup2\n      mstore\n      0x20\n      add\n        /* \"contracts/15_structs.sol\":410:414  _sex */\n      dup4\n        /* \"contracts/15_structs.sol\":386:415  Person(name, _id, _age, _sex) */\n      iszero\n      iszero\n      dup2\n      mstore\n      pop\n        /* \"contracts/15_structs.sol\":370:416  personList.push(Person(name, _id, _age, _sex)) */\n      swap1\n      dup1\n      0x01\n      dup2\n      sload\n      add\n      dup1\n      dup3\n      sstore\n      dup1\n      swap2\n      pop\n      pop\n      0x01\n      swap1\n      sub\n      swap1\n      0x00\n      mstore\n      keccak256(0x00, 0x20)\n      swap1\n      0x04\n      mul\n      add\n      0x00\n      swap1\n      swap2\n      swap1\n      swap2\n      swap1\n      swap2\n      pop\n      0x00\n      dup3\n      add\n      mload\n      dup2\n      0x00\n      add\n      swap1\n      dup2\n      tag_27\n      swap2\n      swap1\n      tag_28\n      jump\t// in\n    tag_27:\n      pop\n      0x20\n      dup3\n      add\n      mload\n      dup2\n      0x01\n      add\n      sstore\n      0x40\n      dup3\n      add\n      mload\n      dup2\n      0x02\n      add\n      sstore\n      0x60\n      dup3\n      add\n      mload\n      dup2\n      0x03\n      add\n      exp(0x0100, 0x00)\n      dup2\n      sload\n      dup2\n      0xff\n      mul\n      not\n      and\n      swap1\n      dup4\n      iszero\n      iszero\n      mul\n      or\n      swap1\n      sstore\n      pop\n      pop\n      pop\n        /* \"contracts/15_structs.sol\":429:439  personList */\n      0x00\n        /* \"contracts/15_structs.sol\":445:495  Person({myName: \"123\", id: 1,  age: 2, sex: true}) */\n      mload(0x40)\n      dup1\n      0x80\n      add\n      0x40\n      mstore\n      dup1\n      mload(0x40)\n      dup1\n      0x40\n      add\n      0x40\n      mstore\n      dup1\n      0x03\n      dup2\n      mstore\n      0x20\n      add\n      0x3132330000000000000000000000000000000000000000000000000000000000\n      dup2\n      mstore\n      pop\n      dup2\n      mstore\n      0x20\n      add\n        /* \"contracts/15_structs.sol\":472:473  1 */\n      0x01\n        /* \"contracts/15_structs.sol\":445:495  Person({myName: \"123\", id: 1,  age: 2, sex: true}) */\n      dup2\n      mstore\n      0x20\n      add\n        /* \"contracts/15_structs.sol\":481:482  2 */\n      0x02\n        /* \"contracts/15_structs.sol\":445:495  Person({myName: \"123\", id: 1,  age: 2, sex: true}) */\n      dup2\n      mstore\n      0x20\n      add\n        /* \"contracts/15_structs.sol\":489:493  true */\n      0x01\n        /* \"contracts/15_structs.sol\":445:495  Person({myName: \"123\", id: 1,  age: 2, sex: true}) */\n      iszero\n      iszero\n      dup2\n      mstore\n      pop\n        /* \"contracts/15_structs.sol\":429:496  personList.push(Person({myName: \"123\", id: 1,  age: 2, sex: true})) */\n      swap1\n      dup1\n      0x01\n      dup2\n      sload\n      add\n      dup1\n      dup3\n      sstore\n      dup1\n      swap2\n      pop\n      pop\n      0x01\n      swap1\n      sub\n      swap1\n      0x00\n      mstore\n      keccak256(0x00, 0x20)\n      swap1\n      0x04\n      mul\n      add\n      0x00\n      swap1\n      swap2\n      swap1\n      swap2\n      swap1\n      swap2\n      pop\n      0x00\n      dup3\n      add\n      mload\n      dup2\n      0x00\n      add\n      swap1\n      dup2\n      tag_30\n      swap2\n      swap1\n      tag_28\n      jump\t// in\n    tag_30:\n      pop\n      0x20\n      dup3\n      add\n      mload\n      dup2\n      0x01\n      add\n      sstore\n      0x40\n      dup3\n      add\n      mload\n      dup2\n      0x02\n      add\n      sstore\n      0x60\n      dup3\n      add\n      mload\n      dup2\n      0x03\n      add\n      exp(0x0100, 0x00)\n      dup2\n      sload\n      dup2\n      0xff\n      mul\n      not\n      and\n      swap1\n      dup4\n      iszero\n      iszero\n      mul\n      or\n      swap1\n      sstore\n      pop\n      pop\n      pop\n        /* \"contracts/15_structs.sol\":509:528  Person memory pItem */\n      tag_31\n      tag_32\n      jump\t// in\n    tag_31:\n        /* \"contracts/15_structs.sol\":539:559  pItem.myName = \"123\" */\n      mload(0x40)\n      dup1\n      0x40\n      add\n      0x40\n      mstore\n      dup1\n      0x03\n      dup2\n      mstore\n      0x20\n      add\n      0x3132330000000000000000000000000000000000000000000000000000000000\n      dup2\n      mstore\n      pop\n        /* \"contracts/15_structs.sol\":539:544  pItem */\n      dup2\n        /* \"contracts/15_structs.sol\":539:551  pItem.myName */\n      0x00\n      add\n        /* \"contracts/15_structs.sol\":539:559  pItem.myName = \"123\" */\n      dup2\n      swap1\n      mstore\n      pop\n        /* \"contracts/15_structs.sol\":570:580  personList */\n      0x00\n        /* \"contracts/15_structs.sol\":586:591  pItem */\n      dup2\n        /* \"contracts/15_structs.sol\":570:592  personList.push(pItem) */\n      swap1\n      dup1\n      0x01\n      dup2\n      sload\n      add\n      dup1\n      dup3\n      sstore\n      dup1\n      swap2\n      pop\n      pop\n      0x01\n      swap1\n      sub\n      swap1\n      0x00\n      mstore\n      keccak256(0x00, 0x20)\n      swap1\n      0x04\n      mul\n      add\n      0x00\n      swap1\n      swap2\n      swap1\n      swap2\n      swap1\n      swap2\n      pop\n      0x00\n      dup3\n      add\n      mload\n      dup2\n      0x00\n      add\n      swap1\n      dup2\n      tag_34\n      swap2\n      swap1\n      tag_28\n      jump\t// in\n    tag_34:\n      pop\n      0x20\n      dup3\n      add\n      mload\n      dup2\n      0x01\n      add\n      sstore\n      0x40\n      dup3\n      add\n      mload\n      dup2\n      0x02\n      add\n      sstore\n      0x60\n      dup3\n      add\n      mload\n      dup2\n      0x03\n      add\n      exp(0x0100, 0x00)\n      dup2\n      sload\n      dup2\n      0xff\n      mul\n      not\n      and\n      swap1\n      dup4\n      iszero\n      iszero\n      mul\n      or\n      swap1\n      sstore\n      pop\n      pop\n      pop\n        /* \"contracts/15_structs.sol\":310:600  {... */\n      pop\n        /* \"contracts/15_structs.sol\":232:600  function addPerson(string memory name, uint _id, uint _age, bool _sex) public {... */\n      pop\n      pop\n      pop\n      pop\n      jump\t// out\n        /* \"contracts/15_structs.sol\":608:706  function getPersonList() public view returns(Person[] memory) {... */\n    tag_12:\n        /* \"contracts/15_structs.sol\":653:668  Person[] memory */\n      0x60\n        /* \"contracts/15_structs.sol\":688:698  personList */\n      0x00\n        /* \"contracts/15_structs.sol\":681:698  return personList */\n      dup1\n      sload\n      dup1\n      0x20\n      mul\n      0x20\n      add\n      mload(0x40)\n      swap1\n      dup2\n      add\n      0x40\n      mstore\n      dup1\n      swap3\n      swap2\n      swap1\n      dup2\n      dup2\n      mstore\n      0x20\n      add\n      0x00\n      swap1\n    tag_36:\n      dup3\n      dup3\n      lt\n      iszero\n      tag_37\n      jumpi\n      dup4\n      dup3\n      swap1\n      0x00\n      mstore\n      keccak256(0x00, 0x20)\n      swap1\n      0x04\n      mul\n      add\n      mload(0x40)\n      dup1\n      0x80\n      add\n      0x40\n      mstore\n      swap1\n      dup2\n      0x00\n      dup3\n      add\n      dup1\n      sload\n      tag_39\n      swap1\n      tag_40\n      jump\t// in\n    tag_39:\n      dup1\n      0x1f\n      add\n      0x20\n      dup1\n      swap2\n      div\n      mul\n      0x20\n      add\n      mload(0x40)\n      swap1\n      dup2\n      add\n      0x40\n      mstore\n      dup1\n      swap3\n      swap2\n      swap1\n      dup2\n      dup2\n      mstore\n      0x20\n      add\n      dup3\n      dup1\n      sload\n      tag_41\n      swap1\n      tag_40\n      jump\t// in\n    tag_41:\n      dup1\n      iszero\n      tag_42\n      jumpi\n      dup1\n      0x1f\n      lt\n      tag_43\n      jumpi\n      0x0100\n      dup1\n      dup4\n      sload\n      div\n      mul\n      dup4\n      mstore\n      swap2\n      0x20\n      add\n      swap2\n      jump(tag_42)\n    tag_43:\n      dup3\n      add\n      swap2\n      swap1\n      0x00\n      mstore\n      keccak256(0x00, 0x20)\n      swap1\n    tag_44:\n      dup2\n      sload\n      dup2\n      mstore\n      swap1\n      0x01\n      add\n      swap1\n      0x20\n      add\n      dup1\n      dup4\n      gt\n      tag_44\n      jumpi\n      dup3\n      swap1\n      sub\n      0x1f\n      and\n      dup3\n      add\n      swap2\n    tag_42:\n      pop\n      pop\n      pop\n      pop\n      pop\n      dup2\n      mstore\n      0x20\n      add\n      0x01\n      dup3\n      add\n      sload\n      dup2\n      mstore\n      0x20\n      add\n      0x02\n      dup3\n      add\n      sload\n      dup2\n      mstore\n      0x20\n      add\n      0x03\n      dup3\n      add\n      0x00\n      swap1\n      sload\n      swap1\n      0x0100\n      exp\n      swap1\n      div\n      0xff\n      and\n      iszero\n      iszero\n      iszero\n      iszero\n      dup2\n      mstore\n      pop\n      pop\n      dup2\n      mstore\n      0x20\n      add\n      swap1\n      0x01\n      add\n      swap1\n      jump(tag_36)\n    tag_37:\n      pop\n      pop\n      pop\n      pop\n      swap1\n      pop\n        /* \"contracts/15_structs.sol\":608:706  function getPersonList() public view returns(Person[] memory) {... */\n      swap1\n      jump\t// out\n        /* \"contracts/15_structs.sol\":714:810  function getPersonLength() public view returns (uint){... */\n    tag_16:\n        /* \"contracts/15_structs.sol\":762:766  uint */\n      0x00\n        /* \"contracts/15_structs.sol\":785:795  personList */\n      dup1\n        /* \"contracts/15_structs.sol\":785:802  personList.length */\n      dup1\n      sload\n      swap1\n      pop\n        /* \"contracts/15_structs.sol\":778:802  return personList.length */\n      swap1\n      pop\n        /* \"contracts/15_structs.sol\":714:810  function getPersonLength() public view returns (uint){... */\n      swap1\n      jump\t// out\n        /* \"contracts/15_structs.sol\":197:223  Person[] public personList */\n    tag_22:\n      0x00\n      dup2\n      dup2\n      sload\n      dup2\n      lt\n      tag_46\n      jumpi\n      0x00\n      dup1\n      revert\n    tag_46:\n      swap1\n      0x00\n      mstore\n      keccak256(0x00, 0x20)\n      swap1\n      0x04\n      mul\n      add\n      0x00\n      swap2\n      pop\n      swap1\n      pop\n      dup1\n      0x00\n      add\n      dup1\n      sload\n      tag_48\n      swap1\n      tag_40\n      jump\t// in\n    tag_48:\n      dup1\n      0x1f\n      add\n      0x20\n      dup1\n      swap2\n      div\n      mul\n      0x20\n      add\n      mload(0x40)\n      swap1\n      dup2\n      add\n      0x40\n      mstore\n      dup1\n      swap3\n      swap2\n      swap1\n      dup2\n      dup2\n      mstore\n      0x20\n      add\n      dup3\n      dup1\n      sload\n      tag_49\n      swap1\n      tag_40\n      jump\t// in\n    tag_49:\n      dup1\n      iszero\n      tag_50\n      jumpi\n      dup1\n      0x1f\n      lt\n      tag_51\n      jumpi\n      0x0100\n      dup1\n      dup4\n      sload\n      div\n      mul\n      dup4\n      mstore\n      swap2\n      0x20\n      add\n      swap2\n      jump(tag_50)\n    tag_51:\n      dup3\n      add\n      swap2\n      swap1\n      0x00\n      mstore\n      keccak256(0x00, 0x20)\n      swap1\n    tag_52:\n      dup2\n      sload\n      dup2\n      mstore\n      swap1\n      0x01\n      add\n      swap1\n      0x20\n      add\n      dup1\n      dup4\n      gt\n      tag_52\n      jumpi\n      dup3\n      swap1\n      sub\n      0x1f\n      and\n      dup3\n      add\n      swap2\n    tag_50:\n      pop\n      pop\n      pop\n      pop\n      pop\n      swap1\n      dup1\n      0x01\n      add\n      sload\n      swap1\n      dup1\n      0x02\n      add\n      sload\n      swap1\n      dup1\n      0x03\n      add\n      0x00\n      swap1\n      sload\n      swap1\n      0x0100\n      exp\n      swap1\n      div\n      0xff\n      and\n      swap1\n      pop\n      dup5\n      jump\t// out\n    tag_32:\n      mload(0x40)\n      dup1\n      0x80\n      add\n      0x40\n      mstore\n      dup1\n      0x60\n      dup2\n      mstore\n      0x20\n      add\n      0x00\n      dup2\n      mstore\n      0x20\n      add\n      0x00\n      dup2\n      mstore\n      0x20\n      add\n      iszero(iszero(0x00))\n      dup2\n      mstore\n      pop\n      swap1\n      jump\t// out\n        /* \"#utility.yul\":7:82   */\n    tag_53:\n        /* \"#utility.yul\":40:46   */\n      0x00\n        /* \"#utility.yul\":73:75   */\n      0x40\n        /* \"#utility.yul\":67:76   */\n      mload\n        /* \"#utility.yul\":57:76   */\n      swap1\n      pop\n        /* \"#utility.yul\":7:82   */\n      swap1\n      jump\t// out\n        /* \"#utility.yul\":88:205   */\n    tag_54:\n        /* \"#utility.yul\":197:198   */\n      0x00\n        /* \"#utility.yul\":194:195   */\n      dup1\n        /* \"#utility.yul\":187:199   */\n      revert\n        /* \"#utility.yul\":211:328   */\n    tag_55:\n        /* \"#utility.yul\":320:321   */\n      0x00\n        /* \"#utility.yul\":317:318   */\n      dup1\n        /* \"#utility.yul\":310:322   */\n      revert\n        /* \"#utility.yul\":334:451   */\n    tag_56:\n        /* \"#utility.yul\":443:444   */\n      0x00\n        /* \"#utility.yul\":440:441   */\n      dup1\n        /* \"#utility.yul\":433:445   */\n      revert\n        /* \"#utility.yul\":457:574   */\n    tag_57:\n        /* \"#utility.yul\":566:567   */\n      0x00\n        /* \"#utility.yul\":563:564   */\n      dup1\n        /* \"#utility.yul\":556:568   */\n      revert\n        /* \"#utility.yul\":580:682   */\n    tag_58:\n        /* \"#utility.yul\":621:627   */\n      0x00\n        /* \"#utility.yul\":672:674   */\n      0x1f\n        /* \"#utility.yul\":668:675   */\n      not\n        /* \"#utility.yul\":663:665   */\n      0x1f\n        /* \"#utility.yul\":656:661   */\n      dup4\n        /* \"#utility.yul\":652:666   */\n      add\n        /* \"#utility.yul\":648:676   */\n      and\n        /* \"#utility.yul\":638:676   */\n      swap1\n      pop\n        /* \"#utility.yul\":580:682   */\n      swap2\n      swap1\n      pop\n      jump\t// out\n        /* \"#utility.yul\":688:868   */\n    tag_59:\n        /* \"#utility.yul\":736:813   */\n      0x4e487b7100000000000000000000000000000000000000000000000000000000\n        /* \"#utility.yul\":733:734   */\n      0x00\n        /* \"#utility.yul\":726:814   */\n      mstore\n        /* \"#utility.yul\":833:837   */\n      0x41\n        /* \"#utility.yul\":830:831   */\n      0x04\n        /* \"#utility.yul\":823:838   */\n      mstore\n        /* \"#utility.yul\":857:861   */\n      0x24\n        /* \"#utility.yul\":854:855   */\n      0x00\n        /* \"#utility.yul\":847:862   */\n      revert\n        /* \"#utility.yul\":874:1155   */\n    tag_60:\n        /* \"#utility.yul\":957:984   */\n      tag_114\n        /* \"#utility.yul\":979:983   */\n      dup3\n        /* \"#utility.yul\":957:984   */\n      tag_58\n      jump\t// in\n    tag_114:\n        /* \"#utility.yul\":949:955   */\n      dup2\n        /* \"#utility.yul\":945:985   */\n      add\n        /* \"#utility.yul\":1087:1093   */\n      dup2\n        /* \"#utility.yul\":1075:1085   */\n      dup2\n        /* \"#utility.yul\":1072:1094   */\n      lt\n        /* \"#utility.yul\":1051:1069   */\n      0xffffffffffffffff\n        /* \"#utility.yul\":1039:1049   */\n      dup3\n        /* \"#utility.yul\":1036:1070   */\n      gt\n        /* \"#utility.yul\":1033:1095   */\n      or\n        /* \"#utility.yul\":1030:1118   */\n      iszero\n      tag_115\n      jumpi\n        /* \"#utility.yul\":1098:1116   */\n      tag_116\n      tag_59\n      jump\t// in\n    tag_116:\n        /* \"#utility.yul\":1030:1118   */\n    tag_115:\n        /* \"#utility.yul\":1138:1148   */\n      dup1\n        /* \"#utility.yul\":1134:1136   */\n      0x40\n        /* \"#utility.yul\":1127:1149   */\n      mstore\n        /* \"#utility.yul\":917:1155   */\n      pop\n        /* \"#utility.yul\":874:1155   */\n      pop\n      pop\n      jump\t// out\n        /* \"#utility.yul\":1161:1290   */\n    tag_61:\n        /* \"#utility.yul\":1195:1201   */\n      0x00\n        /* \"#utility.yul\":1222:1242   */\n      tag_118\n      tag_53\n      jump\t// in\n    tag_118:\n        /* \"#utility.yul\":1212:1242   */\n      swap1\n      pop\n        /* \"#utility.yul\":1251:1284   */\n      tag_119\n        /* \"#utility.yul\":1279:1283   */\n      dup3\n        /* \"#utility.yul\":1271:1277   */\n      dup3\n        /* \"#utility.yul\":1251:1284   */\n      tag_60\n      jump\t// in\n    tag_119:\n        /* \"#utility.yul\":1161:1290   */\n      swap2\n      swap1\n      pop\n      jump\t// out\n        /* \"#utility.yul\":1296:1604   */\n    tag_62:\n        /* \"#utility.yul\":1358:1362   */\n      0x00\n        /* \"#utility.yul\":1448:1466   */\n      0xffffffffffffffff\n        /* \"#utility.yul\":1440:1446   */\n      dup3\n        /* \"#utility.yul\":1437:1467   */\n      gt\n        /* \"#utility.yul\":1434:1490   */\n      iszero\n      tag_121\n      jumpi\n        /* \"#utility.yul\":1470:1488   */\n      tag_122\n      tag_59\n      jump\t// in\n    tag_122:\n        /* \"#utility.yul\":1434:1490   */\n    tag_121:\n        /* \"#utility.yul\":1508:1537   */\n      tag_123\n        /* \"#utility.yul\":1530:1536   */\n      dup3\n        /* \"#utility.yul\":1508:1537   */\n      tag_58\n      jump\t// in\n    tag_123:\n        /* \"#utility.yul\":1500:1537   */\n      swap1\n      pop\n        /* \"#utility.yul\":1592:1596   */\n      0x20\n        /* \"#utility.yul\":1586:1590   */\n      dup2\n        /* \"#utility.yul\":1582:1597   */\n      add\n        /* \"#utility.yul\":1574:1597   */\n      swap1\n      pop\n        /* \"#utility.yul\":1296:1604   */\n      swap2\n      swap1\n      pop\n      jump\t// out\n        /* \"#utility.yul\":1610:1758   */\n    tag_63:\n        /* \"#utility.yul\":1708:1714   */\n      dup3\n        /* \"#utility.yul\":1703:1706   */\n      dup2\n        /* \"#utility.yul\":1698:1701   */\n      dup4\n        /* \"#utility.yul\":1685:1715   */\n      calldatacopy\n        /* \"#utility.yul\":1749:1750   */\n      0x00\n        /* \"#utility.yul\":1740:1746   */\n      dup4\n        /* \"#utility.yul\":1735:1738   */\n      dup4\n        /* \"#utility.yul\":1731:1747   */\n      add\n        /* \"#utility.yul\":1724:1751   */\n      mstore\n        /* \"#utility.yul\":1610:1758   */\n      pop\n      pop\n      pop\n      jump\t// out\n        /* \"#utility.yul\":1764:2189   */\n    tag_64:\n        /* \"#utility.yul\":1842:1847   */\n      0x00\n        /* \"#utility.yul\":1867:1933   */\n      tag_126\n        /* \"#utility.yul\":1883:1932   */\n      tag_127\n        /* \"#utility.yul\":1925:1931   */\n      dup5\n        /* \"#utility.yul\":1883:1932   */\n      tag_62\n      jump\t// in\n    tag_127:\n        /* \"#utility.yul\":1867:1933   */\n      tag_61\n      jump\t// in\n    tag_126:\n        /* \"#utility.yul\":1858:1933   */\n      swap1\n      pop\n        /* \"#utility.yul\":1956:1962   */\n      dup3\n        /* \"#utility.yul\":1949:1954   */\n      dup2\n        /* \"#utility.yul\":1942:1963   */\n      mstore\n        /* \"#utility.yul\":1994:1998   */\n      0x20\n        /* \"#utility.yul\":1987:1992   */\n      dup2\n        /* \"#utility.yul\":1983:1999   */\n      add\n        /* \"#utility.yul\":2032:2035   */\n      dup5\n        /* \"#utility.yul\":2023:2029   */\n      dup5\n        /* \"#utility.yul\":2018:2021   */\n      dup5\n        /* \"#utility.yul\":2014:2030   */\n      add\n        /* \"#utility.yul\":2011:2036   */\n      gt\n        /* \"#utility.yul\":2008:2120   */\n      iszero\n      tag_128\n      jumpi\n        /* \"#utility.yul\":2039:2118   */\n      tag_129\n      tag_57\n      jump\t// in\n    tag_129:\n        /* \"#utility.yul\":2008:2120   */\n    tag_128:\n        /* \"#utility.yul\":2129:2183   */\n      tag_130\n        /* \"#utility.yul\":2176:2182   */\n      dup5\n        /* \"#utility.yul\":2171:2174   */\n      dup3\n        /* \"#utility.yul\":2166:2169   */\n      dup6\n        /* \"#utility.yul\":2129:2183   */\n      tag_63\n      jump\t// in\n    tag_130:\n        /* \"#utility.yul\":1848:2189   */\n      pop\n        /* \"#utility.yul\":1764:2189   */\n      swap4\n      swap3\n      pop\n      pop\n      pop\n      jump\t// out\n        /* \"#utility.yul\":2209:2549   */\n    tag_65:\n        /* \"#utility.yul\":2265:2270   */\n      0x00\n        /* \"#utility.yul\":2314:2317   */\n      dup3\n        /* \"#utility.yul\":2307:2311   */\n      0x1f\n        /* \"#utility.yul\":2299:2305   */\n      dup4\n        /* \"#utility.yul\":2295:2312   */\n      add\n        /* \"#utility.yul\":2291:2318   */\n      slt\n        /* \"#utility.yul\":2281:2403   */\n      tag_132\n      jumpi\n        /* \"#utility.yul\":2322:2401   */\n      tag_133\n      tag_56\n      jump\t// in\n    tag_133:\n        /* \"#utility.yul\":2281:2403   */\n    tag_132:\n        /* \"#utility.yul\":2439:2445   */\n      dup2\n        /* \"#utility.yul\":2426:2446   */\n      calldataload\n        /* \"#utility.yul\":2464:2543   */\n      tag_134\n        /* \"#utility.yul\":2539:2542   */\n      dup5\n        /* \"#utility.yul\":2531:2537   */\n      dup3\n        /* \"#utility.yul\":2524:2528   */\n      0x20\n        /* \"#utility.yul\":2516:2522   */\n      dup7\n        /* \"#utility.yul\":2512:2529   */\n      add\n        /* \"#utility.yul\":2464:2543   */\n      tag_64\n      jump\t// in\n    tag_134:\n        /* \"#utility.yul\":2455:2543   */\n      swap2\n      pop\n        /* \"#utility.yul\":2271:2549   */\n      pop\n        /* \"#utility.yul\":2209:2549   */\n      swap3\n      swap2\n      pop\n      pop\n      jump\t// out\n        /* \"#utility.yul\":2555:2632   */\n    tag_66:\n        /* \"#utility.yul\":2592:2599   */\n      0x00\n        /* \"#utility.yul\":2621:2626   */\n      dup2\n        /* \"#utility.yul\":2610:2626   */\n      swap1\n      pop\n        /* \"#utility.yul\":2555:2632   */\n      swap2\n      swap1\n      pop\n      jump\t// out\n        /* \"#utility.yul\":2638:2760   */\n    tag_67:\n        /* \"#utility.yul\":2711:2735   */\n      tag_137\n        /* \"#utility.yul\":2729:2734   */\n      dup2\n        /* \"#utility.yul\":2711:2735   */\n      tag_66\n      jump\t// in\n    tag_137:\n        /* \"#utility.yul\":2704:2709   */\n      dup2\n        /* \"#utility.yul\":2701:2736   */\n      eq\n        /* \"#utility.yul\":2691:2754   */\n      tag_138\n      jumpi\n        /* \"#utility.yul\":2750:2751   */\n      0x00\n        /* \"#utility.yul\":2747:2748   */\n      dup1\n        /* \"#utility.yul\":2740:2752   */\n      revert\n        /* \"#utility.yul\":2691:2754   */\n    tag_138:\n        /* \"#utility.yul\":2638:2760   */\n      pop\n      jump\t// out\n        /* \"#utility.yul\":2766:2905   */\n    tag_68:\n        /* \"#utility.yul\":2812:2817   */\n      0x00\n        /* \"#utility.yul\":2850:2856   */\n      dup2\n        /* \"#utility.yul\":2837:2857   */\n      calldataload\n        /* \"#utility.yul\":2828:2857   */\n      swap1\n      pop\n        /* \"#utility.yul\":2866:2899   */\n      tag_140\n        /* \"#utility.yul\":2893:2898   */\n      dup2\n        /* \"#utility.yul\":2866:2899   */\n      tag_67\n      jump\t// in\n    tag_140:\n        /* \"#utility.yul\":2766:2905   */\n      swap3\n      swap2\n      pop\n      pop\n      jump\t// out\n        /* \"#utility.yul\":2911:3001   */\n    tag_69:\n        /* \"#utility.yul\":2945:2952   */\n      0x00\n        /* \"#utility.yul\":2988:2993   */\n      dup2\n        /* \"#utility.yul\":2981:2994   */\n      iszero\n        /* \"#utility.yul\":2974:2995   */\n      iszero\n        /* \"#utility.yul\":2963:2995   */\n      swap1\n      pop\n        /* \"#utility.yul\":2911:3001   */\n      swap2\n      swap1\n      pop\n      jump\t// out\n        /* \"#utility.yul\":3007:3123   */\n    tag_70:\n        /* \"#utility.yul\":3077:3098   */\n      tag_143\n        /* \"#utility.yul\":3092:3097   */\n      dup2\n        /* \"#utility.yul\":3077:3098   */\n      tag_69\n      jump\t// in\n    tag_143:\n        /* \"#utility.yul\":3070:3075   */\n      dup2\n        /* \"#utility.yul\":3067:3099   */\n      eq\n        /* \"#utility.yul\":3057:3117   */\n      tag_144\n      jumpi\n        /* \"#utility.yul\":3113:3114   */\n      0x00\n        /* \"#utility.yul\":3110:3111   */\n      dup1\n        /* \"#utility.yul\":3103:3115   */\n      revert\n        /* \"#utility.yul\":3057:3117   */\n    tag_144:\n        /* \"#utility.yul\":3007:3123   */\n      pop\n      jump\t// out\n        /* \"#utility.yul\":3129:3262   */\n    tag_71:\n        /* \"#utility.yul\":3172:3177   */\n      0x00\n        /* \"#utility.yul\":3210:3216   */\n      dup2\n        /* \"#utility.yul\":3197:3217   */\n      calldataload\n        /* \"#utility.yul\":3188:3217   */\n      swap1\n      pop\n        /* \"#utility.yul\":3226:3256   */\n      tag_146\n        /* \"#utility.yul\":3250:3255   */\n      dup2\n        /* \"#utility.yul\":3226:3256   */\n      tag_70\n      jump\t// in\n    tag_146:\n        /* \"#utility.yul\":3129:3262   */\n      swap3\n      swap2\n      pop\n      pop\n      jump\t// out\n        /* \"#utility.yul\":3268:4207   */\n    tag_9:\n        /* \"#utility.yul\":3361:3367   */\n      0x00\n        /* \"#utility.yul\":3369:3375   */\n      dup1\n        /* \"#utility.yul\":3377:3383   */\n      0x00\n        /* \"#utility.yul\":3385:3391   */\n      dup1\n        /* \"#utility.yul\":3434:3437   */\n      0x80\n        /* \"#utility.yul\":3422:3431   */\n      dup6\n        /* \"#utility.yul\":3413:3420   */\n      dup8\n        /* \"#utility.yul\":3409:3432   */\n      sub\n        /* \"#utility.yul\":3405:3438   */\n      slt\n        /* \"#utility.yul\":3402:3522   */\n      iszero\n      tag_148\n      jumpi\n        /* \"#utility.yul\":3441:3520   */\n      tag_149\n      tag_54\n      jump\t// in\n    tag_149:\n        /* \"#utility.yul\":3402:3522   */\n    tag_148:\n        /* \"#utility.yul\":3589:3590   */\n      0x00\n        /* \"#utility.yul\":3578:3587   */\n      dup6\n        /* \"#utility.yul\":3574:3591   */\n      add\n        /* \"#utility.yul\":3561:3592   */\n      calldataload\n        /* \"#utility.yul\":3619:3637   */\n      0xffffffffffffffff\n        /* \"#utility.yul\":3611:3617   */\n      dup2\n        /* \"#utility.yul\":3608:3638   */\n      gt\n        /* \"#utility.yul\":3605:3722   */\n      iszero\n      tag_150\n      jumpi\n        /* \"#utility.yul\":3641:3720   */\n      tag_151\n      tag_55\n      jump\t// in\n    tag_151:\n        /* \"#utility.yul\":3605:3722   */\n    tag_150:\n        /* \"#utility.yul\":3746:3809   */\n      tag_152\n        /* \"#utility.yul\":3801:3808   */\n      dup8\n        /* \"#utility.yul\":3792:3798   */\n      dup3\n        /* \"#utility.yul\":3781:3790   */\n      dup9\n        /* \"#utility.yul\":3777:3799   */\n      add\n        /* \"#utility.yul\":3746:3809   */\n      tag_65\n      jump\t// in\n    tag_152:\n        /* \"#utility.yul\":3736:3809   */\n      swap5\n      pop\n        /* \"#utility.yul\":3532:3819   */\n      pop\n        /* \"#utility.yul\":3858:3860   */\n      0x20\n        /* \"#utility.yul\":3884:3937   */\n      tag_153\n        /* \"#utility.yul\":3929:3936   */\n      dup8\n        /* \"#utility.yul\":3920:3926   */\n      dup3\n        /* \"#utility.yul\":3909:3918   */\n      dup9\n        /* \"#utility.yul\":3905:3927   */\n      add\n        /* \"#utility.yul\":3884:3937   */\n      tag_68\n      jump\t// in\n    tag_153:\n        /* \"#utility.yul\":3874:3937   */\n      swap4\n      pop\n        /* \"#utility.yul\":3829:3947   */\n      pop\n        /* \"#utility.yul\":3986:3988   */\n      0x40\n        /* \"#utility.yul\":4012:4065   */\n      tag_154\n        /* \"#utility.yul\":4057:4064   */\n      dup8\n        /* \"#utility.yul\":4048:4054   */\n      dup3\n        /* \"#utility.yul\":4037:4046   */\n      dup9\n        /* \"#utility.yul\":4033:4055   */\n      add\n        /* \"#utility.yul\":4012:4065   */\n      tag_68\n      jump\t// in\n    tag_154:\n        /* \"#utility.yul\":4002:4065   */\n      swap3\n      pop\n        /* \"#utility.yul\":3957:4075   */\n      pop\n        /* \"#utility.yul\":4114:4116   */\n      0x60\n        /* \"#utility.yul\":4140:4190   */\n      tag_155\n        /* \"#utility.yul\":4182:4189   */\n      dup8\n        /* \"#utility.yul\":4173:4179   */\n      dup3\n        /* \"#utility.yul\":4162:4171   */\n      dup9\n        /* \"#utility.yul\":4158:4180   */\n      add\n        /* \"#utility.yul\":4140:4190   */\n      tag_71\n      jump\t// in\n    tag_155:\n        /* \"#utility.yul\":4130:4190   */\n      swap2\n      pop\n        /* \"#utility.yul\":4085:4200   */\n      pop\n        /* \"#utility.yul\":3268:4207   */\n      swap3\n      swap6\n      swap2\n      swap5\n      pop\n      swap3\n      pop\n      jump\t// out\n        /* \"#utility.yul\":4213:4349   */\n    tag_72:\n        /* \"#utility.yul\":4302:4308   */\n      0x00\n        /* \"#utility.yul\":4336:4341   */\n      dup2\n        /* \"#utility.yul\":4330:4342   */\n      mload\n        /* \"#utility.yul\":4320:4342   */\n      swap1\n      pop\n        /* \"#utility.yul\":4213:4349   */\n      swap2\n      swap1\n      pop\n      jump\t// out\n        /* \"#utility.yul\":4355:4561   */\n    tag_73:\n        /* \"#utility.yul\":4476:4487   */\n      0x00\n        /* \"#utility.yul\":4510:4516   */\n      dup3\n        /* \"#utility.yul\":4505:4508   */\n      dup3\n        /* \"#utility.yul\":4498:4517   */\n      mstore\n        /* \"#utility.yul\":4550:4554   */\n      0x20\n        /* \"#utility.yul\":4545:4548   */\n      dup3\n        /* \"#utility.yul\":4541:4555   */\n      add\n        /* \"#utility.yul\":4526:4555   */\n      swap1\n      pop\n        /* \"#utility.yul\":4355:4561   */\n      swap3\n      swap2\n      pop\n      pop\n      jump\t// out\n        /* \"#utility.yul\":4567:4721   */\n    tag_74:\n        /* \"#utility.yul\":4656:4660   */\n      0x00\n        /* \"#utility.yul\":4679:4682   */\n      dup2\n        /* \"#utility.yul\":4671:4682   */\n      swap1\n      pop\n        /* \"#utility.yul\":4709:4713   */\n      0x20\n        /* \"#utility.yul\":4704:4707   */\n      dup3\n        /* \"#utility.yul\":4700:4714   */\n      add\n        /* \"#utility.yul\":4692:4714   */\n      swap1\n      pop\n        /* \"#utility.yul\":4567:4721   */\n      swap2\n      swap1\n      pop\n      jump\t// out\n        /* \"#utility.yul\":4727:4826   */\n    tag_75:\n        /* \"#utility.yul\":4779:4785   */\n      0x00\n        /* \"#utility.yul\":4813:4818   */\n      dup2\n        /* \"#utility.yul\":4807:4819   */\n      mload\n        /* \"#utility.yul\":4797:4819   */\n      swap1\n      pop\n        /* \"#utility.yul\":4727:4826   */\n      swap2\n      swap1\n      pop\n      jump\t// out\n        /* \"#utility.yul\":4832:4991   */\n    tag_76:\n        /* \"#utility.yul\":4906:4917   */\n      0x00\n        /* \"#utility.yul\":4940:4946   */\n      dup3\n        /* \"#utility.yul\":4935:4938   */\n      dup3\n        /* \"#utility.yul\":4928:4947   */\n      mstore\n        /* \"#utility.yul\":4980:4984   */\n      0x20\n        /* \"#utility.yul\":4975:4978   */\n      dup3\n        /* \"#utility.yul\":4971:4985   */\n      add\n        /* \"#utility.yul\":4956:4985   */\n      swap1\n      pop\n        /* \"#utility.yul\":4832:4991   */\n      swap3\n      swap2\n      pop\n      pop\n      jump\t// out\n        /* \"#utility.yul\":4997:5136   */\n    tag_77:\n        /* \"#utility.yul\":5086:5092   */\n      dup3\n        /* \"#utility.yul\":5081:5084   */\n      dup2\n        /* \"#utility.yul\":5076:5079   */\n      dup4\n        /* \"#utility.yul\":5070:5093   */\n      mcopy\n        /* \"#utility.yul\":5127:5128   */\n      0x00\n        /* \"#utility.yul\":5118:5124   */\n      dup4\n        /* \"#utility.yul\":5113:5116   */\n      dup4\n        /* \"#utility.yul\":5109:5125   */\n      add\n        /* \"#utility.yul\":5102:5129   */\n      mstore\n        /* \"#utility.yul\":4997:5136   */\n      pop\n      pop\n      pop\n      jump\t// out\n        /* \"#utility.yul\":5142:5499   */\n    tag_78:\n        /* \"#utility.yul\":5220:5223   */\n      0x00\n        /* \"#utility.yul\":5248:5287   */\n      tag_163\n        /* \"#utility.yul\":5281:5286   */\n      dup3\n        /* \"#utility.yul\":5248:5287   */\n      tag_75\n      jump\t// in\n    tag_163:\n        /* \"#utility.yul\":5303:5364   */\n      tag_164\n        /* \"#utility.yul\":5357:5363   */\n      dup2\n        /* \"#utility.yul\":5352:5355   */\n      dup6\n        /* \"#utility.yul\":5303:5364   */\n      tag_76\n      jump\t// in\n    tag_164:\n        /* \"#utility.yul\":5296:5364   */\n      swap4\n      pop\n        /* \"#utility.yul\":5373:5438   */\n      tag_165\n        /* \"#utility.yul\":5431:5437   */\n      dup2\n        /* \"#utility.yul\":5426:5429   */\n      dup6\n        /* \"#utility.yul\":5419:5423   */\n      0x20\n        /* \"#utility.yul\":5412:5417   */\n      dup7\n        /* \"#utility.yul\":5408:5424   */\n      add\n        /* \"#utility.yul\":5373:5438   */\n      tag_77\n      jump\t// in\n    tag_165:\n        /* \"#utility.yul\":5463:5492   */\n      tag_166\n        /* \"#utility.yul\":5485:5491   */\n      dup2\n        /* \"#utility.yul\":5463:5492   */\n      tag_58\n      jump\t// in\n    tag_166:\n        /* \"#utility.yul\":5458:5461   */\n      dup5\n        /* \"#utility.yul\":5454:5493   */\n      add\n        /* \"#utility.yul\":5447:5493   */\n      swap2\n      pop\n        /* \"#utility.yul\":5224:5499   */\n      pop\n        /* \"#utility.yul\":5142:5499   */\n      swap3\n      swap2\n      pop\n      pop\n      jump\t// out\n        /* \"#utility.yul\":5505:5613   */\n    tag_79:\n        /* \"#utility.yul\":5582:5606   */\n      tag_168\n        /* \"#utility.yul\":5600:5605   */\n      dup2\n        /* \"#utility.yul\":5582:5606   */\n      tag_66\n      jump\t// in\n    tag_168:\n        /* \"#utility.yul\":5577:5580   */\n      dup3\n        /* \"#utility.yul\":5570:5607   */\n      mstore\n        /* \"#utility.yul\":5505:5613   */\n      pop\n      pop\n      jump\t// out\n        /* \"#utility.yul\":5619:5718   */\n    tag_80:\n        /* \"#utility.yul\":5690:5711   */\n      tag_170\n        /* \"#utility.yul\":5705:5710   */\n      dup2\n        /* \"#utility.yul\":5690:5711   */\n      tag_69\n      jump\t// in\n    tag_170:\n        /* \"#utility.yul\":5685:5688   */\n      dup3\n        /* \"#utility.yul\":5678:5712   */\n      mstore\n        /* \"#utility.yul\":5619:5718   */\n      pop\n      pop\n      jump\t// out\n        /* \"#utility.yul\":5784:6714   */\n    tag_81:\n        /* \"#utility.yul\":5887:5890   */\n      0x00\n        /* \"#utility.yul\":5923:5927   */\n      0x80\n        /* \"#utility.yul\":5918:5921   */\n      dup4\n        /* \"#utility.yul\":5914:5928   */\n      add\n        /* \"#utility.yul\":6012:6016   */\n      0x00\n        /* \"#utility.yul\":6005:6010   */\n      dup4\n        /* \"#utility.yul\":6001:6017   */\n      add\n        /* \"#utility.yul\":5995:6018   */\n      mload\n        /* \"#utility.yul\":6065:6068   */\n      dup5\n        /* \"#utility.yul\":6059:6063   */\n      dup3\n        /* \"#utility.yul\":6055:6069   */\n      sub\n        /* \"#utility.yul\":6048:6052   */\n      0x00\n        /* \"#utility.yul\":6043:6046   */\n      dup7\n        /* \"#utility.yul\":6039:6053   */\n      add\n        /* \"#utility.yul\":6032:6070   */\n      mstore\n        /* \"#utility.yul\":6091:6164   */\n      tag_172\n        /* \"#utility.yul\":6159:6163   */\n      dup3\n        /* \"#utility.yul\":6145:6157   */\n      dup3\n        /* \"#utility.yul\":6091:6164   */\n      tag_78\n      jump\t// in\n    tag_172:\n        /* \"#utility.yul\":6083:6164   */\n      swap2\n      pop\n        /* \"#utility.yul\":5938:6175   */\n      pop\n        /* \"#utility.yul\":6255:6259   */\n      0x20\n        /* \"#utility.yul\":6248:6253   */\n      dup4\n        /* \"#utility.yul\":6244:6260   */\n      add\n        /* \"#utility.yul\":6238:6261   */\n      mload\n        /* \"#utility.yul\":6274:6337   */\n      tag_173\n        /* \"#utility.yul\":6331:6335   */\n      0x20\n        /* \"#utility.yul\":6326:6329   */\n      dup7\n        /* \"#utility.yul\":6322:6336   */\n      add\n        /* \"#utility.yul\":6308:6320   */\n      dup3\n        /* \"#utility.yul\":6274:6337   */\n      tag_79\n      jump\t// in\n    tag_173:\n        /* \"#utility.yul\":6185:6347   */\n      pop\n        /* \"#utility.yul\":6428:6432   */\n      0x40\n        /* \"#utility.yul\":6421:6426   */\n      dup4\n        /* \"#utility.yul\":6417:6433   */\n      add\n        /* \"#utility.yul\":6411:6434   */\n      mload\n        /* \"#utility.yul\":6447:6510   */\n      tag_174\n        /* \"#utility.yul\":6504:6508   */\n      0x40\n        /* \"#utility.yul\":6499:6502   */\n      dup7\n        /* \"#utility.yul\":6495:6509   */\n      add\n        /* \"#utility.yul\":6481:6493   */\n      dup3\n        /* \"#utility.yul\":6447:6510   */\n      tag_79\n      jump\t// in\n    tag_174:\n        /* \"#utility.yul\":6357:6520   */\n      pop\n        /* \"#utility.yul\":6601:6605   */\n      0x60\n        /* \"#utility.yul\":6594:6599   */\n      dup4\n        /* \"#utility.yul\":6590:6606   */\n      add\n        /* \"#utility.yul\":6584:6607   */\n      mload\n        /* \"#utility.yul\":6620:6677   */\n      tag_175\n        /* \"#utility.yul\":6671:6675   */\n      0x60\n        /* \"#utility.yul\":6666:6669   */\n      dup7\n        /* \"#utility.yul\":6662:6676   */\n      add\n        /* \"#utility.yul\":6648:6660   */\n      dup3\n        /* \"#utility.yul\":6620:6677   */\n      tag_80\n      jump\t// in\n    tag_175:\n        /* \"#utility.yul\":6530:6687   */\n      pop\n        /* \"#utility.yul\":6704:6708   */\n      dup1\n        /* \"#utility.yul\":6697:6708   */\n      swap2\n      pop\n        /* \"#utility.yul\":5892:6714   */\n      pop\n        /* \"#utility.yul\":5784:6714   */\n      swap3\n      swap2\n      pop\n      pop\n      jump\t// out\n        /* \"#utility.yul\":6720:6964   */\n    tag_82:\n        /* \"#utility.yul\":6833:6843   */\n      0x00\n        /* \"#utility.yul\":6868:6958   */\n      tag_177\n        /* \"#utility.yul\":6954:6957   */\n      dup4\n        /* \"#utility.yul\":6946:6952   */\n      dup4\n        /* \"#utility.yul\":6868:6958   */\n      tag_81\n      jump\t// in\n    tag_177:\n        /* \"#utility.yul\":6854:6958   */\n      swap1\n      pop\n        /* \"#utility.yul\":6720:6964   */\n      swap3\n      swap2\n      pop\n      pop\n      jump\t// out\n        /* \"#utility.yul\":6970:7105   */\n    tag_83:\n        /* \"#utility.yul\":7062:7066   */\n      0x00\n        /* \"#utility.yul\":7094:7098   */\n      0x20\n        /* \"#utility.yul\":7089:7092   */\n      dup3\n        /* \"#utility.yul\":7085:7099   */\n      add\n        /* \"#utility.yul\":7077:7099   */\n      swap1\n      pop\n        /* \"#utility.yul\":6970:7105   */\n      swap2\n      swap1\n      pop\n      jump\t// out\n        /* \"#utility.yul\":7175:8262   */\n    tag_84:\n        /* \"#utility.yul\":7338:7341   */\n      0x00\n        /* \"#utility.yul\":7367:7443   */\n      tag_180\n        /* \"#utility.yul\":7437:7442   */\n      dup3\n        /* \"#utility.yul\":7367:7443   */\n      tag_72\n      jump\t// in\n    tag_180:\n        /* \"#utility.yul\":7459:7567   */\n      tag_181\n        /* \"#utility.yul\":7560:7566   */\n      dup2\n        /* \"#utility.yul\":7555:7558   */\n      dup6\n        /* \"#utility.yul\":7459:7567   */\n      tag_73\n      jump\t// in\n    tag_181:\n        /* \"#utility.yul\":7452:7567   */\n      swap4\n      pop\n        /* \"#utility.yul\":7593:7596   */\n      dup4\n        /* \"#utility.yul\":7638:7642   */\n      0x20\n        /* \"#utility.yul\":7630:7636   */\n      dup3\n        /* \"#utility.yul\":7626:7643   */\n      mul\n        /* \"#utility.yul\":7621:7624   */\n      dup6\n        /* \"#utility.yul\":7617:7644   */\n      add\n        /* \"#utility.yul\":7668:7746   */\n      tag_182\n        /* \"#utility.yul\":7740:7745   */\n      dup6\n        /* \"#utility.yul\":7668:7746   */\n      tag_74\n      jump\t// in\n    tag_182:\n        /* \"#utility.yul\":7769:7776   */\n      dup1\n        /* \"#utility.yul\":7800:7801   */\n      0x00\n        /* \"#utility.yul\":7785:8217   */\n    tag_183:\n        /* \"#utility.yul\":7810:7816   */\n      dup6\n        /* \"#utility.yul\":7807:7808   */\n      dup2\n        /* \"#utility.yul\":7804:7817   */\n      lt\n        /* \"#utility.yul\":7785:8217   */\n      iszero\n      tag_185\n      jumpi\n        /* \"#utility.yul\":7881:7890   */\n      dup5\n        /* \"#utility.yul\":7875:7879   */\n      dup5\n        /* \"#utility.yul\":7871:7891   */\n      sub\n        /* \"#utility.yul\":7866:7869   */\n      dup10\n        /* \"#utility.yul\":7859:7892   */\n      mstore\n        /* \"#utility.yul\":7932:7938   */\n      dup2\n        /* \"#utility.yul\":7926:7939   */\n      mload\n        /* \"#utility.yul\":7960:8068   */\n      tag_186\n        /* \"#utility.yul\":8063:8067   */\n      dup6\n        /* \"#utility.yul\":8048:8061   */\n      dup3\n        /* \"#utility.yul\":7960:8068   */\n      tag_82\n      jump\t// in\n    tag_186:\n        /* \"#utility.yul\":7952:8068   */\n      swap5\n      pop\n        /* \"#utility.yul\":8091:8173   */\n      tag_187\n        /* \"#utility.yul\":8166:8172   */\n      dup4\n        /* \"#utility.yul\":8091:8173   */\n      tag_83\n      jump\t// in\n    tag_187:\n        /* \"#utility.yul\":8081:8173   */\n      swap3\n      pop\n        /* \"#utility.yul\":8202:8206   */\n      0x20\n        /* \"#utility.yul\":8197:8200   */\n      dup11\n        /* \"#utility.yul\":8193:8207   */\n      add\n        /* \"#utility.yul\":8186:8207   */\n      swap10\n      pop\n        /* \"#utility.yul\":7845:8217   */\n      pop\n        /* \"#utility.yul\":7832:7833   */\n      0x01\n        /* \"#utility.yul\":7829:7830   */\n      dup2\n        /* \"#utility.yul\":7825:7834   */\n      add\n        /* \"#utility.yul\":7820:7834   */\n      swap1\n      pop\n        /* \"#utility.yul\":7785:8217   */\n      jump(tag_183)\n    tag_185:\n        /* \"#utility.yul\":7789:7803   */\n      pop\n        /* \"#utility.yul\":8233:8237   */\n      dup3\n        /* \"#utility.yul\":8226:8237   */\n      swap8\n      pop\n        /* \"#utility.yul\":8253:8256   */\n      dup8\n        /* \"#utility.yul\":8246:8256   */\n      swap6\n      pop\n        /* \"#utility.yul\":7343:8262   */\n      pop\n      pop\n      pop\n      pop\n      pop\n        /* \"#utility.yul\":7175:8262   */\n      swap3\n      swap2\n      pop\n      pop\n      jump\t// out\n        /* \"#utility.yul\":8268:8729   */\n    tag_14:\n        /* \"#utility.yul\":8455:8459   */\n      0x00\n        /* \"#utility.yul\":8493:8495   */\n      0x20\n        /* \"#utility.yul\":8482:8491   */\n      dup3\n        /* \"#utility.yul\":8478:8496   */\n      add\n        /* \"#utility.yul\":8470:8496   */\n      swap1\n      pop\n        /* \"#utility.yul\":8542:8551   */\n      dup2\n        /* \"#utility.yul\":8536:8540   */\n      dup2\n        /* \"#utility.yul\":8532:8552   */\n      sub\n        /* \"#utility.yul\":8528:8529   */\n      0x00\n        /* \"#utility.yul\":8517:8526   */\n      dup4\n        /* \"#utility.yul\":8513:8530   */\n      add\n        /* \"#utility.yul\":8506:8553   */\n      mstore\n        /* \"#utility.yul\":8570:8722   */\n      tag_189\n        /* \"#utility.yul\":8717:8721   */\n      dup2\n        /* \"#utility.yul\":8708:8714   */\n      dup5\n        /* \"#utility.yul\":8570:8722   */\n      tag_84\n      jump\t// in\n    tag_189:\n        /* \"#utility.yul\":8562:8722   */\n      swap1\n      pop\n        /* \"#utility.yul\":8268:8729   */\n      swap3\n      swap2\n      pop\n      pop\n      jump\t// out\n        /* \"#utility.yul\":8735:8853   */\n    tag_85:\n        /* \"#utility.yul\":8822:8846   */\n      tag_191\n        /* \"#utility.yul\":8840:8845   */\n      dup2\n        /* \"#utility.yul\":8822:8846   */\n      tag_66\n      jump\t// in\n    tag_191:\n        /* \"#utility.yul\":8817:8820   */\n      dup3\n        /* \"#utility.yul\":8810:8847   */\n      mstore\n        /* \"#utility.yul\":8735:8853   */\n      pop\n      pop\n      jump\t// out\n        /* \"#utility.yul\":8859:9081   */\n    tag_18:\n        /* \"#utility.yul\":8952:8956   */\n      0x00\n        /* \"#utility.yul\":8990:8992   */\n      0x20\n        /* \"#utility.yul\":8979:8988   */\n      dup3\n        /* \"#utility.yul\":8975:8993   */\n      add\n        /* \"#utility.yul\":8967:8993   */\n      swap1\n      pop\n        /* \"#utility.yul\":9003:9074   */\n      tag_193\n        /* \"#utility.yul\":9071:9072   */\n      0x00\n        /* \"#utility.yul\":9060:9069   */\n      dup4\n        /* \"#utility.yul\":9056:9073   */\n      add\n        /* \"#utility.yul\":9047:9053   */\n      dup5\n        /* \"#utility.yul\":9003:9074   */\n      tag_85\n      jump\t// in\n    tag_193:\n        /* \"#utility.yul\":8859:9081   */\n      swap3\n      swap2\n      pop\n      pop\n      jump\t// out\n        /* \"#utility.yul\":9087:9416   */\n    tag_21:\n        /* \"#utility.yul\":9146:9152   */\n      0x00\n        /* \"#utility.yul\":9195:9197   */\n      0x20\n        /* \"#utility.yul\":9183:9192   */\n      dup3\n        /* \"#utility.yul\":9174:9181   */\n      dup5\n        /* \"#utility.yul\":9170:9193   */\n      sub\n        /* \"#utility.yul\":9166:9198   */\n      slt\n        /* \"#utility.yul\":9163:9282   */\n      iszero\n      tag_195\n      jumpi\n        /* \"#utility.yul\":9201:9280   */\n      tag_196\n      tag_54\n      jump\t// in\n    tag_196:\n        /* \"#utility.yul\":9163:9282   */\n    tag_195:\n        /* \"#utility.yul\":9321:9322   */\n      0x00\n        /* \"#utility.yul\":9346:9399   */\n      tag_197\n        /* \"#utility.yul\":9391:9398   */\n      dup5\n        /* \"#utility.yul\":9382:9388   */\n      dup3\n        /* \"#utility.yul\":9371:9380   */\n      dup6\n        /* \"#utility.yul\":9367:9389   */\n      add\n        /* \"#utility.yul\":9346:9399   */\n      tag_68\n      jump\t// in\n    tag_197:\n        /* \"#utility.yul\":9336:9399   */\n      swap2\n      pop\n        /* \"#utility.yul\":9292:9409   */\n      pop\n        /* \"#utility.yul\":9087:9416   */\n      swap3\n      swap2\n      pop\n      pop\n      jump\t// out\n        /* \"#utility.yul\":9422:9591   */\n    tag_86:\n        /* \"#utility.yul\":9506:9517   */\n      0x00\n        /* \"#utility.yul\":9540:9546   */\n      dup3\n        /* \"#utility.yul\":9535:9538   */\n      dup3\n        /* \"#utility.yul\":9528:9547   */\n      mstore\n        /* \"#utility.yul\":9580:9584   */\n      0x20\n        /* \"#utility.yul\":9575:9578   */\n      dup3\n        /* \"#utility.yul\":9571:9585   */\n      add\n        /* \"#utility.yul\":9556:9585   */\n      swap1\n      pop\n        /* \"#utility.yul\":9422:9591   */\n      swap3\n      swap2\n      pop\n      pop\n      jump\t// out\n        /* \"#utility.yul\":9597:9974   */\n    tag_87:\n        /* \"#utility.yul\":9685:9688   */\n      0x00\n        /* \"#utility.yul\":9713:9752   */\n      tag_200\n        /* \"#utility.yul\":9746:9751   */\n      dup3\n        /* \"#utility.yul\":9713:9752   */\n      tag_75\n      jump\t// in\n    tag_200:\n        /* \"#utility.yul\":9768:9839   */\n      tag_201\n        /* \"#utility.yul\":9832:9838   */\n      dup2\n        /* \"#utility.yul\":9827:9830   */\n      dup6\n        /* \"#utility.yul\":9768:9839   */\n      tag_86\n      jump\t// in\n    tag_201:\n        /* \"#utility.yul\":9761:9839   */\n      swap4\n      pop\n        /* \"#utility.yul\":9848:9913   */\n      tag_202\n        /* \"#utility.yul\":9906:9912   */\n      dup2\n        /* \"#utility.yul\":9901:9904   */\n      dup6\n        /* \"#utility.yul\":9894:9898   */\n      0x20\n        /* \"#utility.yul\":9887:9892   */\n      dup7\n        /* \"#utility.yul\":9883:9899   */\n      add\n        /* \"#utility.yul\":9848:9913   */\n      tag_77\n      jump\t// in\n    tag_202:\n        /* \"#utility.yul\":9938:9967   */\n      tag_203\n        /* \"#utility.yul\":9960:9966   */\n      dup2\n        /* \"#utility.yul\":9938:9967   */\n      tag_58\n      jump\t// in\n    tag_203:\n        /* \"#utility.yul\":9933:9936   */\n      dup5\n        /* \"#utility.yul\":9929:9968   */\n      add\n        /* \"#utility.yul\":9922:9968   */\n      swap2\n      pop\n        /* \"#utility.yul\":9689:9974   */\n      pop\n        /* \"#utility.yul\":9597:9974   */\n      swap3\n      swap2\n      pop\n      pop\n      jump\t// out\n        /* \"#utility.yul\":9980:10089   */\n    tag_88:\n        /* \"#utility.yul\":10061:10082   */\n      tag_205\n        /* \"#utility.yul\":10076:10081   */\n      dup2\n        /* \"#utility.yul\":10061:10082   */\n      tag_69\n      jump\t// in\n    tag_205:\n        /* \"#utility.yul\":10056:10059   */\n      dup3\n        /* \"#utility.yul\":10049:10083   */\n      mstore\n        /* \"#utility.yul\":9980:10089   */\n      pop\n      pop\n      jump\t// out\n        /* \"#utility.yul\":10095:10727   */\n    tag_24:\n        /* \"#utility.yul\":10286:10290   */\n      0x00\n        /* \"#utility.yul\":10324:10327   */\n      0x80\n        /* \"#utility.yul\":10313:10322   */\n      dup3\n        /* \"#utility.yul\":10309:10328   */\n      add\n        /* \"#utility.yul\":10301:10328   */\n      swap1\n      pop\n        /* \"#utility.yul\":10374:10383   */\n      dup2\n        /* \"#utility.yul\":10368:10372   */\n      dup2\n        /* \"#utility.yul\":10364:10384   */\n      sub\n        /* \"#utility.yul\":10360:10361   */\n      0x00\n        /* \"#utility.yul\":10349:10358   */\n      dup4\n        /* \"#utility.yul\":10345:10362   */\n      add\n        /* \"#utility.yul\":10338:10385   */\n      mstore\n        /* \"#utility.yul\":10402:10480   */\n      tag_207\n        /* \"#utility.yul\":10475:10479   */\n      dup2\n        /* \"#utility.yul\":10466:10472   */\n      dup8\n        /* \"#utility.yul\":10402:10480   */\n      tag_87\n      jump\t// in\n    tag_207:\n        /* \"#utility.yul\":10394:10480   */\n      swap1\n      pop\n        /* \"#utility.yul\":10490:10562   */\n      tag_208\n        /* \"#utility.yul\":10558:10560   */\n      0x20\n        /* \"#utility.yul\":10547:10556   */\n      dup4\n        /* \"#utility.yul\":10543:10561   */\n      add\n        /* \"#utility.yul\":10534:10540   */\n      dup7\n        /* \"#utility.yul\":10490:10562   */\n      tag_85\n      jump\t// in\n    tag_208:\n        /* \"#utility.yul\":10572:10644   */\n      tag_209\n        /* \"#utility.yul\":10640:10642   */\n      0x40\n        /* \"#utility.yul\":10629:10638   */\n      dup4\n        /* \"#utility.yul\":10625:10643   */\n      add\n        /* \"#utility.yul\":10616:10622   */\n      dup6\n        /* \"#utility.yul\":10572:10644   */\n      tag_85\n      jump\t// in\n    tag_209:\n        /* \"#utility.yul\":10654:10720   */\n      tag_210\n        /* \"#utility.yul\":10716:10718   */\n      0x60\n        /* \"#utility.yul\":10705:10714   */\n      dup4\n        /* \"#utility.yul\":10701:10719   */\n      add\n        /* \"#utility.yul\":10692:10698   */\n      dup5\n        /* \"#utility.yul\":10654:10720   */\n      tag_88\n      jump\t// in\n    tag_210:\n        /* \"#utility.yul\":10095:10727   */\n      swap6\n      swap5\n      pop\n      pop\n      pop\n      pop\n      pop\n      jump\t// out\n        /* \"#utility.yul\":10733:10913   */\n    tag_89:\n        /* \"#utility.yul\":10781:10858   */\n      0x4e487b7100000000000000000000000000000000000000000000000000000000\n        /* \"#utility.yul\":10778:10779   */\n      0x00\n        /* \"#utility.yul\":10771:10859   */\n      mstore\n        /* \"#utility.yul\":10878:10882   */\n      0x22\n        /* \"#utility.yul\":10875:10876   */\n      0x04\n        /* \"#utility.yul\":10868:10883   */\n      mstore\n        /* \"#utility.yul\":10902:10906   */\n      0x24\n        /* \"#utility.yul\":10899:10900   */\n      0x00\n        /* \"#utility.yul\":10892:10907   */\n      revert\n        /* \"#utility.yul\":10919:11239   */\n    tag_40:\n        /* \"#utility.yul\":10963:10969   */\n      0x00\n        /* \"#utility.yul\":11000:11001   */\n      0x02\n        /* \"#utility.yul\":10994:10998   */\n      dup3\n        /* \"#utility.yul\":10990:11002   */\n      div\n        /* \"#utility.yul\":10980:11002   */\n      swap1\n      pop\n        /* \"#utility.yul\":11047:11048   */\n      0x01\n        /* \"#utility.yul\":11041:11045   */\n      dup3\n        /* \"#utility.yul\":11037:11049   */\n      and\n        /* \"#utility.yul\":11068:11086   */\n      dup1\n        /* \"#utility.yul\":11058:11139   */\n      tag_213\n      jumpi\n        /* \"#utility.yul\":11124:11128   */\n      0x7f\n        /* \"#utility.yul\":11116:11122   */\n      dup3\n        /* \"#utility.yul\":11112:11129   */\n      and\n        /* \"#utility.yul\":11102:11129   */\n      swap2\n      pop\n        /* \"#utility.yul\":11058:11139   */\n    tag_213:\n        /* \"#utility.yul\":11186:11188   */\n      0x20\n        /* \"#utility.yul\":11178:11184   */\n      dup3\n        /* \"#utility.yul\":11175:11189   */\n      lt\n        /* \"#utility.yul\":11155:11173   */\n      dup2\n        /* \"#utility.yul\":11152:11190   */\n      sub\n        /* \"#utility.yul\":11149:11233   */\n      tag_214\n      jumpi\n        /* \"#utility.yul\":11205:11223   */\n      tag_215\n      tag_89\n      jump\t// in\n    tag_215:\n        /* \"#utility.yul\":11149:11233   */\n    tag_214:\n        /* \"#utility.yul\":10970:11239   */\n      pop\n        /* \"#utility.yul\":10919:11239   */\n      swap2\n      swap1\n      pop\n      jump\t// out\n        /* \"#utility.yul\":11245:11386   */\n    tag_90:\n        /* \"#utility.yul\":11294:11298   */\n      0x00\n        /* \"#utility.yul\":11317:11320   */\n      dup2\n        /* \"#utility.yul\":11309:11320   */\n      swap1\n      pop\n        /* \"#utility.yul\":11340:11343   */\n      dup2\n        /* \"#utility.yul\":11337:11338   */\n      0x00\n        /* \"#utility.yul\":11330:11344   */\n      mstore\n        /* \"#utility.yul\":11374:11378   */\n      0x20\n        /* \"#utility.yul\":11371:11372   */\n      0x00\n        /* \"#utility.yul\":11361:11379   */\n      keccak256\n        /* \"#utility.yul\":11353:11379   */\n      swap1\n      pop\n        /* \"#utility.yul\":11245:11386   */\n      swap2\n      swap1\n      pop\n      jump\t// out\n        /* \"#utility.yul\":11392:11485   */\n    tag_91:\n        /* \"#utility.yul\":11429:11435   */\n      0x00\n        /* \"#utility.yul\":11476:11478   */\n      0x20\n        /* \"#utility.yul\":11471:11473   */\n      0x1f\n        /* \"#utility.yul\":11464:11469   */\n      dup4\n        /* \"#utility.yul\":11460:11474   */\n      add\n        /* \"#utility.yul\":11456:11479   */\n      div\n        /* \"#utility.yul\":11446:11479   */\n      swap1\n      pop\n        /* \"#utility.yul\":11392:11485   */\n      swap2\n      swap1\n      pop\n      jump\t// out\n        /* \"#utility.yul\":11491:11598   */\n    tag_92:\n        /* \"#utility.yul\":11535:11543   */\n      0x00\n        /* \"#utility.yul\":11585:11590   */\n      dup3\n        /* \"#utility.yul\":11579:11583   */\n      dup3\n        /* \"#utility.yul\":11575:11591   */\n      shl\n        /* \"#utility.yul\":11554:11591   */\n      swap1\n      pop\n        /* \"#utility.yul\":11491:11598   */\n      swap3\n      swap2\n      pop\n      pop\n      jump\t// out\n        /* \"#utility.yul\":11604:11997   */\n    tag_93:\n        /* \"#utility.yul\":11673:11679   */\n      0x00\n        /* \"#utility.yul\":11723:11724   */\n      0x08\n        /* \"#utility.yul\":11711:11721   */\n      dup4\n        /* \"#utility.yul\":11707:11725   */\n      mul\n        /* \"#utility.yul\":11746:11843   */\n      tag_220\n        /* \"#utility.yul\":11776:11842   */\n      0xffffffffffffffffffffffffffffffffffffffffffffffffffffffffffffffff\n        /* \"#utility.yul\":11765:11774   */\n      dup3\n        /* \"#utility.yul\":11746:11843   */\n      tag_92\n      jump\t// in\n    tag_220:\n        /* \"#utility.yul\":11864:11903   */\n      tag_221\n        /* \"#utility.yul\":11894:11902   */\n      dup7\n        /* \"#utility.yul\":11883:11892   */\n      dup4\n        /* \"#utility.yul\":11864:11903   */\n      tag_92\n      jump\t// in\n    tag_221:\n        /* \"#utility.yul\":11852:11903   */\n      swap6\n      pop\n        /* \"#utility.yul\":11936:11940   */\n      dup1\n        /* \"#utility.yul\":11932:11941   */\n      not\n        /* \"#utility.yul\":11925:11930   */\n      dup5\n        /* \"#utility.yul\":11921:11942   */\n      and\n        /* \"#utility.yul\":11912:11942   */\n      swap4\n      pop\n        /* \"#utility.yul\":11985:11989   */\n      dup1\n        /* \"#utility.yul\":11975:11983   */\n      dup7\n        /* \"#utility.yul\":11971:11990   */\n      and\n        /* \"#utility.yul\":11964:11969   */\n      dup5\n        /* \"#utility.yul\":11961:11991   */\n      or\n        /* \"#utility.yul\":11951:11991   */\n      swap3\n      pop\n        /* \"#utility.yul\":11680:11997   */\n      pop\n      pop\n        /* \"#utility.yul\":11604:11997   */\n      swap4\n      swap3\n      pop\n      pop\n      pop\n      jump\t// out\n        /* \"#utility.yul\":12003:12063   */\n    tag_94:\n        /* \"#utility.yul\":12031:12034   */\n      0x00\n        /* \"#utility.yul\":12052:12057   */\n      dup2\n        /* \"#utility.yul\":12045:12057   */\n      swap1\n      pop\n        /* \"#utility.yul\":12003:12063   */\n      swap2\n      swap1\n      pop\n      jump\t// out\n        /* \"#utility.yul\":12069:12211   */\n    tag_95:\n        /* \"#utility.yul\":12119:12128   */\n      0x00\n        /* \"#utility.yul\":12152:12205   */\n      tag_224\n        /* \"#utility.yul\":12170:12204   */\n      tag_225\n        /* \"#utility.yul\":12179:12203   */\n      tag_226\n        /* \"#utility.yul\":12197:12202   */\n      dup5\n        /* \"#utility.yul\":12179:12203   */\n      tag_66\n      jump\t// in\n    tag_226:\n        /* \"#utility.yul\":12170:12204   */\n      tag_94\n      jump\t// in\n    tag_225:\n        /* \"#utility.yul\":12152:12205   */\n      tag_66\n      jump\t// in\n    tag_224:\n        /* \"#utility.yul\":12139:12205   */\n      swap1\n      pop\n        /* \"#utility.yul\":12069:12211   */\n      swap2\n      swap1\n      pop\n      jump\t// out\n        /* \"#utility.yul\":12217:12292   */\n    tag_96:\n        /* \"#utility.yul\":12260:12263   */\n      0x00\n        /* \"#utility.yul\":12281:12286   */\n      dup2\n        /* \"#utility.yul\":12274:12286   */\n      swap1\n      pop\n        /* \"#utility.yul\":12217:12292   */\n      swap2\n      swap1\n      pop\n      jump\t// out\n        /* \"#utility.yul\":12298:12567   */\n    tag_97:\n        /* \"#utility.yul\":12408:12447   */\n      tag_229\n        /* \"#utility.yul\":12439:12446   */\n      dup4\n        /* \"#utility.yul\":12408:12447   */\n      tag_95\n      jump\t// in\n    tag_229:\n        /* \"#utility.yul\":12469:12560   */\n      tag_230\n        /* \"#utility.yul\":12518:12559   */\n      tag_231\n        /* \"#utility.yul\":12542:12558   */\n      dup3\n        /* \"#utility.yul\":12518:12559   */\n      tag_96\n      jump\t// in\n    tag_231:\n        /* \"#utility.yul\":12510:12516   */\n      dup5\n        /* \"#utility.yul\":12503:12507   */\n      dup5\n        /* \"#utility.yul\":12497:12508   */\n      sload\n        /* \"#utility.yul\":12469:12560   */\n      tag_93\n      jump\t// in\n    tag_230:\n        /* \"#utility.yul\":12463:12467   */\n      dup3\n        /* \"#utility.yul\":12456:12561   */\n      sstore\n        /* \"#utility.yul\":12374:12567   */\n      pop\n        /* \"#utility.yul\":12298:12567   */\n      pop\n      pop\n      pop\n      jump\t// out\n        /* \"#utility.yul\":12573:12646   */\n    tag_98:\n        /* \"#utility.yul\":12618:12621   */\n      0x00\n        /* \"#utility.yul\":12573:12646   */\n      swap1\n      jump\t// out\n        /* \"#utility.yul\":12652:12841   */\n    tag_99:\n        /* \"#utility.yul\":12729:12761   */\n      tag_234\n      tag_98\n      jump\t// in\n    tag_234:\n        /* \"#utility.yul\":12770:12835   */\n      tag_235\n        /* \"#utility.yul\":12828:12834   */\n      dup2\n        /* \"#utility.yul\":12820:12826   */\n      dup5\n        /* \"#utility.yul\":12814:12818   */\n      dup5\n        /* \"#utility.yul\":12770:12835   */\n      tag_97\n      jump\t// in\n    tag_235:\n        /* \"#utility.yul\":12705:12841   */\n      pop\n        /* \"#utility.yul\":12652:12841   */\n      pop\n      pop\n      jump\t// out\n        /* \"#utility.yul\":12847:13033   */\n    tag_100:\n        /* \"#utility.yul\":12907:13027   */\n    tag_237:\n        /* \"#utility.yul\":12924:12927   */\n      dup2\n        /* \"#utility.yul\":12917:12922   */\n      dup2\n        /* \"#utility.yul\":12914:12928   */\n      lt\n        /* \"#utility.yul\":12907:13027   */\n      iszero\n      tag_239\n      jumpi\n        /* \"#utility.yul\":12978:13017   */\n      tag_240\n        /* \"#utility.yul\":13015:13016   */\n      0x00\n        /* \"#utility.yul\":13008:13013   */\n      dup3\n        /* \"#utility.yul\":12978:13017   */\n      tag_99\n      jump\t// in\n    tag_240:\n        /* \"#utility.yul\":12951:12952   */\n      0x01\n        /* \"#utility.yul\":12944:12949   */\n      dup2\n        /* \"#utility.yul\":12940:12953   */\n      add\n        /* \"#utility.yul\":12931:12953   */\n      swap1\n      pop\n        /* \"#utility.yul\":12907:13027   */\n      jump(tag_237)\n    tag_239:\n        /* \"#utility.yul\":12847:13033   */\n      pop\n      pop\n      jump\t// out\n        /* \"#utility.yul\":13039:13582   */\n    tag_101:\n        /* \"#utility.yul\":13140:13142   */\n      0x1f\n        /* \"#utility.yul\":13135:13138   */\n      dup3\n        /* \"#utility.yul\":13132:13143   */\n      gt\n        /* \"#utility.yul\":13129:13575   */\n      iszero\n      tag_242\n      jumpi\n        /* \"#utility.yul\":13174:13212   */\n      tag_243\n        /* \"#utility.yul\":13206:13211   */\n      dup2\n        /* \"#utility.yul\":13174:13212   */\n      tag_90\n      jump\t// in\n    tag_243:\n        /* \"#utility.yul\":13258:13287   */\n      tag_244\n        /* \"#utility.yul\":13276:13286   */\n      dup5\n        /* \"#utility.yul\":13258:13287   */\n      tag_91\n      jump\t// in\n    tag_244:\n        /* \"#utility.yul\":13248:13256   */\n      dup2\n        /* \"#utility.yul\":13244:13288   */\n      add\n        /* \"#utility.yul\":13441:13443   */\n      0x20\n        /* \"#utility.yul\":13429:13439   */\n      dup6\n        /* \"#utility.yul\":13426:13444   */\n      lt\n        /* \"#utility.yul\":13423:13472   */\n      iszero\n      tag_245\n      jumpi\n        /* \"#utility.yul\":13462:13470   */\n      dup2\n        /* \"#utility.yul\":13447:13470   */\n      swap1\n      pop\n        /* \"#utility.yul\":13423:13472   */\n    tag_245:\n        /* \"#utility.yul\":13485:13565   */\n      tag_246\n        /* \"#utility.yul\":13541:13563   */\n      tag_247\n        /* \"#utility.yul\":13559:13562   */\n      dup6\n        /* \"#utility.yul\":13541:13563   */\n      tag_91\n      jump\t// in\n    tag_247:\n        /* \"#utility.yul\":13531:13539   */\n      dup4\n        /* \"#utility.yul\":13527:13564   */\n      add\n        /* \"#utility.yul\":13514:13525   */\n      dup3\n        /* \"#utility.yul\":13485:13565   */\n      tag_100\n      jump\t// in\n    tag_246:\n        /* \"#utility.yul\":13144:13575   */\n      pop\n      pop\n        /* \"#utility.yul\":13129:13575   */\n    tag_242:\n        /* \"#utility.yul\":13039:13582   */\n      pop\n      pop\n      pop\n      jump\t// out\n        /* \"#utility.yul\":13588:13705   */\n    tag_102:\n        /* \"#utility.yul\":13642:13650   */\n      0x00\n        /* \"#utility.yul\":13692:13697   */\n      dup3\n        /* \"#utility.yul\":13686:13690   */\n      dup3\n        /* \"#utility.yul\":13682:13698   */\n      shr\n        /* \"#utility.yul\":13661:13698   */\n      swap1\n      pop\n        /* \"#utility.yul\":13588:13705   */\n      swap3\n      swap2\n      pop\n      pop\n      jump\t// out\n        /* \"#utility.yul\":13711:13880   */\n    tag_103:\n        /* \"#utility.yul\":13755:13761   */\n      0x00\n        /* \"#utility.yul\":13788:13839   */\n      tag_250\n        /* \"#utility.yul\":13836:13837   */\n      0x00\n        /* \"#utility.yul\":13832:13838   */\n      not\n        /* \"#utility.yul\":13824:13829   */\n      dup5\n        /* \"#utility.yul\":13821:13822   */\n      0x08\n        /* \"#utility.yul\":13817:13830   */\n      mul\n        /* \"#utility.yul\":13788:13839   */\n      tag_102\n      jump\t// in\n    tag_250:\n        /* \"#utility.yul\":13784:13840   */\n      not\n        /* \"#utility.yul\":13869:13873   */\n      dup1\n        /* \"#utility.yul\":13863:13867   */\n      dup4\n        /* \"#utility.yul\":13859:13874   */\n      and\n        /* \"#utility.yul\":13849:13874   */\n      swap2\n      pop\n        /* \"#utility.yul\":13762:13880   */\n      pop\n        /* \"#utility.yul\":13711:13880   */\n      swap3\n      swap2\n      pop\n      pop\n      jump\t// out\n        /* \"#utility.yul\":13885:14180   */\n    tag_104:\n        /* \"#utility.yul\":13961:13965   */\n      0x00\n        /* \"#utility.yul\":14107:14136   */\n      tag_252\n        /* \"#utility.yul\":14132:14135   */\n      dup4\n        /* \"#utility.yul\":14126:14130   */\n      dup4\n        /* \"#utility.yul\":14107:14136   */\n      tag_103\n      jump\t// in\n    tag_252:\n        /* \"#utility.yul\":14099:14136   */\n      swap2\n      pop\n        /* \"#utility.yul\":14169:14172   */\n      dup3\n        /* \"#utility.yul\":14166:14167   */\n      0x02\n        /* \"#utility.yul\":14162:14173   */\n      mul\n        /* \"#utility.yul\":14156:14160   */\n      dup3\n        /* \"#utility.yul\":14153:14174   */\n      or\n        /* \"#utility.yul\":14145:14174   */\n      swap1\n      pop\n        /* \"#utility.yul\":13885:14180   */\n      swap3\n      swap2\n      pop\n      pop\n      jump\t// out\n        /* \"#utility.yul\":14185:15580   */\n    tag_28:\n        /* \"#utility.yul\":14302:14339   */\n      tag_254\n        /* \"#utility.yul\":14335:14338   */\n      dup3\n        /* \"#utility.yul\":14302:14339   */\n      tag_75\n      jump\t// in\n    tag_254:\n        /* \"#utility.yul\":14404:14422   */\n      0xffffffffffffffff\n        /* \"#utility.yul\":14396:14402   */\n      dup2\n        /* \"#utility.yul\":14393:14423   */\n      gt\n        /* \"#utility.yul\":14390:14446   */\n      iszero\n      tag_255\n      jumpi\n        /* \"#utility.yul\":14426:14444   */\n      tag_256\n      tag_59\n      jump\t// in\n    tag_256:\n        /* \"#utility.yul\":14390:14446   */\n    tag_255:\n        /* \"#utility.yul\":14470:14508   */\n      tag_257\n        /* \"#utility.yul\":14502:14506   */\n      dup3\n        /* \"#utility.yul\":14496:14507   */\n      sload\n        /* \"#utility.yul\":14470:14508   */\n      tag_40\n      jump\t// in\n    tag_257:\n        /* \"#utility.yul\":14555:14622   */\n      tag_258\n        /* \"#utility.yul\":14615:14621   */\n      dup3\n        /* \"#utility.yul\":14607:14613   */\n      dup3\n        /* \"#utility.yul\":14601:14605   */\n      dup6\n        /* \"#utility.yul\":14555:14622   */\n      tag_101\n      jump\t// in\n    tag_258:\n        /* \"#utility.yul\":14649:14650   */\n      0x00\n        /* \"#utility.yul\":14673:14677   */\n      0x20\n        /* \"#utility.yul\":14660:14677   */\n      swap1\n      pop\n        /* \"#utility.yul\":14705:14707   */\n      0x1f\n        /* \"#utility.yul\":14697:14703   */\n      dup4\n        /* \"#utility.yul\":14694:14708   */\n      gt\n        /* \"#utility.yul\":14722:14723   */\n      0x01\n        /* \"#utility.yul\":14717:15335   */\n      dup2\n      eq\n      tag_260\n      jumpi\n        /* \"#utility.yul\":15379:15380   */\n      0x00\n        /* \"#utility.yul\":15396:15402   */\n      dup5\n        /* \"#utility.yul\":15393:15470   */\n      iszero\n      tag_261\n      jumpi\n        /* \"#utility.yul\":15445:15454   */\n      dup3\n        /* \"#utility.yul\":15440:15443   */\n      dup8\n        /* \"#utility.yul\":15436:15455   */\n      add\n        /* \"#utility.yul\":15430:15456   */\n      mload\n        /* \"#utility.yul\":15421:15456   */\n      swap1\n      pop\n        /* \"#utility.yul\":15393:15470   */\n    tag_261:\n        /* \"#utility.yul\":15496:15563   */\n      tag_262\n        /* \"#utility.yul\":15556:15562   */\n      dup6\n        /* \"#utility.yul\":15549:15554   */\n      dup3\n        /* \"#utility.yul\":15496:15563   */\n      tag_104\n      jump\t// in\n    tag_262:\n        /* \"#utility.yul\":15490:15494   */\n      dup7\n        /* \"#utility.yul\":15483:15564   */\n      sstore\n        /* \"#utility.yul\":15352:15574   */\n      pop\n        /* \"#utility.yul\":14687:15574   */\n      jump(tag_259)\n        /* \"#utility.yul\":14717:15335   */\n    tag_260:\n        /* \"#utility.yul\":14769:14773   */\n      0x1f\n        /* \"#utility.yul\":14765:14774   */\n      not\n        /* \"#utility.yul\":14757:14763   */\n      dup5\n        /* \"#utility.yul\":14753:14775   */\n      and\n        /* \"#utility.yul\":14803:14840   */\n      tag_263\n        /* \"#utility.yul\":14835:14839   */\n      dup7\n        /* \"#utility.yul\":14803:14840   */\n      tag_90\n      jump\t// in\n    tag_263:\n        /* \"#utility.yul\":14862:14863   */\n      0x00\n        /* \"#utility.yul\":14876:15084   */\n    tag_264:\n        /* \"#utility.yul\":14890:14897   */\n      dup3\n        /* \"#utility.yul\":14887:14888   */\n      dup2\n        /* \"#utility.yul\":14884:14898   */\n      lt\n        /* \"#utility.yul\":14876:15084   */\n      iszero\n      tag_266\n      jumpi\n        /* \"#utility.yul\":14969:14978   */\n      dup5\n        /* \"#utility.yul\":14964:14967   */\n      dup10\n        /* \"#utility.yul\":14960:14979   */\n      add\n        /* \"#utility.yul\":14954:14980   */\n      mload\n        /* \"#utility.yul\":14946:14952   */\n      dup3\n        /* \"#utility.yul\":14939:14981   */\n      sstore\n        /* \"#utility.yul\":15020:15021   */\n      0x01\n        /* \"#utility.yul\":15012:15018   */\n      dup3\n        /* \"#utility.yul\":15008:15022   */\n      add\n        /* \"#utility.yul\":14998:15022   */\n      swap2\n      pop\n        /* \"#utility.yul\":15067:15069   */\n      0x20\n        /* \"#utility.yul\":15056:15065   */\n      dup6\n        /* \"#utility.yul\":15052:15070   */\n      add\n        /* \"#utility.yul\":15039:15070   */\n      swap5\n      pop\n        /* \"#utility.yul\":14913:14917   */\n      0x20\n        /* \"#utility.yul\":14910:14911   */\n      dup2\n        /* \"#utility.yul\":14906:14918   */\n      add\n        /* \"#utility.yul\":14901:14918   */\n      swap1\n      pop\n        /* \"#utility.yul\":14876:15084   */\n      jump(tag_264)\n    tag_266:\n        /* \"#utility.yul\":15112:15118   */\n      dup7\n        /* \"#utility.yul\":15103:15110   */\n      dup4\n        /* \"#utility.yul\":15100:15119   */\n      lt\n        /* \"#utility.yul\":15097:15276   */\n      iszero\n      tag_267\n      jumpi\n        /* \"#utility.yul\":15170:15179   */\n      dup5\n        /* \"#utility.yul\":15165:15168   */\n      dup10\n        /* \"#utility.yul\":15161:15180   */\n      add\n        /* \"#utility.yul\":15155:15181   */\n      mload\n        /* \"#utility.yul\":15213:15261   */\n      tag_268\n        /* \"#utility.yul\":15255:15259   */\n      0x1f\n        /* \"#utility.yul\":15247:15253   */\n      dup10\n        /* \"#utility.yul\":15243:15260   */\n      and\n        /* \"#utility.yul\":15232:15241   */\n      dup3\n        /* \"#utility.yul\":15213:15261   */\n      tag_103\n      jump\t// in\n    tag_268:\n        /* \"#utility.yul\":15205:15211   */\n      dup4\n        /* \"#utility.yul\":15198:15262   */\n      sstore\n        /* \"#utility.yul\":15120:15276   */\n      pop\n        /* \"#utility.yul\":15097:15276   */\n    tag_267:\n        /* \"#utility.yul\":15322:15323   */\n      0x01\n        /* \"#utility.yul\":15318:15319   */\n      0x02\n        /* \"#utility.yul\":15310:15316   */\n      dup9\n        /* \"#utility.yul\":15306:15320   */\n      mul\n        /* \"#utility.yul\":15302:15324   */\n      add\n        /* \"#utility.yul\":15296:15300   */\n      dup9\n        /* \"#utility.yul\":15289:15325   */\n      sstore\n        /* \"#utility.yul\":14724:15335   */\n      pop\n      pop\n      pop\n        /* \"#utility.yul\":14687:15574   */\n    tag_259:\n      pop\n        /* \"#utility.yul\":14277:15580   */\n      pop\n      pop\n      pop\n        /* \"#utility.yul\":14185:15580   */\n      pop\n      pop\n      jump\t// out\n\n    auxdata: 0xa264697066735822122009f9f6f0febd530ebb2cd9fc6ebe91831770f0c4ada62bfa51f6ab66c8f21d3564736f6c634300081a0033\n}\n",
				"bytecode": {
					"linkReferences": {},
					"object": "6080604052348015600e575f80fd5b50610ceb8061001c5f395ff3fe608060405234801561000f575f80fd5b506004361061004a575f3560e01c8063399046991461004e5780634176c1401461006a578063495a0487146100885780636b44374d146100a6575b5f80fd5b610068600480360381019061006391906106bf565b6100d9565b005b6100726102f4565b60405161007f91906108d8565b60405180910390f35b61009061040c565b60405161009d9190610907565b60405180910390f35b6100c060048036038101906100bb9190610920565b610417565b6040516100d094939291906109a2565b60405180910390f35b5f6040518060800160405280868152602001858152602001848152602001831515815250908060018154018082558091505060019003905f5260205f2090600402015f909190919091505f820151815f0190816101369190610be6565b5060208201518160010155604082015181600201556060820151816003015f6101000a81548160ff02191690831515021790555050505f60405180608001604052806040518060400160405280600381526020017f31323300000000000000000000000000000000000000000000000000000000008152508152602001600181526020016002815260200160011515815250908060018154018082558091505060019003905f5260205f2090600402015f909190919091505f820151815f0190816102019190610be6565b5060208201518160010155604082015181600201556060820151816003015f6101000a81548160ff021916908315150217905550505061023f6104e3565b6040518060400160405280600381526020017f3132330000000000000000000000000000000000000000000000000000000000815250815f01819052505f81908060018154018082558091505060019003905f5260205f2090600402015f909190919091505f820151815f0190816102b79190610be6565b5060208201518160010155604082015181600201556060820151816003015f6101000a81548160ff02191690831515021790555050505050505050565b60605f805480602002602001604051908101604052809291908181526020015f905b82821015610403578382905f5260205f2090600402016040518060800160405290815f8201805461034690610a19565b80601f016020809104026020016040519081016040528092919081815260200182805461037290610a19565b80156103bd5780601f10610394576101008083540402835291602001916103bd565b820191905f5260205f20905b8154815290600101906020018083116103a057829003601f168201915b505050505081526020016001820154815260200160028201548152602001600382015f9054906101000a900460ff16151515158152505081526020019060010190610316565b50505050905090565b5f8080549050905090565b5f8181548110610425575f80fd5b905f5260205f2090600402015f91509050805f01805461044490610a19565b80601f016020809104026020016040519081016040528092919081815260200182805461047090610a19565b80156104bb5780601f10610492576101008083540402835291602001916104bb565b820191905f5260205f20905b81548152906001019060200180831161049e57829003601f168201915b505050505090806001015490806002015490806003015f9054906101000a900460ff16905084565b6040518060800160405280606081526020015f81526020015f81526020015f151581525090565b5f604051905090565b5f80fd5b5f80fd5b5f80fd5b5f80fd5b5f601f19601f8301169050919050565b7f4e487b71000000000000000000000000000000000000000000000000000000005f52604160045260245ffd5b61056982610523565b810181811067ffffffffffffffff8211171561058857610587610533565b5b80604052505050565b5f61059a61050a565b90506105a68282610560565b919050565b5f67ffffffffffffffff8211156105c5576105c4610533565b5b6105ce82610523565b9050602081019050919050565b828183375f83830152505050565b5f6105fb6105f6846105ab565b610591565b9050828152602081018484840111156106175761061661051f565b5b6106228482856105db565b509392505050565b5f82601f83011261063e5761063d61051b565b5b813561064e8482602086016105e9565b91505092915050565b5f819050919050565b61066981610657565b8114610673575f80fd5b50565b5f8135905061068481610660565b92915050565b5f8115159050919050565b61069e8161068a565b81146106a8575f80fd5b50565b5f813590506106b981610695565b92915050565b5f805f80608085870312156106d7576106d6610513565b5b5f85013567ffffffffffffffff8111156106f4576106f3610517565b5b6107008782880161062a565b945050602061071187828801610676565b935050604061072287828801610676565b9250506060610733878288016106ab565b91505092959194509250565b5f81519050919050565b5f82825260208201905092915050565b5f819050602082019050919050565b5f81519050919050565b5f82825260208201905092915050565b8281835e5f83830152505050565b5f61079a82610768565b6107a48185610772565b93506107b4818560208601610782565b6107bd81610523565b840191505092915050565b6107d181610657565b82525050565b6107e08161068a565b82525050565b5f608083015f8301518482035f8601526108008282610790565b915050602083015161081560208601826107c8565b50604083015161082860408601826107c8565b50606083015161083b60608601826107d7565b508091505092915050565b5f61085183836107e6565b905092915050565b5f602082019050919050565b5f61086f8261073f565b6108798185610749565b93508360208202850161088b85610759565b805f5b858110156108c657848403895281516108a78582610846565b94506108b283610859565b925060208a0199505060018101905061088e565b50829750879550505050505092915050565b5f6020820190508181035f8301526108f08184610865565b905092915050565b61090181610657565b82525050565b5f60208201905061091a5f8301846108f8565b92915050565b5f6020828403121561093557610934610513565b5b5f61094284828501610676565b91505092915050565b5f82825260208201905092915050565b5f61096582610768565b61096f818561094b565b935061097f818560208601610782565b61098881610523565b840191505092915050565b61099c8161068a565b82525050565b5f6080820190508181035f8301526109ba818761095b565b90506109c960208301866108f8565b6109d660408301856108f8565b6109e36060830184610993565b95945050505050565b7f4e487b71000000000000000000000000000000000000000000000000000000005f52602260045260245ffd5b5f6002820490506001821680610a3057607f821691505b602082108103610a4357610a426109ec565b5b50919050565b5f819050815f5260205f209050919050565b5f6020601f8301049050919050565b5f82821b905092915050565b5f60088302610aa57fffffffffffffffffffffffffffffffffffffffffffffffffffffffffffffffff82610a6a565b610aaf8683610a6a565b95508019841693508086168417925050509392505050565b5f819050919050565b5f610aea610ae5610ae084610657565b610ac7565b610657565b9050919050565b5f819050919050565b610b0383610ad0565b610b17610b0f82610af1565b848454610a76565b825550505050565b5f90565b610b2b610b1f565b610b36818484610afa565b505050565b5b81811015610b5957610b4e5f82610b23565b600181019050610b3c565b5050565b601f821115610b9e57610b6f81610a49565b610b7884610a5b565b81016020851015610b87578190505b610b9b610b9385610a5b565b830182610b3b565b50505b505050565b5f82821c905092915050565b5f610bbe5f1984600802610ba3565b1980831691505092915050565b5f610bd68383610baf565b9150826002028217905092915050565b610bef82610768565b67ffffffffffffffff811115610c0857610c07610533565b5b610c128254610a19565b610c1d828285610b5d565b5f60209050601f831160018114610c4e575f8415610c3c578287015190505b610c468582610bcb565b865550610cad565b601f198416610c5c86610a49565b5f5b82811015610c8357848901518255600182019150602085019450602081019050610c5e565b86831015610ca05784890151610c9c601f891682610baf565b8355505b6001600288020188555050505b50505050505056fea264697066735822122009f9f6f0febd530ebb2cd9fc6ebe91831770f0c4ada62bfa51f6ab66c8f21d3564736f6c634300081a0033",
					"opcodes": "PUSH1 0x80 PUSH1 0x40 MSTORE CALLVALUE DUP1 ISZERO PUSH1 0xE JUMPI PUSH0 DUP1 REVERT JUMPDEST POP PUSH2 0xCEB DUP1 PUSH2 0x1C PUSH0 CODECOPY PUSH0 RETURN INVALID PUSH1 0x80 PUSH1 0x40 MSTORE CALLVALUE DUP1 ISZERO PUSH2 0xF JUMPI PUSH0 DUP1 REVERT JUMPDEST POP PUSH1 0x4 CALLDATASIZE LT PUSH2 0x4A JUMPI PUSH0 CALLDATALOAD PUSH1 0xE0 SHR DUP1 PUSH4 0x39904699 EQ PUSH2 0x4E JUMPI DUP1 PUSH4 0x4176C140 EQ PUSH2 0x6A JUMPI DUP1 PUSH4 0x495A0487 EQ PUSH2 0x88 JUMPI DUP1 PUSH4 0x6B44374D EQ PUSH2 0xA6 JUMPI JUMPDEST PUSH0 DUP1 REVERT JUMPDEST PUSH2 0x68 PUSH1 0x4 DUP1 CALLDATASIZE SUB DUP2 ADD SWAP1 PUSH2 0x63 SWAP2 SWAP1 PUSH2 0x6BF JUMP JUMPDEST PUSH2 0xD9 JUMP JUMPDEST STOP JUMPDEST PUSH2 0x72 PUSH2 0x2F4 JUMP JUMPDEST PUSH1 0x40 MLOAD PUSH2 0x7F SWAP2 SWAP1 PUSH2 0x8D8 JUMP JUMPDEST PUSH1 0x40 MLOAD DUP1 SWAP2 SUB SWAP1 RETURN JUMPDEST PUSH2 0x90 PUSH2 0x40C JUMP JUMPDEST PUSH1 0x40 MLOAD PUSH2 0x9D SWAP2 SWAP1 PUSH2 0x907 JUMP JUMPDEST PUSH1 0x40 MLOAD DUP1 SWAP2 SUB SWAP1 RETURN JUMPDEST PUSH2 0xC0 PUSH1 0x4 DUP1 CALLDATASIZE SUB DUP2 ADD SWAP1 PUSH2 0xBB SWAP2 SWAP1 PUSH2 0x920 JUMP JUMPDEST PUSH2 0x417 JUMP JUMPDEST PUSH1 0x40 MLOAD PUSH2 0xD0 SWAP5 SWAP4 SWAP3 SWAP2 SWAP1 PUSH2 0x9A2 JUMP JUMPDEST PUSH1 0x40 MLOAD DUP1 SWAP2 SUB SWAP1 RETURN JUMPDEST PUSH0 PUSH1 0x40 MLOAD DUP1 PUSH1 0x80 ADD PUSH1 0x40 MSTORE DUP1 DUP7 DUP2 MSTORE PUSH1 0x20 ADD DUP6 DUP2 MSTORE PUSH1 0x20 ADD DUP5 DUP2 MSTORE PUSH1 0x20 ADD DUP4 ISZERO ISZERO DUP2 MSTORE POP SWAP1 DUP1 PUSH1 0x1 DUP2 SLOAD ADD DUP1 DUP3 SSTORE DUP1 SWAP2 POP POP PUSH1 0x1 SWAP1 SUB SWAP1 PUSH0 MSTORE PUSH1 0x20 PUSH0 KECCAK256 SWAP1 PUSH1 0x4 MUL ADD PUSH0 SWAP1 SWAP2 SWAP1 SWAP2 SWAP1 SWAP2 POP PUSH0 DUP3 ADD MLOAD DUP2 PUSH0 ADD SWAP1 DUP2 PUSH2 0x136 SWAP2 SWAP1 PUSH2 0xBE6 JUMP JUMPDEST POP PUSH1 0x20 DUP3 ADD MLOAD DUP2 PUSH1 0x1 ADD SSTORE PUSH1 0x40 DUP3 ADD MLOAD DUP2 PUSH1 0x2 ADD SSTORE PUSH1 0x60 DUP3 ADD MLOAD DUP2 PUSH1 0x3 ADD PUSH0 PUSH2 0x100 EXP DUP2 SLOAD DUP2 PUSH1 0xFF MUL NOT AND SWAP1 DUP4 ISZERO ISZERO MUL OR SWAP1 SSTORE POP POP POP PUSH0 PUSH1 0x40 MLOAD DUP1 PUSH1 0x80 ADD PUSH1 0x40 MSTORE DUP1 PUSH1 0x40 MLOAD DUP1 PUSH1 0x40 ADD PUSH1 0x40 MSTORE DUP1 PUSH1 0x3 DUP2 MSTORE PUSH1 0x20 ADD PUSH32 0x3132330000000000000000000000000000000000000000000000000000000000 DUP2 MSTORE POP DUP2 MSTORE PUSH1 0x20 ADD PUSH1 0x1 DUP2 MSTORE PUSH1 0x20 ADD PUSH1 0x2 DUP2 MSTORE PUSH1 0x20 ADD PUSH1 0x1 ISZERO ISZERO DUP2 MSTORE POP SWAP1 DUP1 PUSH1 0x1 DUP2 SLOAD ADD DUP1 DUP3 SSTORE DUP1 SWAP2 POP POP PUSH1 0x1 SWAP1 SUB SWAP1 PUSH0 MSTORE PUSH1 0x20 PUSH0 KECCAK256 SWAP1 PUSH1 0x4 MUL ADD PUSH0 SWAP1 SWAP2 SWAP1 SWAP2 SWAP1 SWAP2 POP PUSH0 DUP3 ADD MLOAD DUP2 PUSH0 ADD SWAP1 DUP2 PUSH2 0x201 SWAP2 SWAP1 PUSH2 0xBE6 JUMP JUMPDEST POP PUSH1 0x20 DUP3 ADD MLOAD DUP2 PUSH1 0x1 ADD SSTORE PUSH1 0x40 DUP3 ADD MLOAD DUP2 PUSH1 0x2 ADD SSTORE PUSH1 0x60 DUP3 ADD MLOAD DUP2 PUSH1 0x3 ADD PUSH0 PUSH2 0x100 EXP DUP2 SLOAD DUP2 PUSH1 0xFF MUL NOT AND SWAP1 DUP4 ISZERO ISZERO MUL OR SWAP1 SSTORE POP POP POP PUSH2 0x23F PUSH2 0x4E3 JUMP JUMPDEST PUSH1 0x40 MLOAD DUP1 PUSH1 0x40 ADD PUSH1 0x40 MSTORE DUP1 PUSH1 0x3 DUP2 MSTORE PUSH1 0x20 ADD PUSH32 0x3132330000000000000000000000000000000000000000000000000000000000 DUP2 MSTORE POP DUP2 PUSH0 ADD DUP2 SWAP1 MSTORE POP PUSH0 DUP2 SWAP1 DUP1 PUSH1 0x1 DUP2 SLOAD ADD DUP1 DUP3 SSTORE DUP1 SWAP2 POP POP PUSH1 0x1 SWAP1 SUB SWAP1 PUSH0 MSTORE PUSH1 0x20 PUSH0 KECCAK256 SWAP1 PUSH1 0x4 MUL ADD PUSH0 SWAP1 SWAP2 SWAP1 SWAP2 SWAP1 SWAP2 POP PUSH0 DUP3 ADD MLOAD DUP2 PUSH0 ADD SWAP1 DUP2 PUSH2 0x2B7 SWAP2 SWAP1 PUSH2 0xBE6 JUMP JUMPDEST POP PUSH1 0x20 DUP3 ADD MLOAD DUP2 PUSH1 0x1 ADD SSTORE PUSH1 0x40 DUP3 ADD MLOAD DUP2 PUSH1 0x2 ADD SSTORE PUSH1 0x60 DUP3 ADD MLOAD DUP2 PUSH1 0x3 ADD PUSH0 PUSH2 0x100 EXP DUP2 SLOAD DUP2 PUSH1 0xFF MUL NOT AND SWAP1 DUP4 ISZERO ISZERO MUL OR SWAP1 SSTORE POP POP POP POP POP POP POP POP JUMP JUMPDEST PUSH1 0x60 PUSH0 DUP1 SLOAD DUP1 PUSH1 0x20 MUL PUSH1 0x20 ADD PUSH1 0x40 MLOAD SWAP1 DUP2 ADD PUSH1 0x40 MSTORE DUP1 SWAP3 SWAP2 SWAP1 DUP2 DUP2 MSTORE PUSH1 0x20 ADD PUSH0 SWAP1 JUMPDEST DUP3 DUP3 LT ISZERO PUSH2 0x403 JUMPI DUP4 DUP3 SWAP1 PUSH0 MSTORE PUSH1 0x20 PUSH0 KECCAK256 SWAP1 PUSH1 0x4 MUL ADD PUSH1 0x40 MLOAD DUP1 PUSH1 0x80 ADD PUSH1 0x40 MSTORE SWAP1 DUP2 PUSH0 DUP3 ADD DUP1 SLOAD PUSH2 0x346 SWAP1 PUSH2 0xA19 JUMP JUMPDEST DUP1 PUSH1 0x1F ADD PUSH1 0x20 DUP1 SWAP2 DIV MUL PUSH1 0x20 ADD PUSH1 0x40 MLOAD SWAP1 DUP2 ADD PUSH1 0x40 MSTORE DUP1 SWAP3 SWAP2 SWAP1 DUP2 DUP2 MSTORE PUSH1 0x20 ADD DUP3 DUP1 SLOAD PUSH2 0x372 SWAP1 PUSH2 0xA19 JUMP JUMPDEST DUP1 ISZERO PUSH2 0x3BD JUMPI DUP1 PUSH1 0x1F LT PUSH2 0x394 JUMPI PUSH2 0x100 DUP1 DUP4 SLOAD DIV MUL DUP4 MSTORE SWAP2 PUSH1 0x20 ADD SWAP2 PUSH2 0x3BD JUMP JUMPDEST DUP3 ADD SWAP2 SWAP1 PUSH0 MSTORE PUSH1 0x20 PUSH0 KECCAK256 SWAP1 JUMPDEST DUP2 SLOAD DUP2 MSTORE SWAP1 PUSH1 0x1 ADD SWAP1 PUSH1 0x20 ADD DUP1 DUP4 GT PUSH2 0x3A0 JUMPI DUP3 SWAP1 SUB PUSH1 0x1F AND DUP3 ADD SWAP2 JUMPDEST POP POP POP POP POP DUP2 MSTORE PUSH1 0x20 ADD PUSH1 0x1 DUP3 ADD SLOAD DUP2 MSTORE PUSH1 0x20 ADD PUSH1 0x2 DUP3 ADD SLOAD DUP2 MSTORE PUSH1 0x20 ADD PUSH1 0x3 DUP3 ADD PUSH0 SWAP1 SLOAD SWAP1 PUSH2 0x100 EXP SWAP1 DIV PUSH1 0xFF AND ISZERO ISZERO ISZERO ISZERO DUP2 MSTORE POP POP DUP2 MSTORE PUSH1 0x20 ADD SWAP1 PUSH1 0x1 ADD SWAP1 PUSH2 0x316 JUMP JUMPDEST POP POP POP POP SWAP1 POP SWAP1 JUMP JUMPDEST PUSH0 DUP1 DUP1 SLOAD SWAP1 POP SWAP1 POP SWAP1 JUMP JUMPDEST PUSH0 DUP2 DUP2 SLOAD DUP2 LT PUSH2 0x425 JUMPI PUSH0 DUP1 REVERT JUMPDEST SWAP1 PUSH0 MSTORE PUSH1 0x20 PUSH0 KECCAK256 SWAP1 PUSH1 0x4 MUL ADD PUSH0 SWAP2 POP SWAP1 POP DUP1 PUSH0 ADD DUP1 SLOAD PUSH2 0x444 SWAP1 PUSH2 0xA19 JUMP JUMPDEST DUP1 PUSH1 0x1F ADD PUSH1 0x20 DUP1 SWAP2 DIV MUL PUSH1 0x20 ADD PUSH1 0x40 MLOAD SWAP1 DUP2 ADD PUSH1 0x40 MSTORE DUP1 SWAP3 SWAP2 SWAP1 DUP2 DUP2 MSTORE PUSH1 0x20 ADD DUP3 DUP1 SLOAD PUSH2 0x470 SWAP1 PUSH2 0xA19 JUMP JUMPDEST DUP1 ISZERO PUSH2 0x4BB JUMPI DUP1 PUSH1 0x1F LT PUSH2 0x492 JUMPI PUSH2 0x100 DUP1 DUP4 SLOAD DIV MUL DUP4 MSTORE SWAP2 PUSH1 0x20 ADD SWAP2 PUSH2 0x4BB JUMP JUMPDEST DUP3 ADD SWAP2 SWAP1 PUSH0 MSTORE PUSH1 0x20 PUSH0 KECCAK256 SWAP1 JUMPDEST DUP2 SLOAD DUP2 MSTORE SWAP1 PUSH1 0x1 ADD SWAP1 PUSH1 0x20 ADD DUP1 DUP4 GT PUSH2 0x49E JUMPI DUP3 SWAP1 SUB PUSH1 0x1F AND DUP3 ADD SWAP2 JUMPDEST POP POP POP POP POP SWAP1 DUP1 PUSH1 0x1 ADD SLOAD SWAP1 DUP1 PUSH1 0x2 ADD SLOAD SWAP1 DUP1 PUSH1 0x3 ADD PUSH0 SWAP1 SLOAD SWAP1 PUSH2 0x100 EXP SWAP1 DIV PUSH1 0xFF AND SWAP1 POP DUP5 JUMP JUMPDEST PUSH1 0x40 MLOAD DUP1 PUSH1 0x80 ADD PUSH1 0x40 MSTORE DUP1 PUSH1 0x60 DUP2 MSTORE PUSH1 0x20 ADD PUSH0 DUP2 MSTORE PUSH1 0x20 ADD PUSH0 DUP2 MSTORE PUSH1 0x20 ADD PUSH0 ISZERO ISZERO DUP2 MSTORE POP SWAP1 JUMP JUMPDEST PUSH0 PUSH1 0x40 MLOAD SWAP1 POP SWAP1 JUMP JUMPDEST PUSH0 DUP1 REVERT JUMPDEST PUSH0 DUP1 REVERT JUMPDEST PUSH0 DUP1 REVERT JUMPDEST PUSH0 DUP1 REVERT JUMPDEST PUSH0 PUSH1 0x1F NOT PUSH1 0x1F DUP4 ADD AND SWAP1 POP SWAP2 SWAP1 POP JUMP JUMPDEST PUSH32 0x4E487B7100000000000000000000000000000000000000000000000000000000 PUSH0 MSTORE PUSH1 0x41 PUSH1 0x4 MSTORE PUSH1 0x24 PUSH0 REVERT JUMPDEST PUSH2 0x569 DUP3 PUSH2 0x523 JUMP JUMPDEST DUP2 ADD DUP2 DUP2 LT PUSH8 0xFFFFFFFFFFFFFFFF DUP3 GT OR ISZERO PUSH2 0x588 JUMPI PUSH2 0x587 PUSH2 0x533 JUMP JUMPDEST JUMPDEST DUP1 PUSH1 0x40 MSTORE POP POP POP JUMP JUMPDEST PUSH0 PUSH2 0x59A PUSH2 0x50A JUMP JUMPDEST SWAP1 POP PUSH2 0x5A6 DUP3 DUP3 PUSH2 0x560 JUMP JUMPDEST SWAP2 SWAP1 POP JUMP JUMPDEST PUSH0 PUSH8 0xFFFFFFFFFFFFFFFF DUP3 GT ISZERO PUSH2 0x5C5 JUMPI PUSH2 0x5C4 PUSH2 0x533 JUMP JUMPDEST JUMPDEST PUSH2 0x5CE DUP3 PUSH2 0x523 JUMP JUMPDEST SWAP1 POP PUSH1 0x20 DUP2 ADD SWAP1 POP SWAP2 SWAP1 POP JUMP JUMPDEST DUP3 DUP2 DUP4 CALLDATACOPY PUSH0 DUP4 DUP4 ADD MSTORE POP POP POP JUMP JUMPDEST PUSH0 PUSH2 0x5FB PUSH2 0x5F6 DUP5 PUSH2 0x5AB JUMP JUMPDEST PUSH2 0x591 JUMP JUMPDEST SWAP1 POP DUP3 DUP2 MSTORE PUSH1 0x20 DUP2 ADD DUP5 DUP5 DUP5 ADD GT ISZERO PUSH2 0x617 JUMPI PUSH2 0x616 PUSH2 0x51F JUMP JUMPDEST JUMPDEST PUSH2 0x622 DUP5 DUP3 DUP6 PUSH2 0x5DB JUMP JUMPDEST POP SWAP4 SWAP3 POP POP POP JUMP JUMPDEST PUSH0 DUP3 PUSH1 0x1F DUP4 ADD SLT PUSH2 0x63E JUMPI PUSH2 0x63D PUSH2 0x51B JUMP JUMPDEST JUMPDEST DUP2 CALLDATALOAD PUSH2 0x64E DUP5 DUP3 PUSH1 0x20 DUP7 ADD PUSH2 0x5E9 JUMP JUMPDEST SWAP2 POP POP SWAP3 SWAP2 POP POP JUMP JUMPDEST PUSH0 DUP2 SWAP1 POP SWAP2 SWAP1 POP JUMP JUMPDEST PUSH2 0x669 DUP2 PUSH2 0x657 JUMP JUMPDEST DUP2 EQ PUSH2 0x673 JUMPI PUSH0 DUP1 REVERT JUMPDEST POP JUMP JUMPDEST PUSH0 DUP2 CALLDATALOAD SWAP1 POP PUSH2 0x684 DUP2 PUSH2 0x660 JUMP JUMPDEST SWAP3 SWAP2 POP POP JUMP JUMPDEST PUSH0 DUP2 ISZERO ISZERO SWAP1 POP SWAP2 SWAP1 POP JUMP JUMPDEST PUSH2 0x69E DUP2 PUSH2 0x68A JUMP JUMPDEST DUP2 EQ PUSH2 0x6A8 JUMPI PUSH0 DUP1 REVERT JUMPDEST POP JUMP JUMPDEST PUSH0 DUP2 CALLDATALOAD SWAP1 POP PUSH2 0x6B9 DUP2 PUSH2 0x695 JUMP JUMPDEST SWAP3 SWAP2 POP POP JUMP JUMPDEST PUSH0 DUP1 PUSH0 DUP1 PUSH1 0x80 DUP6 DUP8 SUB SLT ISZERO PUSH2 0x6D7 JUMPI PUSH2 0x6D6 PUSH2 0x513 JUMP JUMPDEST JUMPDEST PUSH0 DUP6 ADD CALLDATALOAD PUSH8 0xFFFFFFFFFFFFFFFF DUP2 GT ISZERO PUSH2 0x6F4 JUMPI PUSH2 0x6F3 PUSH2 0x517 JUMP JUMPDEST JUMPDEST PUSH2 0x700 DUP8 DUP3 DUP9 ADD PUSH2 0x62A JUMP JUMPDEST SWAP5 POP POP PUSH1 0x20 PUSH2 0x711 DUP8 DUP3 DUP9 ADD PUSH2 0x676 JUMP JUMPDEST SWAP4 POP POP PUSH1 0x40 PUSH2 0x722 DUP8 DUP3 DUP9 ADD PUSH2 0x676 JUMP JUMPDEST SWAP3 POP POP PUSH1 0x60 PUSH2 0x733 DUP8 DUP3 DUP9 ADD PUSH2 0x6AB JUMP JUMPDEST SWAP2 POP POP SWAP3 SWAP6 SWAP2 SWAP5 POP SWAP3 POP JUMP JUMPDEST PUSH0 DUP2 MLOAD SWAP1 POP SWAP2 SWAP1 POP JUMP JUMPDEST PUSH0 DUP3 DUP3 MSTORE PUSH1 0x20 DUP3 ADD SWAP1 POP SWAP3 SWAP2 POP POP JUMP JUMPDEST PUSH0 DUP2 SWAP1 POP PUSH1 0x20 DUP3 ADD SWAP1 POP SWAP2 SWAP1 POP JUMP JUMPDEST PUSH0 DUP2 MLOAD SWAP1 POP SWAP2 SWAP1 POP JUMP JUMPDEST PUSH0 DUP3 DUP3 MSTORE PUSH1 0x20 DUP3 ADD SWAP1 POP SWAP3 SWAP2 POP POP JUMP JUMPDEST DUP3 DUP2 DUP4 MCOPY PUSH0 DUP4 DUP4 ADD MSTORE POP POP POP JUMP JUMPDEST PUSH0 PUSH2 0x79A DUP3 PUSH2 0x768 JUMP JUMPDEST PUSH2 0x7A4 DUP2 DUP6 PUSH2 0x772 JUMP JUMPDEST SWAP4 POP PUSH2 0x7B4 DUP2 DUP6 PUSH1 0x20 DUP7 ADD PUSH2 0x782 JUMP JUMPDEST PUSH2 0x7BD DUP2 PUSH2 0x523 JUMP JUMPDEST DUP5 ADD SWAP2 POP POP SWAP3 SWAP2 POP POP JUMP JUMPDEST PUSH2 0x7D1 DUP2 PUSH2 0x657 JUMP JUMPDEST DUP3 MSTORE POP POP JUMP JUMPDEST PUSH2 0x7E0 DUP2 PUSH2 0x68A JUMP JUMPDEST DUP3 MSTORE POP POP JUMP JUMPDEST PUSH0 PUSH1 0x80 DUP4 ADD PUSH0 DUP4 ADD MLOAD DUP5 DUP3 SUB PUSH0 DUP7 ADD MSTORE PUSH2 0x800 DUP3 DUP3 PUSH2 0x790 JUMP JUMPDEST SWAP2 POP POP PUSH1 0x20 DUP4 ADD MLOAD PUSH2 0x815 PUSH1 0x20 DUP7 ADD DUP3 PUSH2 0x7C8 JUMP JUMPDEST POP PUSH1 0x40 DUP4 ADD MLOAD PUSH2 0x828 PUSH1 0x40 DUP7 ADD DUP3 PUSH2 0x7C8 JUMP JUMPDEST POP PUSH1 0x60 DUP4 ADD MLOAD PUSH2 0x83B PUSH1 0x60 DUP7 ADD DUP3 PUSH2 0x7D7 JUMP JUMPDEST POP DUP1 SWAP2 POP POP SWAP3 SWAP2 POP POP JUMP JUMPDEST PUSH0 PUSH2 0x851 DUP4 DUP4 PUSH2 0x7E6 JUMP JUMPDEST SWAP1 POP SWAP3 SWAP2 POP POP JUMP JUMPDEST PUSH0 PUSH1 0x20 DUP3 ADD SWAP1 POP SWAP2 SWAP1 POP JUMP JUMPDEST PUSH0 PUSH2 0x86F DUP3 PUSH2 0x73F JUMP JUMPDEST PUSH2 0x879 DUP2 DUP6 PUSH2 0x749 JUMP JUMPDEST SWAP4 POP DUP4 PUSH1 0x20 DUP3 MUL DUP6 ADD PUSH2 0x88B DUP6 PUSH2 0x759 JUMP JUMPDEST DUP1 PUSH0 JUMPDEST DUP6 DUP2 LT ISZERO PUSH2 0x8C6 JUMPI DUP5 DUP5 SUB DUP10 MSTORE DUP2 MLOAD PUSH2 0x8A7 DUP6 DUP3 PUSH2 0x846 JUMP JUMPDEST SWAP5 POP PUSH2 0x8B2 DUP4 PUSH2 0x859 JUMP JUMPDEST SWAP3 POP PUSH1 0x20 DUP11 ADD SWAP10 POP POP PUSH1 0x1 DUP2 ADD SWAP1 POP PUSH2 0x88E JUMP JUMPDEST POP DUP3 SWAP8 POP DUP8 SWAP6 POP POP POP POP POP POP SWAP3 SWAP2 POP POP JUMP JUMPDEST PUSH0 PUSH1 0x20 DUP3 ADD SWAP1 POP DUP2 DUP2 SUB PUSH0 DUP4 ADD MSTORE PUSH2 0x8F0 DUP2 DUP5 PUSH2 0x865 JUMP JUMPDEST SWAP1 POP SWAP3 SWAP2 POP POP JUMP JUMPDEST PUSH2 0x901 DUP2 PUSH2 0x657 JUMP JUMPDEST DUP3 MSTORE POP POP JUMP JUMPDEST PUSH0 PUSH1 0x20 DUP3 ADD SWAP1 POP PUSH2 0x91A PUSH0 DUP4 ADD DUP5 PUSH2 0x8F8 JUMP JUMPDEST SWAP3 SWAP2 POP POP JUMP JUMPDEST PUSH0 PUSH1 0x20 DUP3 DUP5 SUB SLT ISZERO PUSH2 0x935 JUMPI PUSH2 0x934 PUSH2 0x513 JUMP JUMPDEST JUMPDEST PUSH0 PUSH2 0x942 DUP5 DUP3 DUP6 ADD PUSH2 0x676 JUMP JUMPDEST SWAP2 POP POP SWAP3 SWAP2 POP POP JUMP JUMPDEST PUSH0 DUP3 DUP3 MSTORE PUSH1 0x20 DUP3 ADD SWAP1 POP SWAP3 SWAP2 POP POP JUMP JUMPDEST PUSH0 PUSH2 0x965 DUP3 PUSH2 0x768 JUMP JUMPDEST PUSH2 0x96F DUP2 DUP6 PUSH2 0x94B JUMP JUMPDEST SWAP4 POP PUSH2 0x97F DUP2 DUP6 PUSH1 0x20 DUP7 ADD PUSH2 0x782 JUMP JUMPDEST PUSH2 0x988 DUP2 PUSH2 0x523 JUMP JUMPDEST DUP5 ADD SWAP2 POP POP SWAP3 SWAP2 POP POP JUMP JUMPDEST PUSH2 0x99C DUP2 PUSH2 0x68A JUMP JUMPDEST DUP3 MSTORE POP POP JUMP JUMPDEST PUSH0 PUSH1 0x80 DUP3 ADD SWAP1 POP DUP2 DUP2 SUB PUSH0 DUP4 ADD MSTORE PUSH2 0x9BA DUP2 DUP8 PUSH2 0x95B JUMP JUMPDEST SWAP1 POP PUSH2 0x9C9 PUSH1 0x20 DUP4 ADD DUP7 PUSH2 0x8F8 JUMP JUMPDEST PUSH2 0x9D6 PUSH1 0x40 DUP4 ADD DUP6 PUSH2 0x8F8 JUMP JUMPDEST PUSH2 0x9E3 PUSH1 0x60 DUP4 ADD DUP5 PUSH2 0x993 JUMP JUMPDEST SWAP6 SWAP5 POP POP POP POP POP JUMP JUMPDEST PUSH32 0x4E487B7100000000000000000000000000000000000000000000000000000000 PUSH0 MSTORE PUSH1 0x22 PUSH1 0x4 MSTORE PUSH1 0x24 PUSH0 REVERT JUMPDEST PUSH0 PUSH1 0x2 DUP3 DIV SWAP1 POP PUSH1 0x1 DUP3 AND DUP1 PUSH2 0xA30 JUMPI PUSH1 0x7F DUP3 AND SWAP2 POP JUMPDEST PUSH1 0x20 DUP3 LT DUP2 SUB PUSH2 0xA43 JUMPI PUSH2 0xA42 PUSH2 0x9EC JUMP JUMPDEST JUMPDEST POP SWAP2 SWAP1 POP JUMP JUMPDEST PUSH0 DUP2 SWAP1 POP DUP2 PUSH0 MSTORE PUSH1 0x20 PUSH0 KECCAK256 SWAP1 POP SWAP2 SWAP1 POP JUMP JUMPDEST PUSH0 PUSH1 0x20 PUSH1 0x1F DUP4 ADD DIV SWAP1 POP SWAP2 SWAP1 POP JUMP JUMPDEST PUSH0 DUP3 DUP3 SHL SWAP1 POP SWAP3 SWAP2 POP POP JUMP JUMPDEST PUSH0 PUSH1 0x8 DUP4 MUL PUSH2 0xAA5 PUSH32 0xFFFFFFFFFFFFFFFFFFFFFFFFFFFFFFFFFFFFFFFFFFFFFFFFFFFFFFFFFFFFFFFF DUP3 PUSH2 0xA6A JUMP JUMPDEST PUSH2 0xAAF DUP7 DUP4 PUSH2 0xA6A JUMP JUMPDEST SWAP6 POP DUP1 NOT DUP5 AND SWAP4 POP DUP1 DUP7 AND DUP5 OR SWAP3 POP POP POP SWAP4 SWAP3 POP POP POP JUMP JUMPDEST PUSH0 DUP2 SWAP1 POP SWAP2 SWAP1 POP JUMP JUMPDEST PUSH0 PUSH2 0xAEA PUSH2 0xAE5 PUSH2 0xAE0 DUP5 PUSH2 0x657 JUMP JUMPDEST PUSH2 0xAC7 JUMP JUMPDEST PUSH2 0x657 JUMP JUMPDEST SWAP1 POP SWAP2 SWAP1 POP JUMP JUMPDEST PUSH0 DUP2 SWAP1 POP SWAP2 SWAP1 POP JUMP JUMPDEST PUSH2 0xB03 DUP4 PUSH2 0xAD0 JUMP JUMPDEST PUSH2 0xB17 PUSH2 0xB0F DUP3 PUSH2 0xAF1 JUMP JUMPDEST DUP5 DUP5 SLOAD PUSH2 0xA76 JUMP JUMPDEST DUP3 SSTORE POP POP POP POP JUMP JUMPDEST PUSH0 SWAP1 JUMP JUMPDEST PUSH2 0xB2B PUSH2 0xB1F JUMP JUMPDEST PUSH2 0xB36 DUP2 DUP5 DUP5 PUSH2 0xAFA JUMP JUMPDEST POP POP POP JUMP JUMPDEST JUMPDEST DUP2 DUP2 LT ISZERO PUSH2 0xB59 JUMPI PUSH2 0xB4E PUSH0 DUP3 PUSH2 0xB23 JUMP JUMPDEST PUSH1 0x1 DUP2 ADD SWAP1 POP PUSH2 0xB3C JUMP JUMPDEST POP POP JUMP JUMPDEST PUSH1 0x1F DUP3 GT ISZERO PUSH2 0xB9E JUMPI PUSH2 0xB6F DUP2 PUSH2 0xA49 JUMP JUMPDEST PUSH2 0xB78 DUP5 PUSH2 0xA5B JUMP JUMPDEST DUP2 ADD PUSH1 0x20 DUP6 LT ISZERO PUSH2 0xB87 JUMPI DUP2 SWAP1 POP JUMPDEST PUSH2 0xB9B PUSH2 0xB93 DUP6 PUSH2 0xA5B JUMP JUMPDEST DUP4 ADD DUP3 PUSH2 0xB3B JUMP JUMPDEST POP POP JUMPDEST POP POP POP JUMP JUMPDEST PUSH0 DUP3 DUP3 SHR SWAP1 POP SWAP3 SWAP2 POP POP JUMP JUMPDEST PUSH0 PUSH2 0xBBE PUSH0 NOT DUP5 PUSH1 0x8 MUL PUSH2 0xBA3 JUMP JUMPDEST NOT DUP1 DUP4 AND SWAP2 POP POP SWAP3 SWAP2 POP POP JUMP JUMPDEST PUSH0 PUSH2 0xBD6 DUP4 DUP4 PUSH2 0xBAF JUMP JUMPDEST SWAP2 POP DUP3 PUSH1 0x2 MUL DUP3 OR SWAP1 POP SWAP3 SWAP2 POP POP JUMP JUMPDEST PUSH2 0xBEF DUP3 PUSH2 0x768 JUMP JUMPDEST PUSH8 0xFFFFFFFFFFFFFFFF DUP2 GT ISZERO PUSH2 0xC08 JUMPI PUSH2 0xC07 PUSH2 0x533 JUMP JUMPDEST JUMPDEST PUSH2 0xC12 DUP3 SLOAD PUSH2 0xA19 JUMP JUMPDEST PUSH2 0xC1D DUP3 DUP3 DUP6 PUSH2 0xB5D JUMP JUMPDEST PUSH0 PUSH1 0x20 SWAP1 POP PUSH1 0x1F DUP4 GT PUSH1 0x1 DUP2 EQ PUSH2 0xC4E JUMPI PUSH0 DUP5 ISZERO PUSH2 0xC3C JUMPI DUP3 DUP8 ADD MLOAD SWAP1 POP JUMPDEST PUSH2 0xC46 DUP6 DUP3 PUSH2 0xBCB JUMP JUMPDEST DUP7 SSTORE POP PUSH2 0xCAD JUMP JUMPDEST PUSH1 0x1F NOT DUP5 AND PUSH2 0xC5C DUP7 PUSH2 0xA49 JUMP JUMPDEST PUSH0 JUMPDEST DUP3 DUP2 LT ISZERO PUSH2 0xC83 JUMPI DUP5 DUP10 ADD MLOAD DUP3 SSTORE PUSH1 0x1 DUP3 ADD SWAP2 POP PUSH1 0x20 DUP6 ADD SWAP5 POP PUSH1 0x20 DUP2 ADD SWAP1 POP PUSH2 0xC5E JUMP JUMPDEST DUP7 DUP4 LT ISZERO PUSH2 0xCA0 JUMPI DUP5 DUP10 ADD MLOAD PUSH2 0xC9C PUSH1 0x1F DUP10 AND DUP3 PUSH2 0xBAF JUMP JUMPDEST DUP4 SSTORE POP JUMPDEST PUSH1 0x1 PUSH1 0x2 DUP9 MUL ADD DUP9 SSTORE POP POP POP JUMPDEST POP POP POP POP POP POP JUMP INVALID LOG2 PUSH5 0x6970667358 0x22 SLT KECCAK256 MULMOD 0xF9 0xF6 CREATE INVALID 0xBD MSTORE8 0xE 0xBB 0x2C 0xD9 0xFC PUSH15 0xBE91831770F0C4ADA62BFA51F6AB66 0xC8 CALLCODE SAR CALLDATALOAD PUSH5 0x736F6C6343 STOP ADDMOD BYTE STOP CALLER "
				},
				"gasEstimates": {
					"creation": {
						"codeDepositCost": "661400",
						"executionCost": "694",
						"totalCost": "662094"
					},
					"external": {
						"addPerson(string,uint256,uint256,bool)": "infinite",
						"getPersonLength()": "2462",
						"getPersonList()": "infinite",
						"personList(uint256)": "infinite"
					}
				},
				"methodIdentifiers": {
					"addPerson(string,uint256,uint256,bool)": "39904699",
					"getPersonLength()": "495a0487",
					"getPersonList()": "4176c140",
					"personList(uint256)": "6b44374d"
				}
			},
			"storageLayout": {
				"storage": [
					{
						"astId": 14,
						"contract": "contracts/15_structs.sol:StructTest",
						"label": "personList",
						"offset": 0,
						"slot": "0",
						"type": "t_array(t_struct(Person)10_storage)dyn_storage"
					}
				],
				"types": {
					"t_array(t_struct(Person)10_storage)dyn_storage": {
						"base": "t_struct(Person)10_storage",
						"encoding": "dynamic_array",
						"label": "struct StructTest.Person[]",
						"numberOfBytes": "32"
					},
					"t_bool": {
						"encoding": "inplace",
						"label": "bool",
						"numberOfBytes": "1"
					},
					"t_string_storage": {
						"encoding": "bytes",
						"label": "string",
						"numberOfBytes": "32"
					},
					"t_struct(Person)10_storage": {
						"encoding": "inplace",
						"label": "struct StructTest.Person",
						"members": [
							{
								"astId": 3,
								"contract": "contracts/15_structs.sol:StructTest",
								"label": "myName",
								"offset": 0,
								"slot": "0",
								"type": "t_string_storage"
							},
							{
								"astId": 5,
								"contract": "contracts/15_structs.sol:StructTest",
								"label": "id",
								"offset": 0,
								"slot": "1",
								"type": "t_uint256"
							},
							{
								"astId": 7,
								"contract": "contracts/15_structs.sol:StructTest",
								"label": "age",
								"offset": 0,
								"slot": "2",
								"type": "t_uint256"
							},
							{
								"astId": 9,
								"contract": "contracts/15_structs.sol:StructTest",
								"label": "sex",
								"offset": 0,
								"slot": "3",
								"type": "t_bool"
							}
						],
						"numberOfBytes": "128"
					},
					"t_uint256": {
						"encoding": "inplace",
						"label": "uint256",
						"numberOfBytes": "32"
					}
				}
			},
			"userdoc": {
				"kind": "user",
				"methods": {},
				"version": 1
			}
		}
	}
}