{
	"data": {
		"bytecode": {
			"linkReferences": {},
			"object": "6080604052348015600e575f80fd5b5061031b8061001c5f395ff3fe608060405234801561000f575f80fd5b506004361061003f575f3560e01c80632fbebd38146100435780639a629ed514610073578063fc0e6008146100a3575b5f80fd5b61005d600480360381019061005891906101aa565b6100ad565b60405161006a91906101e4565b60405180910390f35b61008d600480360381019061008891906101aa565b610109565b60405161009a91906101e4565b60405180910390f35b6100ab610126565b005b5f600a8210156100cb576005826100c4919061022a565b9050610104565b60148210156100f4578160056100e1919061026b565b60056100ed919061022a565b9050610104565b816019610101919061022a565b90505b919050565b5f600a821161011957600261011c565b60015b60ff169050919050565b5f5b600a811015610151576005810315610144576005810315610151575b8080600101915050610128565b505f5b600a8110156101705780806101689061029e565b915050610154565b50565b5f80fd5b5f819050919050565b61018981610177565b8114610193575f80fd5b50565b5f813590506101a481610180565b92915050565b5f602082840312156101bf576101be610173565b5b5f6101cc84828501610196565b91505092915050565b6101de81610177565b82525050565b5f6020820190506101f75f8301846101d5565b92915050565b7f4e487b71000000000000000000000000000000000000000000000000000000005f52601160045260245ffd5b5f61023482610177565b915061023f83610177565b925082820261024d81610177565b91508282048414831517610264576102636101fd565b5b5092915050565b5f61027582610177565b915061028083610177565b9250828201905080821115610298576102976101fd565b5b92915050565b5f6102a882610177565b91507fffffffffffffffffffffffffffffffffffffffffffffffffffffffffffffffff82036102da576102d96101fd565b5b60018201905091905056fea264697066735822122092df564f43c285daf76324b6b47e47bf686aba574b5a7825424359e186609d3d64736f6c634300081a0033",
			"opcodes": "PUSH1 0x80 PUSH1 0x40 MSTORE CALLVALUE DUP1 ISZERO PUSH1 0xE JUMPI PUSH0 DUP1 REVERT JUMPDEST POP PUSH2 0x31B DUP1 PUSH2 0x1C PUSH0 CODECOPY PUSH0 RETURN INVALID PUSH1 0x80 PUSH1 0x40 MSTORE CALLVALUE DUP1 ISZERO PUSH2 0xF JUMPI PUSH0 DUP1 REVERT JUMPDEST POP PUSH1 0x4 CALLDATASIZE LT PUSH2 0x3F JUMPI PUSH0 CALLDATALOAD PUSH1 0xE0 SHR DUP1 PUSH4 0x2FBEBD38 EQ PUSH2 0x43 JUMPI DUP1 PUSH4 0x9A629ED5 EQ PUSH2 0x73 JUMPI DUP1 PUSH4 0xFC0E6008 EQ PUSH2 0xA3 JUMPI JUMPDEST PUSH0 DUP1 REVERT JUMPDEST PUSH2 0x5D PUSH1 0x4 DUP1 CALLDATASIZE SUB DUP2 ADD SWAP1 PUSH2 0x58 SWAP2 SWAP1 PUSH2 0x1AA JUMP JUMPDEST PUSH2 0xAD JUMP JUMPDEST PUSH1 0x40 MLOAD PUSH2 0x6A SWAP2 SWAP1 PUSH2 0x1E4 JUMP JUMPDEST PUSH1 0x40 MLOAD DUP1 SWAP2 SUB SWAP1 RETURN JUMPDEST PUSH2 0x8D PUSH1 0x4 DUP1 CALLDATASIZE SUB DUP2 ADD SWAP1 PUSH2 0x88 SWAP2 SWAP1 PUSH2 0x1AA JUMP JUMPDEST PUSH2 0x109 JUMP JUMPDEST PUSH1 0x40 MLOAD PUSH2 0x9A SWAP2 SWAP1 PUSH2 0x1E4 JUMP JUMPDEST PUSH1 0x40 MLOAD DUP1 SWAP2 SUB SWAP1 RETURN JUMPDEST PUSH2 0xAB PUSH2 0x126 JUMP JUMPDEST STOP JUMPDEST PUSH0 PUSH1 0xA DUP3 LT ISZERO PUSH2 0xCB JUMPI PUSH1 0x5 DUP3 PUSH2 0xC4 SWAP2 SWAP1 PUSH2 0x22A JUMP JUMPDEST SWAP1 POP PUSH2 0x104 JUMP JUMPDEST PUSH1 0x14 DUP3 LT ISZERO PUSH2 0xF4 JUMPI DUP2 PUSH1 0x5 PUSH2 0xE1 SWAP2 SWAP1 PUSH2 0x26B JUMP JUMPDEST PUSH1 0x5 PUSH2 0xED SWAP2 SWAP1 PUSH2 0x22A JUMP JUMPDEST SWAP1 POP PUSH2 0x104 JUMP JUMPDEST DUP2 PUSH1 0x19 PUSH2 0x101 SWAP2 SWAP1 PUSH2 0x22A JUMP JUMPDEST SWAP1 POP JUMPDEST SWAP2 SWAP1 POP JUMP JUMPDEST PUSH0 PUSH1 0xA DUP3 GT PUSH2 0x119 JUMPI PUSH1 0x2 PUSH2 0x11C JUMP JUMPDEST PUSH1 0x1 JUMPDEST PUSH1 0xFF AND SWAP1 POP SWAP2 SWAP1 POP JUMP JUMPDEST PUSH0 JUMPDEST PUSH1 0xA DUP2 LT ISZERO PUSH2 0x151 JUMPI PUSH1 0x5 DUP2 SUB ISZERO PUSH2 0x144 JUMPI PUSH1 0x5 DUP2 SUB ISZERO PUSH2 0x151 JUMPI JUMPDEST DUP1 DUP1 PUSH1 0x1 ADD SWAP2 POP POP PUSH2 0x128 JUMP JUMPDEST POP PUSH0 JUMPDEST PUSH1 0xA DUP2 LT ISZERO PUSH2 0x170 JUMPI DUP1 DUP1 PUSH2 0x168 SWAP1 PUSH2 0x29E JUMP JUMPDEST SWAP2 POP POP PUSH2 0x154 JUMP JUMPDEST POP JUMP JUMPDEST PUSH0 DUP1 REVERT JUMPDEST PUSH0 DUP2 SWAP1 POP SWAP2 SWAP1 POP JUMP JUMPDEST PUSH2 0x189 DUP2 PUSH2 0x177 JUMP JUMPDEST DUP2 EQ PUSH2 0x193 JUMPI PUSH0 DUP1 REVERT JUMPDEST POP JUMP JUMPDEST PUSH0 DUP2 CALLDATALOAD SWAP1 POP PUSH2 0x1A4 DUP2 PUSH2 0x180 JUMP JUMPDEST SWAP3 SWAP2 POP POP JUMP JUMPDEST PUSH0 PUSH1 0x20 DUP3 DUP5 SUB SLT ISZERO PUSH2 0x1BF JUMPI PUSH2 0x1BE PUSH2 0x173 JUMP JUMPDEST JUMPDEST PUSH0 PUSH2 0x1CC DUP5 DUP3 DUP6 ADD PUSH2 0x196 JUMP JUMPDEST SWAP2 POP POP SWAP3 SWAP2 POP POP JUMP JUMPDEST PUSH2 0x1DE DUP2 PUSH2 0x177 JUMP JUMPDEST DUP3 MSTORE POP POP JUMP JUMPDEST PUSH0 PUSH1 0x20 DUP3 ADD SWAP1 POP PUSH2 0x1F7 PUSH0 DUP4 ADD DUP5 PUSH2 0x1D5 JUMP JUMPDEST SWAP3 SWAP2 POP POP JUMP JUMPDEST PUSH32 0x4E487B7100000000000000000000000000000000000000000000000000000000 PUSH0 MSTORE PUSH1 0x11 PUSH1 0x4 MSTORE PUSH1 0x24 PUSH0 REVERT JUMPDEST PUSH0 PUSH2 0x234 DUP3 PUSH2 0x177 JUMP JUMPDEST SWAP2 POP PUSH2 0x23F DUP4 PUSH2 0x177 JUMP JUMPDEST SWAP3 POP DUP3 DUP3 MUL PUSH2 0x24D DUP2 PUSH2 0x177 JUMP JUMPDEST SWAP2 POP DUP3 DUP3 DIV DUP5 EQ DUP4 ISZERO OR PUSH2 0x264 JUMPI PUSH2 0x263 PUSH2 0x1FD JUMP JUMPDEST JUMPDEST POP SWAP3 SWAP2 POP POP JUMP JUMPDEST PUSH0 PUSH2 0x275 DUP3 PUSH2 0x177 JUMP JUMPDEST SWAP2 POP PUSH2 0x280 DUP4 PUSH2 0x177 JUMP JUMPDEST SWAP3 POP DUP3 DUP3 ADD SWAP1 POP DUP1 DUP3 GT ISZERO PUSH2 0x298 JUMPI PUSH2 0x297 PUSH2 0x1FD JUMP JUMPDEST JUMPDEST SWAP3 SWAP2 POP POP JUMP JUMPDEST PUSH0 PUSH2 0x2A8 DUP3 PUSH2 0x177 JUMP JUMPDEST SWAP2 POP PUSH32 0xFFFFFFFFFFFFFFFFFFFFFFFFFFFFFFFFFFFFFFFFFFFFFFFFFFFFFFFFFFFFFFFF DUP3 SUB PUSH2 0x2DA JUMPI PUSH2 0x2D9 PUSH2 0x1FD JUMP JUMPDEST JUMPDEST PUSH1 0x1 DUP3 ADD SWAP1 POP SWAP2 SWAP1 POP JUMP INVALID LOG2 PUSH5 0x6970667358 0x22 SLT KECCAK256 SWAP3 0xDF JUMP 0x4F NUMBER 0xC2 DUP6 0xDA 0xF7 PUSH4 0x24B6B47E SELFBALANCE 0xBF PUSH9 0x6ABA574B5A78254243 MSIZE 0xE1 DUP7 PUSH1 0x9D RETURNDATASIZE PUSH5 0x736F6C6343 STOP ADDMOD BYTE STOP CALLER "
		},
		"gasEstimates": {
			"creation": {
				"codeDepositCost": "159000",
				"executionCost": "200",
				"totalCost": "159200"
			},
			"external": {
				"TernaryOperator(uint256)": "infinite",
				"foo(uint256)": "infinite",
				"forLoop()": "infinite"
			}
		},
		"methodIdentifiers": {
			"TernaryOperator(uint256)": "9a629ed5",
			"foo(uint256)": "2fbebd38",
			"forLoop()": "fc0e6008"
		}
	},
	"abi": [
		{
			"inputs": [
				{
					"internalType": "uint256",
					"name": "x",
					"type": "uint256"
				}
			],
			"name": "TernaryOperator",
			"outputs": [
				{
					"internalType": "uint256",
					"name": "",
					"type": "uint256"
				}
			],
			"stateMutability": "pure",
			"type": "function"
		},
		{
			"inputs": [
				{
					"internalType": "uint256",
					"name": "x",
					"type": "uint256"
				}
			],
			"name": "foo",
			"outputs": [
				{
					"internalType": "uint256",
					"name": "",
					"type": "uint256"
				}
			],
			"stateMutability": "pure",
			"type": "function"
		},
		{
			"inputs": [],
			"name": "forLoop",
			"outputs": [],
			"stateMutability": "pure",
			"type": "function"
		}
	]
}